{
  "_format": "hh-sol-artifact-1",
  "contractName": "MockTAO",
  "sourceName": "contracts/MockTAO.sol",
  "abi": [
    {
      "inputs": [],
      "stateMutability": "nonpayable",
      "type": "constructor"
    },
    {
      "anonymous": false,
      "inputs": [
        {
          "indexed": true,
          "internalType": "address",
          "name": "owner",
          "type": "address"
        },
        {
          "indexed": true,
          "internalType": "address",
          "name": "spender",
          "type": "address"
        },
        {
          "indexed": false,
          "internalType": "uint256",
          "name": "value",
          "type": "uint256"
        }
      ],
      "name": "Approval",
      "type": "event"
    },
    {
      "anonymous": false,
      "inputs": [
        {
          "indexed": true,
          "internalType": "address",
          "name": "previousOwner",
          "type": "address"
        },
        {
          "indexed": true,
          "internalType": "address",
          "name": "newOwner",
          "type": "address"
        }
      ],
      "name": "OwnershipTransferred",
      "type": "event"
    },
    {
      "anonymous": false,
      "inputs": [
        {
          "indexed": true,
          "internalType": "address",
          "name": "from",
          "type": "address"
        },
        {
          "indexed": true,
          "internalType": "address",
          "name": "to",
          "type": "address"
        },
        {
          "indexed": false,
          "internalType": "uint256",
          "name": "value",
          "type": "uint256"
        }
      ],
      "name": "Transfer",
      "type": "event"
    },
    {
      "inputs": [
        {
          "internalType": "address",
          "name": "owner",
          "type": "address"
        },
        {
          "internalType": "address",
          "name": "spender",
          "type": "address"
        }
      ],
      "name": "allowance",
      "outputs": [
        {
          "internalType": "uint256",
          "name": "",
          "type": "uint256"
        }
      ],
      "stateMutability": "view",
      "type": "function"
    },
    {
      "inputs": [
        {
          "internalType": "address",
          "name": "spender",
          "type": "address"
        },
        {
          "internalType": "uint256",
          "name": "amount",
          "type": "uint256"
        }
      ],
      "name": "approve",
      "outputs": [
        {
          "internalType": "bool",
          "name": "",
          "type": "bool"
        }
      ],
      "stateMutability": "nonpayable",
      "type": "function"
    },
    {
      "inputs": [
        {
          "internalType": "address",
          "name": "account",
          "type": "address"
        }
      ],
      "name": "balanceOf",
      "outputs": [
        {
          "internalType": "uint256",
          "name": "",
          "type": "uint256"
        }
      ],
      "stateMutability": "view",
      "type": "function"
    },
    {
      "inputs": [],
      "name": "decimals",
      "outputs": [
        {
          "internalType": "uint8",
          "name": "",
          "type": "uint8"
        }
      ],
      "stateMutability": "view",
      "type": "function"
    },
    {
      "inputs": [
        {
          "internalType": "address",
          "name": "spender",
          "type": "address"
        },
        {
          "internalType": "uint256",
          "name": "subtractedValue",
          "type": "uint256"
        }
      ],
      "name": "decreaseAllowance",
      "outputs": [
        {
          "internalType": "bool",
          "name": "",
          "type": "bool"
        }
      ],
      "stateMutability": "nonpayable",
      "type": "function"
    },
    {
      "inputs": [],
      "name": "faucet",
      "outputs": [],
      "stateMutability": "nonpayable",
      "type": "function"
    },
    {
      "inputs": [
        {
          "internalType": "address",
          "name": "spender",
          "type": "address"
        },
        {
          "internalType": "uint256",
          "name": "addedValue",
          "type": "uint256"
        }
      ],
      "name": "increaseAllowance",
      "outputs": [
        {
          "internalType": "bool",
          "name": "",
          "type": "bool"
        }
      ],
      "stateMutability": "nonpayable",
      "type": "function"
    },
    {
      "inputs": [
        {
          "internalType": "address",
          "name": "to",
          "type": "address"
        },
        {
          "internalType": "uint256",
          "name": "amount",
          "type": "uint256"
        }
      ],
      "name": "mint",
      "outputs": [],
      "stateMutability": "nonpayable",
      "type": "function"
    },
    {
      "inputs": [],
      "name": "name",
      "outputs": [
        {
          "internalType": "string",
          "name": "",
          "type": "string"
        }
      ],
      "stateMutability": "view",
      "type": "function"
    },
    {
      "inputs": [],
      "name": "owner",
      "outputs": [
        {
          "internalType": "address",
          "name": "",
          "type": "address"
        }
      ],
      "stateMutability": "view",
      "type": "function"
    },
    {
      "inputs": [],
      "name": "renounceOwnership",
      "outputs": [],
      "stateMutability": "nonpayable",
      "type": "function"
    },
    {
      "inputs": [],
      "name": "symbol",
      "outputs": [
        {
          "internalType": "string",
          "name": "",
          "type": "string"
        }
      ],
      "stateMutability": "view",
      "type": "function"
    },
    {
      "inputs": [],
      "name": "totalSupply",
      "outputs": [
        {
          "internalType": "uint256",
          "name": "",
          "type": "uint256"
        }
      ],
      "stateMutability": "view",
      "type": "function"
    },
    {
      "inputs": [
        {
          "internalType": "address",
          "name": "to",
          "type": "address"
        },
        {
          "internalType": "uint256",
          "name": "amount",
          "type": "uint256"
        }
      ],
      "name": "transfer",
      "outputs": [
        {
          "internalType": "bool",
          "name": "",
          "type": "bool"
        }
      ],
      "stateMutability": "nonpayable",
      "type": "function"
    },
    {
      "inputs": [
        {
          "internalType": "address",
          "name": "from",
          "type": "address"
        },
        {
          "internalType": "address",
          "name": "to",
          "type": "address"
        },
        {
          "internalType": "uint256",
          "name": "amount",
          "type": "uint256"
        }
      ],
      "name": "transferFrom",
      "outputs": [
        {
          "internalType": "bool",
          "name": "",
          "type": "bool"
        }
      ],
      "stateMutability": "nonpayable",
      "type": "function"
    },
    {
      "inputs": [
        {
          "internalType": "address",
          "name": "newOwner",
          "type": "address"
        }
      ],
      "name": "transferOwnership",
      "outputs": [],
      "stateMutability": "nonpayable",
      "type": "function"
    }
  ],
  "bytecode": "0x60806040523480156200001157600080fd5b506040518060400160405280600881526020017f4d6f636b2054414f0000000000000000000000000000000000000000000000008152506040518060400160405280600481526020017f6d54414f0000000000000000000000000000000000000000000000000000000081525081600390816200008f9190620005a5565b508060049081620000a19190620005a5565b505050620000c4620000b8620000e660201b60201c565b620000ee60201b60201c565b620000e03369d3c21bcecceda1000000620001b460201b60201c565b620007a7565b600033905090565b6000600560009054906101000a900473ffffffffffffffffffffffffffffffffffffffff16905081600560006101000a81548173ffffffffffffffffffffffffffffffffffffffff021916908373ffffffffffffffffffffffffffffffffffffffff1602179055508173ffffffffffffffffffffffffffffffffffffffff168173ffffffffffffffffffffffffffffffffffffffff167f8be0079c531659141344cd1fd0a4f28419497f9722a3daafe3b4186f6b6457e060405160405180910390a35050565b600073ffffffffffffffffffffffffffffffffffffffff168273ffffffffffffffffffffffffffffffffffffffff160362000226576040517f08c379a00000000000000000000000000000000000000000000000000000000081526004016200021d90620006ed565b60405180910390fd5b6200023a600083836200032160201b60201c565b80600260008282546200024e91906200073e565b92505081905550806000808473ffffffffffffffffffffffffffffffffffffffff1673ffffffffffffffffffffffffffffffffffffffff168152602001908152602001600020600082825401925050819055508173ffffffffffffffffffffffffffffffffffffffff16600073ffffffffffffffffffffffffffffffffffffffff167fddf252ad1be2c89b69c2b068fc378daa952ba7f163c4a11628f55a4df523b3ef836040516200030191906200078a565b60405180910390a36200031d600083836200032660201b60201c565b5050565b505050565b505050565b600081519050919050565b7f4e487b7100000000000000000000000000000000000000000000000000000000600052604160045260246000fd5b7f4e487b7100000000000000000000000000000000000000000000000000000000600052602260045260246000fd5b60006002820490506001821680620003ad57607f821691505b602082108103620003c357620003c262000365565b5b50919050565b60008190508160005260206000209050919050565b60006020601f8301049050919050565b600082821b905092915050565b6000600883026200042d7fffffffffffffffffffffffffffffffffffffffffffffffffffffffffffffffff82620003ee565b620004398683620003ee565b95508019841693508086168417925050509392505050565b6000819050919050565b6000819050919050565b600062000486620004806200047a8462000451565b6200045b565b62000451565b9050919050565b6000819050919050565b620004a28362000465565b620004ba620004b1826200048d565b848454620003fb565b825550505050565b600090565b620004d1620004c2565b620004de81848462000497565b505050565b5b818110156200050657620004fa600082620004c7565b600181019050620004e4565b5050565b601f82111562000555576200051f81620003c9565b6200052a84620003de565b810160208510156200053a578190505b620005526200054985620003de565b830182620004e3565b50505b505050565b600082821c905092915050565b60006200057a600019846008026200055a565b1980831691505092915050565b600062000595838362000567565b9150826002028217905092915050565b620005b0826200032b565b67ffffffffffffffff811115620005cc57620005cb62000336565b5b620005d8825462000394565b620005e58282856200050a565b600060209050601f8311600181146200061d576000841562000608578287015190505b62000614858262000587565b86555062000684565b601f1984166200062d86620003c9565b60005b82811015620006575784890151825560018201915060208501945060208101905062000630565b8683101562000677578489015162000673601f89168262000567565b8355505b6001600288020188555050505b505050505050565b600082825260208201905092915050565b7f45524332303a206d696e7420746f20746865207a65726f206164647265737300600082015250565b6000620006d5601f836200068c565b9150620006e2826200069d565b602082019050919050565b600060208201905081810360008301526200070881620006c6565b9050919050565b7f4e487b7100000000000000000000000000000000000000000000000000000000600052601160045260246000fd5b60006200074b8262000451565b9150620007588362000451565b92508282019050808211156200077357620007726200070f565b5b92915050565b620007848162000451565b82525050565b6000602082019050620007a1600083018462000779565b92915050565b61180a80620007b76000396000f3fe608060405234801561001057600080fd5b50600436106101005760003560e01c8063715018a611610097578063a9059cbb11610066578063a9059cbb146102b1578063dd62ed3e146102e1578063de5f72fd14610311578063f2fde38b1461031b57610100565b8063715018a61461023b5780638da5cb5b1461024557806395d89b4114610263578063a457c2d71461028157610100565b8063313ce567116100d3578063313ce567146101a157806339509351146101bf57806340c10f19146101ef57806370a082311461020b57610100565b806306fdde0314610105578063095ea7b31461012357806318160ddd1461015357806323b872dd14610171575b600080fd5b61010d610337565b60405161011a9190610f53565b60405180910390f35b61013d6004803603810190610138919061100e565b6103c9565b60405161014a9190611069565b60405180910390f35b61015b6103ec565b6040516101689190611093565b60405180910390f35b61018b600480360381019061018691906110ae565b6103f6565b6040516101989190611069565b60405180910390f35b6101a9610425565b6040516101b6919061111d565b60405180910390f35b6101d960048036038101906101d4919061100e565b61042e565b6040516101e69190611069565b60405180910390f35b6102096004803603810190610204919061100e565b610465565b005b61022560048036038101906102209190611138565b61047b565b6040516102329190611093565b60405180910390f35b6102436104c3565b005b61024d6104d7565b60405161025a9190611174565b60405180910390f35b61026b610501565b6040516102789190610f53565b60405180910390f35b61029b6004803603810190610296919061100e565b610593565b6040516102a89190611069565b60405180910390f35b6102cb60048036038101906102c6919061100e565b61060a565b6040516102d89190611069565b60405180910390f35b6102fb60048036038101906102f6919061118f565b61062d565b6040516103089190611093565b60405180910390f35b6103196106b4565b005b61033560048036038101906103309190611138565b6106c9565b005b606060038054610346906111fe565b80601f0160208091040260200160405190810160405280929190818152602001828054610372906111fe565b80156103bf5780601f10610394576101008083540402835291602001916103bf565b820191906000526020600020905b8154815290600101906020018083116103a257829003601f168201915b5050505050905090565b6000806103d461074c565b90506103e1818585610754565b600191505092915050565b6000600254905090565b60008061040161074c565b905061040e85828561091d565b6104198585856109a9565b60019150509392505050565b60006012905090565b60008061043961074c565b905061045a81858561044b858961062d565b610455919061125e565b610754565b600191505092915050565b61046d610c1f565b6104778282610c9d565b5050565b60008060008373ffffffffffffffffffffffffffffffffffffffff1673ffffffffffffffffffffffffffffffffffffffff168152602001908152602001600020549050919050565b6104cb610c1f565b6104d56000610df3565b565b6000600560009054906101000a900473ffffffffffffffffffffffffffffffffffffffff16905090565b606060048054610510906111fe565b80601f016020809104026020016040519081016040528092919081815260200182805461053c906111fe565b80156105895780601f1061055e57610100808354040283529160200191610589565b820191906000526020600020905b81548152906001019060200180831161056c57829003601f168201915b5050505050905090565b60008061059e61074c565b905060006105ac828661062d565b9050838110156105f1576040517f08c379a00000000000000000000000000000000000000000000000000000000081526004016105e890611304565b60405180910390fd5b6105fe8286868403610754565b60019250505092915050565b60008061061561074c565b90506106228185856109a9565b600191505092915050565b6000600160008473ffffffffffffffffffffffffffffffffffffffff1673ffffffffffffffffffffffffffffffffffffffff16815260200190815260200160002060008373ffffffffffffffffffffffffffffffffffffffff1673ffffffffffffffffffffffffffffffffffffffff16815260200190815260200160002054905092915050565b6106c733683635c9adc5dea00000610c9d565b565b6106d1610c1f565b600073ffffffffffffffffffffffffffffffffffffffff168173ffffffffffffffffffffffffffffffffffffffff1603610740576040517f08c379a000000000000000000000000000000000000000000000000000000000815260040161073790611396565b60405180910390fd5b61074981610df3565b50565b600033905090565b600073ffffffffffffffffffffffffffffffffffffffff168373ffffffffffffffffffffffffffffffffffffffff16036107c3576040517f08c379a00000000000000000000000000000000000000000000000000000000081526004016107ba90611428565b60405180910390fd5b600073ffffffffffffffffffffffffffffffffffffffff168273ffffffffffffffffffffffffffffffffffffffff1603610832576040517f08c379a0000000000000000000000000000000000000000000000000000000008152600401610829906114ba565b60405180910390fd5b80600160008573ffffffffffffffffffffffffffffffffffffffff1673ffffffffffffffffffffffffffffffffffffffff16815260200190815260200160002060008473ffffffffffffffffffffffffffffffffffffffff1673ffffffffffffffffffffffffffffffffffffffff168152602001908152602001600020819055508173ffffffffffffffffffffffffffffffffffffffff168373ffffffffffffffffffffffffffffffffffffffff167f8c5be1e5ebec7d5bd14f71427d1e84f3dd0314c0f7b2291e5b200ac8c7c3b925836040516109109190611093565b60405180910390a3505050565b6000610929848461062d565b90507fffffffffffffffffffffffffffffffffffffffffffffffffffffffffffffffff81146109a35781811015610995576040517f08c379a000000000000000000000000000000000000000000000000000000000815260040161098c90611526565b60405180910390fd5b6109a28484848403610754565b5b50505050565b600073ffffffffffffffffffffffffffffffffffffffff168373ffffffffffffffffffffffffffffffffffffffff1603610a18576040517f08c379a0000000000000000000000000000000000000000000000000000000008152600401610a0f906115b8565b60405180910390fd5b600073ffffffffffffffffffffffffffffffffffffffff168273ffffffffffffffffffffffffffffffffffffffff1603610a87576040517f08c379a0000000000000000000000000000000000000000000000000000000008152600401610a7e9061164a565b60405180910390fd5b610a92838383610eb9565b60008060008573ffffffffffffffffffffffffffffffffffffffff1673ffffffffffffffffffffffffffffffffffffffff16815260200190815260200160002054905081811015610b18576040517f08c379a0000000000000000000000000000000000000000000000000000000008152600401610b0f906116dc565b60405180910390fd5b8181036000808673ffffffffffffffffffffffffffffffffffffffff1673ffffffffffffffffffffffffffffffffffffffff16815260200190815260200160002081905550816000808573ffffffffffffffffffffffffffffffffffffffff1673ffffffffffffffffffffffffffffffffffffffff168152602001908152602001600020600082825401925050819055508273ffffffffffffffffffffffffffffffffffffffff168473ffffffffffffffffffffffffffffffffffffffff167fddf252ad1be2c89b69c2b068fc378daa952ba7f163c4a11628f55a4df523b3ef84604051610c069190611093565b60405180910390a3610c19848484610ebe565b50505050565b610c2761074c565b73ffffffffffffffffffffffffffffffffffffffff16610c456104d7565b73ffffffffffffffffffffffffffffffffffffffff1614610c9b576040517f08c379a0000000000000000000000000000000000000000000000000000000008152600401610c9290611748565b60405180910390fd5b565b600073ffffffffffffffffffffffffffffffffffffffff168273ffffffffffffffffffffffffffffffffffffffff1603610d0c576040517f08c379a0000000000000000000000000000000000000000000000000000000008152600401610d03906117b4565b60405180910390fd5b610d1860008383610eb9565b8060026000828254610d2a919061125e565b92505081905550806000808473ffffffffffffffffffffffffffffffffffffffff1673ffffffffffffffffffffffffffffffffffffffff168152602001908152602001600020600082825401925050819055508173ffffffffffffffffffffffffffffffffffffffff16600073ffffffffffffffffffffffffffffffffffffffff167fddf252ad1be2c89b69c2b068fc378daa952ba7f163c4a11628f55a4df523b3ef83604051610ddb9190611093565b60405180910390a3610def60008383610ebe565b5050565b6000600560009054906101000a900473ffffffffffffffffffffffffffffffffffffffff16905081600560006101000a81548173ffffffffffffffffffffffffffffffffffffffff021916908373ffffffffffffffffffffffffffffffffffffffff1602179055508173ffffffffffffffffffffffffffffffffffffffff168173ffffffffffffffffffffffffffffffffffffffff167f8be0079c531659141344cd1fd0a4f28419497f9722a3daafe3b4186f6b6457e060405160405180910390a35050565b505050565b505050565b600081519050919050565b600082825260208201905092915050565b60005b83811015610efd578082015181840152602081019050610ee2565b60008484015250505050565b6000601f19601f8301169050919050565b6000610f2582610ec3565b610f2f8185610ece565b9350610f3f818560208601610edf565b610f4881610f09565b840191505092915050565b60006020820190508181036000830152610f6d8184610f1a565b905092915050565b600080fd5b600073ffffffffffffffffffffffffffffffffffffffff82169050919050565b6000610fa582610f7a565b9050919050565b610fb581610f9a565b8114610fc057600080fd5b50565b600081359050610fd281610fac565b92915050565b6000819050919050565b610feb81610fd8565b8114610ff657600080fd5b50565b60008135905061100881610fe2565b92915050565b6000806040838503121561102557611024610f75565b5b600061103385828601610fc3565b925050602061104485828601610ff9565b9150509250929050565b60008115159050919050565b6110638161104e565b82525050565b600060208201905061107e600083018461105a565b92915050565b61108d81610fd8565b82525050565b60006020820190506110a86000830184611084565b92915050565b6000806000606084860312156110c7576110c6610f75565b5b60006110d586828701610fc3565b93505060206110e686828701610fc3565b92505060406110f786828701610ff9565b9150509250925092565b600060ff82169050919050565b61111781611101565b82525050565b6000602082019050611132600083018461110e565b92915050565b60006020828403121561114e5761114d610f75565b5b600061115c84828501610fc3565b91505092915050565b61116e81610f9a565b82525050565b60006020820190506111896000830184611165565b92915050565b600080604083850312156111a6576111a5610f75565b5b60006111b485828601610fc3565b92505060206111c585828601610fc3565b9150509250929050565b7f4e487b7100000000000000000000000000000000000000000000000000000000600052602260045260246000fd5b6000600282049050600182168061121657607f821691505b602082108103611229576112286111cf565b5b50919050565b7f4e487b7100000000000000000000000000000000000000000000000000000000600052601160045260246000fd5b600061126982610fd8565b915061127483610fd8565b925082820190508082111561128c5761128b61122f565b5b92915050565b7f45524332303a2064656372656173656420616c6c6f77616e63652062656c6f7760008201527f207a65726f000000000000000000000000000000000000000000000000000000602082015250565b60006112ee602583610ece565b91506112f982611292565b604082019050919050565b6000602082019050818103600083015261131d816112e1565b9050919050565b7f4f776e61626c653a206e6577206f776e657220697320746865207a65726f206160008201527f6464726573730000000000000000000000000000000000000000000000000000602082015250565b6000611380602683610ece565b915061138b82611324565b604082019050919050565b600060208201905081810360008301526113af81611373565b9050919050565b7f45524332303a20617070726f76652066726f6d20746865207a65726f2061646460008201527f7265737300000000000000000000000000000000000000000000000000000000602082015250565b6000611412602483610ece565b915061141d826113b6565b604082019050919050565b6000602082019050818103600083015261144181611405565b9050919050565b7f45524332303a20617070726f766520746f20746865207a65726f20616464726560008201527f7373000000000000000000000000000000000000000000000000000000000000602082015250565b60006114a4602283610ece565b91506114af82611448565b604082019050919050565b600060208201905081810360008301526114d381611497565b9050919050565b7f45524332303a20696e73756666696369656e7420616c6c6f77616e6365000000600082015250565b6000611510601d83610ece565b915061151b826114da565b602082019050919050565b6000602082019050818103600083015261153f81611503565b9050919050565b7f45524332303a207472616e736665722066726f6d20746865207a65726f20616460008201527f6472657373000000000000000000000000000000000000000000000000000000602082015250565b60006115a2602583610ece565b91506115ad82611546565b604082019050919050565b600060208201905081810360008301526115d181611595565b9050919050565b7f45524332303a207472616e7366657220746f20746865207a65726f206164647260008201527f6573730000000000000000000000000000000000000000000000000000000000602082015250565b6000611634602383610ece565b915061163f826115d8565b604082019050919050565b6000602082019050818103600083015261166381611627565b9050919050565b7f45524332303a207472616e7366657220616d6f756e742065786365656473206260008201527f616c616e63650000000000000000000000000000000000000000000000000000602082015250565b60006116c6602683610ece565b91506116d18261166a565b604082019050919050565b600060208201905081810360008301526116f5816116b9565b9050919050565b7f4f776e61626c653a2063616c6c6572206973206e6f7420746865206f776e6572600082015250565b6000611732602083610ece565b915061173d826116fc565b602082019050919050565b6000602082019050818103600083015261176181611725565b9050919050565b7f45524332303a206d696e7420746f20746865207a65726f206164647265737300600082015250565b600061179e601f83610ece565b91506117a982611768565b602082019050919050565b600060208201905081810360008301526117cd81611791565b905091905056fea26469706673582212202f3f8ea0df3878d2a68cad5c66577295e985ee67cefb7d4aaf291e398f1511e764736f6c63430008130033",
  "linkReferences": {},
  "deployedLinkReferences": {}
}