{
  "_format": "hh-sol-artifact-1",
  "contractName": "BettingCard",
  "sourceName": "contracts/BettingCard.sol",
  "abi": [
    {
      "inputs": [],
      "stateMutability": "nonpayable",
      "type": "constructor"
    },
    {
      "inputs": [],
      "name": "BettingPeriodEnded",
      "type": "error"
    },
    {
      "inputs": [],
      "name": "CardAlreadyResolved",
      "type": "error"
    },
    {
      "inputs": [],
      "name": "CardNotFound",
      "type": "error"
    },
    {
      "inputs": [],
      "name": "CardNotResolved",
      "type": "error"
    },
    {
      "inputs": [],
      "name": "IncorrectPaymentAmount",
      "type": "error"
    },
    {
      "inputs": [],
      "name": "InvalidNetuid",
      "type": "error"
    },
    {
      "inputs": [],
      "name": "InvalidPrice",
      "type": "error"
    },
    {
      "inputs": [],
      "name": "InvalidTimestamp",
      "type": "error"
    },
    {
      "inputs": [],
      "name": "NoSharesToPurchase",
      "type": "error"
    },
    {
      "inputs": [],
      "name": "NoSharesToRedeem",
      "type": "error"
    },
    {
      "inputs": [],
      "name": "ResolutionTimeNotReached",
      "type": "error"
    },
    {
      "inputs": [],
      "name": "TransferFailed",
      "type": "error"
    },
    {
      "anonymous": false,
      "inputs": [
        {
          "indexed": true,
          "internalType": "uint256",
          "name": "cardId",
          "type": "uint256"
        },
        {
          "indexed": true,
          "internalType": "uint256",
          "name": "netuid",
          "type": "uint256"
        },
        {
          "indexed": false,
          "internalType": "uint256",
          "name": "bettedAlphaPrice",
          "type": "uint256"
        },
        {
          "indexed": false,
          "internalType": "uint256",
          "name": "timestamp",
          "type": "uint256"
        },
        {
          "indexed": false,
          "internalType": "address",
          "name": "creator",
          "type": "address"
        }
      ],
      "name": "CardCreated",
      "type": "event"
    },
    {
      "anonymous": false,
      "inputs": [
        {
          "indexed": true,
          "internalType": "uint256",
          "name": "cardId",
          "type": "uint256"
        },
        {
          "indexed": false,
          "internalType": "bool",
          "name": "outcome",
          "type": "bool"
        },
        {
          "indexed": false,
          "internalType": "uint256",
          "name": "actualAlphaPrice",
          "type": "uint256"
        }
      ],
      "name": "CardResolved",
      "type": "event"
    },
    {
      "anonymous": false,
      "inputs": [
        {
          "indexed": true,
          "internalType": "address",
          "name": "previousOwner",
          "type": "address"
        },
        {
          "indexed": true,
          "internalType": "address",
          "name": "newOwner",
          "type": "address"
        }
      ],
      "name": "OwnershipTransferred",
      "type": "event"
    },
    {
      "anonymous": false,
      "inputs": [
        {
          "indexed": true,
          "internalType": "uint256",
          "name": "cardId",
          "type": "uint256"
        },
        {
          "indexed": true,
          "internalType": "address",
          "name": "user",
          "type": "address"
        },
        {
          "indexed": false,
          "internalType": "uint256",
          "name": "yesShares",
          "type": "uint256"
        },
        {
          "indexed": false,
          "internalType": "uint256",
          "name": "noShares",
          "type": "uint256"
        },
        {
          "indexed": false,
          "internalType": "uint256",
          "name": "totalCost",
          "type": "uint256"
        }
      ],
      "name": "SharesPurchased",
      "type": "event"
    },
    {
      "anonymous": false,
      "inputs": [
        {
          "indexed": true,
          "internalType": "uint256",
          "name": "cardId",
          "type": "uint256"
        },
        {
          "indexed": true,
          "internalType": "address",
          "name": "user",
          "type": "address"
        },
        {
          "indexed": false,
          "internalType": "uint256",
          "name": "yesShares",
          "type": "uint256"
        },
        {
          "indexed": false,
          "internalType": "uint256",
          "name": "noShares",
          "type": "uint256"
        },
        {
          "indexed": false,
          "internalType": "uint256",
          "name": "totalPayout",
          "type": "uint256"
        }
      ],
      "name": "SharesRedeemed",
      "type": "event"
    },
    {
      "inputs": [],
      "name": "FEE_DENOMINATOR",
      "outputs": [
        {
          "internalType": "uint256",
          "name": "",
          "type": "uint256"
        }
      ],
      "stateMutability": "view",
      "type": "function"
    },
    {
      "inputs": [
        {
          "internalType": "uint256",
          "name": "",
          "type": "uint256"
        }
      ],
      "name": "cardExists",
      "outputs": [
        {
          "internalType": "bool",
          "name": "",
          "type": "bool"
        }
      ],
      "stateMutability": "view",
      "type": "function"
    },
    {
      "inputs": [
        {
          "internalType": "uint256",
          "name": "",
          "type": "uint256"
        }
      ],
      "name": "cards",
      "outputs": [
        {
          "internalType": "uint256",
          "name": "id",
          "type": "uint256"
        },
        {
          "internalType": "uint256",
          "name": "netuid",
          "type": "uint256"
        },
        {
          "internalType": "uint256",
          "name": "bettedAlphaPrice",
          "type": "uint256"
        },
        {
          "internalType": "uint256",
          "name": "timestamp",
          "type": "uint256"
        },
        {
          "internalType": "address",
          "name": "creator",
          "type": "address"
        },
        {
          "internalType": "uint256",
          "name": "totalYesShares",
          "type": "uint256"
        },
        {
          "internalType": "uint256",
          "name": "totalNoShares",
          "type": "uint256"
        },
        {
          "internalType": "uint256",
          "name": "totalLiquidity",
          "type": "uint256"
        },
        {
          "internalType": "bool",
          "name": "resolved",
          "type": "bool"
        },
        {
          "internalType": "bool",
          "name": "outcome",
          "type": "bool"
        },
        {
          "internalType": "uint256",
          "name": "creationTime",
          "type": "uint256"
        }
      ],
      "stateMutability": "view",
      "type": "function"
    },
    {
      "inputs": [
        {
          "internalType": "uint256",
          "name": "_netuid",
          "type": "uint256"
        },
        {
          "internalType": "uint256",
          "name": "_bettedAlphaPrice",
          "type": "uint256"
        },
        {
          "internalType": "uint256",
          "name": "_timestamp",
          "type": "uint256"
        }
      ],
      "name": "createCard",
      "outputs": [
        {
          "internalType": "uint256",
          "name": "",
          "type": "uint256"
        }
      ],
      "stateMutability": "nonpayable",
      "type": "function"
    },
    {
      "inputs": [
        {
          "internalType": "uint256",
          "name": "_cardId",
          "type": "uint256"
        }
      ],
      "name": "getCard",
      "outputs": [
        {
          "components": [
            {
              "internalType": "uint256",
              "name": "id",
              "type": "uint256"
            },
            {
              "internalType": "uint256",
              "name": "netuid",
              "type": "uint256"
            },
            {
              "internalType": "uint256",
              "name": "bettedAlphaPrice",
              "type": "uint256"
            },
            {
              "internalType": "uint256",
              "name": "timestamp",
              "type": "uint256"
            },
            {
              "internalType": "address",
              "name": "creator",
              "type": "address"
            },
            {
              "internalType": "uint256",
              "name": "totalYesShares",
              "type": "uint256"
            },
            {
              "internalType": "uint256",
              "name": "totalNoShares",
              "type": "uint256"
            },
            {
              "internalType": "uint256",
              "name": "totalLiquidity",
              "type": "uint256"
            },
            {
              "internalType": "bool",
              "name": "resolved",
              "type": "bool"
            },
            {
              "internalType": "bool",
              "name": "outcome",
              "type": "bool"
            },
            {
              "internalType": "uint256",
              "name": "creationTime",
              "type": "uint256"
            }
          ],
          "internalType": "struct BettingCard.Card",
          "name": "",
          "type": "tuple"
        }
      ],
      "stateMutability": "view",
      "type": "function"
    },
    {
      "inputs": [],
      "name": "getCardCount",
      "outputs": [
        {
          "internalType": "uint256",
          "name": "",
          "type": "uint256"
        }
      ],
      "stateMutability": "view",
      "type": "function"
    },
    {
      "inputs": [
        {
          "internalType": "address",
          "name": "_user",
          "type": "address"
        },
        {
          "internalType": "uint256",
          "name": "_cardId",
          "type": "uint256"
        }
      ],
      "name": "getUserShares",
      "outputs": [
        {
          "components": [
            {
              "internalType": "uint256",
              "name": "yesShares",
              "type": "uint256"
            },
            {
              "internalType": "uint256",
              "name": "noShares",
              "type": "uint256"
            }
          ],
          "internalType": "struct BettingCard.Share",
          "name": "",
          "type": "tuple"
        }
      ],
      "stateMutability": "view",
      "type": "function"
    },
    {
      "inputs": [],
      "name": "nextCardId",
      "outputs": [
        {
          "internalType": "uint256",
          "name": "",
          "type": "uint256"
        }
      ],
      "stateMutability": "view",
      "type": "function"
    },
    {
      "inputs": [],
      "name": "owner",
      "outputs": [
        {
          "internalType": "address",
          "name": "",
          "type": "address"
        }
      ],
      "stateMutability": "view",
      "type": "function"
    },
    {
      "inputs": [],
      "name": "platformFee",
      "outputs": [
        {
          "internalType": "uint256",
          "name": "",
          "type": "uint256"
        }
      ],
      "stateMutability": "view",
      "type": "function"
    },
    {
      "inputs": [
        {
          "internalType": "uint256",
          "name": "_cardId",
          "type": "uint256"
        },
        {
          "internalType": "uint256",
          "name": "_yesShares",
          "type": "uint256"
        },
        {
          "internalType": "uint256",
          "name": "_noShares",
          "type": "uint256"
        }
      ],
      "name": "purchaseShares",
      "outputs": [],
      "stateMutability": "payable",
      "type": "function"
    },
    {
      "inputs": [
        {
          "internalType": "uint256",
          "name": "_cardId",
          "type": "uint256"
        }
      ],
      "name": "redeemShares",
      "outputs": [],
      "stateMutability": "nonpayable",
      "type": "function"
    },
    {
      "inputs": [],
      "name": "renounceOwnership",
      "outputs": [],
      "stateMutability": "nonpayable",
      "type": "function"
    },
    {
      "inputs": [
        {
          "internalType": "uint256",
          "name": "_cardId",
          "type": "uint256"
        },
        {
          "internalType": "uint256",
          "name": "_actualAlphaPrice",
          "type": "uint256"
        }
      ],
      "name": "resolveCard",
      "outputs": [],
      "stateMutability": "nonpayable",
      "type": "function"
    },
    {
      "inputs": [
        {
          "internalType": "uint256",
          "name": "_fee",
          "type": "uint256"
        }
      ],
      "name": "setPlatformFee",
      "outputs": [],
      "stateMutability": "nonpayable",
      "type": "function"
    },
    {
      "inputs": [
        {
          "internalType": "address",
          "name": "newOwner",
          "type": "address"
        }
      ],
      "name": "transferOwnership",
      "outputs": [],
      "stateMutability": "nonpayable",
      "type": "function"
    },
    {
      "inputs": [
        {
          "internalType": "address",
          "name": "",
          "type": "address"
        },
        {
          "internalType": "uint256",
          "name": "",
          "type": "uint256"
        }
      ],
      "name": "userShares",
      "outputs": [
        {
          "internalType": "uint256",
          "name": "yesShares",
          "type": "uint256"
        },
        {
          "internalType": "uint256",
          "name": "noShares",
          "type": "uint256"
        }
      ],
      "stateMutability": "view",
      "type": "function"
    },
    {
      "inputs": [],
      "name": "withdrawFees",
      "outputs": [],
      "stateMutability": "nonpayable",
      "type": "function"
    },
    {
      "stateMutability": "payable",
      "type": "receive"
    }
  ],
  "bytecode": "0x6080604052600160025560fa60035534801561001a57600080fd5b5060016000556100293361002e565b610080565b600180546001600160a01b038381166001600160a01b0319831681179093556040519116919082907f8be0079c531659141344cd1fd0a4f28419497f9722a3daafe3b4186f6b6457e090600090a35050565b6112578061008f6000396000f3fe60806040526004361061010d5760003560e01c80639188d31211610095578063d73792a911610064578063d73792a914610383578063dafc88df14610399578063ddd9d045146103b9578063e53dc680146103f4578063f2fde38b1461044857600080fd5b80639188d3121461030d57806399bc4d961461033a578063adba98041461034d578063c5263e8c1461036d57600080fd5b80634ae3540e116100dc5780634ae3540e14610199578063715018a6146101d95780637d620130146101ee5780638da5cb5b146102035780638dc107681461022b57600080fd5b80630f9f92641461011957806312e8e2c31461013b57806326232a2e1461015b578063476343ee1461018457600080fd5b3661011457005b600080fd5b34801561012557600080fd5b5061013961013436600461102b565b610468565b005b34801561014757600080fd5b5061013961015636600461104d565b610580565b34801561016757600080fd5b5061017160035481565b6040519081526020015b60405180910390f35b34801561019057600080fd5b506101396105dc565b3480156101a557600080fd5b506101c96101b436600461104d565b60066020526000908152604090205460ff1681565b604051901515815260200161017b565b3480156101e557600080fd5b50610139610675565b3480156101fa57600080fd5b50610171610689565b34801561020f57600080fd5b506001546040516001600160a01b03909116815260200161017b565b34801561023757600080fd5b506102ae61024636600461104d565b600460208190526000918252604090912080546001820154600283015460038401549484015460058501546006860154600787015460088801546009909801549698959794966001600160a01b039094169492939192909160ff80831692610100900416908b565b604080519b8c5260208c019a909a52988a019790975260608901959095526001600160a01b03909316608088015260a087019190915260c086015260e0850152151561010084015215156101208301526101408201526101600161017b565b34801561031957600080fd5b5061032d61032836600461104d565b61069f565b60405161017b9190611066565b6101396103483660046110ff565b6107db565b34801561035957600080fd5b5061013961036836600461104d565b6109f5565b34801561037957600080fd5b5061017160025481565b34801561038f57600080fd5b5061017161271081565b3480156103a557600080fd5b506101716103b43660046110ff565b610c2b565b3480156103c557600080fd5b506103d96103d4366004611147565b610e64565b6040805182518152602092830151928101929092520161017b565b34801561040057600080fd5b5061043361040f366004611147565b60056020908152600092835260408084209091529082529020805460019091015482565b6040805192835260208301919091520161017b565b34801561045457600080fd5b50610139610463366004611171565b610eb0565b610470610f26565b60008281526006602052604090205460ff1661049f57604051630479201160e41b815260040160405180910390fd5b60008281526004602052604090206008015460ff16156104d25760405163b6ad70f360e01b815260040160405180910390fd5b6000828152600460205260409020600301544210156105045760405163dca075a360e01b815260040160405180910390fd5b600082815260046020908152604091829020600881018054600283015486101561010090810261ffff1990921691909117600117918290558451910460ff16151581529182018490529184917f252ae5c5be4f6aad38fcca6ad8a555a218c48adcb3c0ab0d83c7e260114c2450910160405180910390a2505050565b610588610f26565b6103e88111156105d75760405162461bcd60e51b81526020600482015260156024820152744665652063616e6e6f74206578636565642031302560581b60448201526064015b60405180910390fd5b600355565b6105e4610f26565b4780156106725760006105ff6001546001600160a01b031690565b6001600160a01b03168260405160006040518083038185875af1925050503d8060008114610649576040519150601f19603f3d011682016040523d82523d6000602084013e61064e565b606091505b5050905080610670576040516312171d8360e31b815260040160405180910390fd5b505b50565b61067d610f26565b6106876000610f80565b565b6000600160025461069a91906111a9565b905090565b6107096040518061016001604052806000815260200160008152602001600081526020016000815260200160006001600160a01b03168152602001600081526020016000815260200160008152602001600015158152602001600015158152602001600081525090565b60008281526006602052604090205460ff1661073857604051630479201160e41b815260040160405180910390fd5b506000908152600460208181526040928390208351610160810185528154815260018201549281019290925260028101549382019390935260038301546060820152908201546001600160a01b03166080820152600582015460a0820152600682015460c0820152600782015460e0820152600882015460ff80821615156101008085019190915290910416151561012082015260099091015461014082015290565b6107e3610fd2565b60008381526006602052604090205460ff1661081257604051630479201160e41b815260040160405180910390fd5b60008381526004602052604090206008015460ff16156108455760405163b6ad70f360e01b815260040160405180910390fd5b81158015610851575080155b1561086e576040516289606760e61b815260040160405180910390fd5b600083815260046020526040902060030154421061089f576040516356c7983160e01b815260040160405180910390fd5b60006108ab82846111bc565b90508034146108cd57604051636992e1ff60e01b815260040160405180910390fd5b336000908152600560209081526040808320878452909152812080548592906108f79084906111bc565b9091555050336000908152600560209081526040808320878452909152812060010180548492906109299084906111bc565b90915550506000848152600460205260408120600501805485929061094f9084906111bc565b9091555050600084815260046020526040812060060180548492906109759084906111bc565b90915550506000848152600460205260408120600701805483929061099b9084906111bc565b90915550506040805184815260208101849052908101829052339085907fd881b7a03adab99450e4654c7e5d438f97aa23838978d00e2a3a3f8fb1ea52ef9060600160405180910390a3506109f06001600055565b505050565b6109fd610fd2565b60008181526006602052604090205460ff16610a2c57604051630479201160e41b815260040160405180910390fd5b60008181526004602052604090206008015460ff16610a5e5760405163333c23ad60e11b815260040160405180910390fd5b33600090815260056020908152604080832084845290915290208054158015610a8957506001810154155b15610aa75760405163f10cc93760e01b815260040160405180910390fd5b60008281526004602052604081206008810154909190610100900460ff1615610af957825415610af457600582015460078301548454610ae791906111cf565b610af191906111e6565b90505b610b29565b600183015415610b2957816006015482600701548460010154610b1c91906111cf565b610b2691906111e6565b90505b825460018085015460408051808201825260008082526020808301828152338352600582528483208c84529091529290209051815590519201919091558215610bd757604051600090339085908381818185875af1925050503d8060008114610bae576040519150601f19603f3d011682016040523d82523d6000602084013e610bb3565b606091505b5050905080610bd5576040516312171d8360e31b815260040160405180910390fd5b505b6040805183815260208101839052908101849052339087907f440937b7141b89352cc35e21b147ca3d8aebef76cb9627bf3dea041ecf30889d9060600160405180910390a350505050506106726001600055565b6000428211610c4d5760405163b7d0949760e01b815260040160405180910390fd5b82600003610c6d5760405162bfc92160e01b815260040160405180910390fd5b83600003610c8e576040516368a3a6c360e11b815260040160405180910390fd5b6002805460009182610c9f83611208565b919050559050604051806101600160405280828152602001868152602001858152602001848152602001336001600160a01b0316815260200160008152602001600081526020016000815260200160001515815260200160001515815260200142815250600460008381526020019081526020016000206000820151816000015560208201518160010155604082015181600201556060820151816003015560808201518160040160006101000a8154816001600160a01b0302191690836001600160a01b0316021790555060a0820151816005015560c0820151816006015560e082015181600701556101008201518160080160006101000a81548160ff0219169083151502179055506101208201518160080160016101000a81548160ff021916908315150217905550610140820151816009015590505060016006600083815260200190815260200160002060006101000a81548160ff02191690831515021790555084817fa47f2b648fe6fee6023b9227628b751649f165f204c8a6e75d3146aca5b1b8a6868633604051610e549392919092835260208301919091526001600160a01b0316604082015260600190565b60405180910390a3949350505050565b604080518082018252600080825260209182018190526001600160a01b038516815260058252828120848252825282902082518084019093528054835260010154908201525b92915050565b610eb8610f26565b6001600160a01b038116610f1d5760405162461bcd60e51b815260206004820152602660248201527f4f776e61626c653a206e6577206f776e657220697320746865207a65726f206160448201526564647265737360d01b60648201526084016105ce565b61067281610f80565b6001546001600160a01b031633146106875760405162461bcd60e51b815260206004820181905260248201527f4f776e61626c653a2063616c6c6572206973206e6f7420746865206f776e657260448201526064016105ce565b600180546001600160a01b038381166001600160a01b0319831681179093556040519116919082907f8be0079c531659141344cd1fd0a4f28419497f9722a3daafe3b4186f6b6457e090600090a35050565b6002600054036110245760405162461bcd60e51b815260206004820152601f60248201527f5265656e7472616e637947756172643a207265656e7472616e742063616c6c0060448201526064016105ce565b6002600055565b6000806040838503121561103e57600080fd5b50508035926020909101359150565b60006020828403121561105f57600080fd5b5035919050565b6000610160820190508251825260208301516020830152604083015160408301526060830151606083015260808301516110ab60808401826001600160a01b03169052565b5060a083015160a083015260c083015160c083015260e083015160e0830152610100808401516110de8285018215159052565b50506101208381015180151584830152505061014092830151919092015290565b60008060006060848603121561111457600080fd5b505081359360208301359350604090920135919050565b80356001600160a01b038116811461114257600080fd5b919050565b6000806040838503121561115a57600080fd5b6111638361112b565b946020939093013593505050565b60006020828403121561118357600080fd5b61118c8261112b565b9392505050565b634e487b7160e01b600052601160045260246000fd5b81810381811115610eaa57610eaa611193565b80820180821115610eaa57610eaa611193565b8082028115828204841417610eaa57610eaa611193565b60008261120357634e487b7160e01b600052601260045260246000fd5b500490565b60006001820161121a5761121a611193565b506001019056fea2646970667358221220acc580f3ddc95df0178c4c5da7e8d5cc72ffffc0dcc82074dbe0b6fac1380f4864736f6c63430008130033",
  "linkReferences": {},
  "deployedLinkReferences": {}
}