{
  "_format": "hh-sol-artifact-1",
  "contractName": "BettingCard",
  "sourceName": "contracts/BettingCard.sol",
  "abi": [
    {
      "inputs": [],
      "stateMutability": "nonpayable",
      "type": "constructor"
    },
    {
      "inputs": [],
      "name": "BettingPeriodEnded",
      "type": "error"
    },
    {
      "inputs": [],
      "name": "CardAlreadyResolved",
      "type": "error"
    },
    {
      "inputs": [],
      "name": "CardNotFound",
      "type": "error"
    },
    {
      "inputs": [],
      "name": "CardNotResolved",
      "type": "error"
    },
    {
      "inputs": [],
      "name": "IncorrectPaymentAmount",
      "type": "error"
    },
    {
      "inputs": [],
      "name": "InvalidCardType",
      "type": "error"
    },
    {
      "inputs": [],
      "name": "InvalidNetuid",
      "type": "error"
    },
    {
      "inputs": [],
      "name": "InvalidOption",
      "type": "error"
    },
    {
      "inputs": [],
      "name": "InvalidOptionsArray",
      "type": "error"
    },
    {
      "inputs": [],
      "name": "InvalidPrice",
      "type": "error"
    },
    {
      "inputs": [],
      "name": "InvalidTimestamp",
      "type": "error"
    },
    {
      "inputs": [],
      "name": "NoSharesToPurchase",
      "type": "error"
    },
    {
      "inputs": [],
      "name": "NoSharesToRedeem",
      "type": "error"
    },
    {
      "inputs": [],
      "name": "ResolutionTimeNotReached",
      "type": "error"
    },
    {
      "inputs": [],
      "name": "TransferFailed",
      "type": "error"
    },
    {
      "anonymous": false,
      "inputs": [
        {
          "indexed": true,
          "internalType": "uint256",
          "name": "cardId",
          "type": "uint256"
        },
        {
          "indexed": true,
          "internalType": "uint256",
          "name": "netuid",
          "type": "uint256"
        },
        {
          "indexed": false,
          "internalType": "uint256",
          "name": "bettedAlphaPrice",
          "type": "uint256"
        },
        {
          "indexed": false,
          "internalType": "uint256",
          "name": "timestamp",
          "type": "uint256"
        },
        {
          "indexed": false,
          "internalType": "address",
          "name": "creator",
          "type": "address"
        }
      ],
      "name": "CardCreated",
      "type": "event"
    },
    {
      "anonymous": false,
      "inputs": [
        {
          "indexed": true,
          "internalType": "uint256",
          "name": "cardId",
          "type": "uint256"
        },
        {
          "indexed": true,
          "internalType": "uint256",
          "name": "netuid",
          "type": "uint256"
        },
        {
          "indexed": false,
          "internalType": "string[]",
          "name": "optionNames",
          "type": "string[]"
        },
        {
          "indexed": false,
          "internalType": "uint256",
          "name": "timestamp",
          "type": "uint256"
        },
        {
          "indexed": false,
          "internalType": "address",
          "name": "creator",
          "type": "address"
        }
      ],
      "name": "CardCreatedMulti",
      "type": "event"
    },
    {
      "anonymous": false,
      "inputs": [
        {
          "indexed": true,
          "internalType": "uint256",
          "name": "cardId",
          "type": "uint256"
        },
        {
          "indexed": false,
          "internalType": "bool",
          "name": "outcome",
          "type": "bool"
        },
        {
          "indexed": false,
          "internalType": "uint256",
          "name": "actualAlphaPrice",
          "type": "uint256"
        }
      ],
      "name": "CardResolved",
      "type": "event"
    },
    {
      "anonymous": false,
      "inputs": [
        {
          "indexed": true,
          "internalType": "uint256",
          "name": "cardId",
          "type": "uint256"
        },
        {
          "indexed": true,
          "internalType": "uint256",
          "name": "winningOption",
          "type": "uint256"
        }
      ],
      "name": "CardResolvedMulti",
      "type": "event"
    },
    {
      "anonymous": false,
      "inputs": [
        {
          "indexed": true,
          "internalType": "uint256",
          "name": "cardId",
          "type": "uint256"
        },
        {
          "indexed": true,
          "internalType": "address",
          "name": "user",
          "type": "address"
        },
        {
          "indexed": true,
          "internalType": "uint256",
          "name": "optionIndex",
          "type": "uint256"
        },
        {
          "indexed": false,
          "internalType": "uint256",
          "name": "amount",
          "type": "uint256"
        },
        {
          "indexed": false,
          "internalType": "uint256",
          "name": "feeAmount",
          "type": "uint256"
        },
        {
          "indexed": false,
          "internalType": "uint256",
          "name": "netAmount",
          "type": "uint256"
        }
      ],
      "name": "OptionBetPlaced",
      "type": "event"
    },
    {
      "anonymous": false,
      "inputs": [
        {
          "indexed": true,
          "internalType": "uint256",
          "name": "cardId",
          "type": "uint256"
        },
        {
          "indexed": true,
          "internalType": "address",
          "name": "user",
          "type": "address"
        },
        {
          "indexed": true,
          "internalType": "uint256",
          "name": "winningOption",
          "type": "uint256"
        },
        {
          "indexed": false,
          "internalType": "uint256",
          "name": "userGrossStakeOnWinner",
          "type": "uint256"
        },
        {
          "indexed": false,
          "internalType": "uint256",
          "name": "payout",
          "type": "uint256"
        }
      ],
      "name": "OptionWinningsRedeemed",
      "type": "event"
    },
    {
      "anonymous": false,
      "inputs": [
        {
          "indexed": true,
          "internalType": "address",
          "name": "previousOwner",
          "type": "address"
        },
        {
          "indexed": true,
          "internalType": "address",
          "name": "newOwner",
          "type": "address"
        }
      ],
      "name": "OwnershipTransferred",
      "type": "event"
    },
    {
      "anonymous": false,
      "inputs": [
        {
          "indexed": true,
          "internalType": "uint256",
          "name": "cardId",
          "type": "uint256"
        },
        {
          "indexed": true,
          "internalType": "address",
          "name": "user",
          "type": "address"
        },
        {
          "indexed": false,
          "internalType": "uint256",
          "name": "yesShares",
          "type": "uint256"
        },
        {
          "indexed": false,
          "internalType": "uint256",
          "name": "noShares",
          "type": "uint256"
        },
        {
          "indexed": false,
          "internalType": "uint256",
          "name": "totalCost",
          "type": "uint256"
        }
      ],
      "name": "SharesPurchased",
      "type": "event"
    },
    {
      "anonymous": false,
      "inputs": [
        {
          "indexed": true,
          "internalType": "uint256",
          "name": "cardId",
          "type": "uint256"
        },
        {
          "indexed": true,
          "internalType": "address",
          "name": "user",
          "type": "address"
        },
        {
          "indexed": false,
          "internalType": "uint256",
          "name": "yesShares",
          "type": "uint256"
        },
        {
          "indexed": false,
          "internalType": "uint256",
          "name": "noShares",
          "type": "uint256"
        },
        {
          "indexed": false,
          "internalType": "uint256",
          "name": "totalPayout",
          "type": "uint256"
        }
      ],
      "name": "SharesRedeemed",
      "type": "event"
    },
    {
      "inputs": [],
      "name": "FEE_DENOMINATOR",
      "outputs": [
        {
          "internalType": "uint256",
          "name": "",
          "type": "uint256"
        }
      ],
      "stateMutability": "view",
      "type": "function"
    },
    {
      "inputs": [],
      "name": "accumulatedFees",
      "outputs": [
        {
          "internalType": "uint256",
          "name": "",
          "type": "uint256"
        }
      ],
      "stateMutability": "view",
      "type": "function"
    },
    {
      "inputs": [
        {
          "internalType": "uint256",
          "name": "",
          "type": "uint256"
        }
      ],
      "name": "cardExists",
      "outputs": [
        {
          "internalType": "bool",
          "name": "",
          "type": "bool"
        }
      ],
      "stateMutability": "view",
      "type": "function"
    },
    {
      "inputs": [
        {
          "internalType": "uint256",
          "name": "",
          "type": "uint256"
        }
      ],
      "name": "cards",
      "outputs": [
        {
          "internalType": "uint256",
          "name": "id",
          "type": "uint256"
        },
        {
          "internalType": "uint256",
          "name": "netuid",
          "type": "uint256"
        },
        {
          "internalType": "uint256",
          "name": "bettedAlphaPrice",
          "type": "uint256"
        },
        {
          "internalType": "uint256",
          "name": "timestamp",
          "type": "uint256"
        },
        {
          "internalType": "address",
          "name": "creator",
          "type": "address"
        },
        {
          "internalType": "uint256",
          "name": "totalYesShares",
          "type": "uint256"
        },
        {
          "internalType": "uint256",
          "name": "totalNoShares",
          "type": "uint256"
        },
        {
          "internalType": "uint256",
          "name": "totalLiquidity",
          "type": "uint256"
        },
        {
          "internalType": "bool",
          "name": "resolved",
          "type": "bool"
        },
        {
          "internalType": "bool",
          "name": "outcome",
          "type": "bool"
        },
        {
          "internalType": "uint256",
          "name": "creationTime",
          "type": "uint256"
        },
        {
          "internalType": "enum BettingCard.CardType",
          "name": "cardType",
          "type": "uint8"
        },
        {
          "internalType": "uint256",
          "name": "winningOption",
          "type": "uint256"
        }
      ],
      "stateMutability": "view",
      "type": "function"
    },
    {
      "inputs": [
        {
          "internalType": "uint256",
          "name": "_netuid",
          "type": "uint256"
        },
        {
          "internalType": "uint256",
          "name": "_bettedAlphaPrice",
          "type": "uint256"
        },
        {
          "internalType": "uint256",
          "name": "_timestamp",
          "type": "uint256"
        }
      ],
      "name": "createCard",
      "outputs": [
        {
          "internalType": "uint256",
          "name": "",
          "type": "uint256"
        }
      ],
      "stateMutability": "nonpayable",
      "type": "function"
    },
    {
      "inputs": [
        {
          "internalType": "uint256",
          "name": "_netuid",
          "type": "uint256"
        },
        {
          "internalType": "string[]",
          "name": "_optionNames",
          "type": "string[]"
        },
        {
          "internalType": "uint256",
          "name": "_timestamp",
          "type": "uint256"
        }
      ],
      "name": "createCardMulti",
      "outputs": [
        {
          "internalType": "uint256",
          "name": "",
          "type": "uint256"
        }
      ],
      "stateMutability": "nonpayable",
      "type": "function"
    },
    {
      "inputs": [],
      "name": "getAccumulatedFees",
      "outputs": [
        {
          "internalType": "uint256",
          "name": "",
          "type": "uint256"
        }
      ],
      "stateMutability": "view",
      "type": "function"
    },
    {
      "inputs": [
        {
          "internalType": "uint256",
          "name": "_cardId",
          "type": "uint256"
        }
      ],
      "name": "getCard",
      "outputs": [
        {
          "components": [
            {
              "internalType": "uint256",
              "name": "id",
              "type": "uint256"
            },
            {
              "internalType": "uint256",
              "name": "netuid",
              "type": "uint256"
            },
            {
              "internalType": "uint256",
              "name": "bettedAlphaPrice",
              "type": "uint256"
            },
            {
              "internalType": "uint256",
              "name": "timestamp",
              "type": "uint256"
            },
            {
              "internalType": "address",
              "name": "creator",
              "type": "address"
            },
            {
              "internalType": "uint256",
              "name": "totalYesShares",
              "type": "uint256"
            },
            {
              "internalType": "uint256",
              "name": "totalNoShares",
              "type": "uint256"
            },
            {
              "internalType": "uint256",
              "name": "totalLiquidity",
              "type": "uint256"
            },
            {
              "internalType": "bool",
              "name": "resolved",
              "type": "bool"
            },
            {
              "internalType": "bool",
              "name": "outcome",
              "type": "bool"
            },
            {
              "internalType": "uint256",
              "name": "creationTime",
              "type": "uint256"
            },
            {
              "internalType": "enum BettingCard.CardType",
              "name": "cardType",
              "type": "uint8"
            },
            {
              "internalType": "string[]",
              "name": "optionNames",
              "type": "string[]"
            },
            {
              "internalType": "uint256",
              "name": "winningOption",
              "type": "uint256"
            }
          ],
          "internalType": "struct BettingCard.Card",
          "name": "",
          "type": "tuple"
        }
      ],
      "stateMutability": "view",
      "type": "function"
    },
    {
      "inputs": [],
      "name": "getCardCount",
      "outputs": [
        {
          "internalType": "uint256",
          "name": "",
          "type": "uint256"
        }
      ],
      "stateMutability": "view",
      "type": "function"
    },
    {
      "inputs": [
        {
          "internalType": "uint256",
          "name": "_cardId",
          "type": "uint256"
        }
      ],
      "name": "getOptionNames",
      "outputs": [
        {
          "internalType": "string[]",
          "name": "",
          "type": "string[]"
        }
      ],
      "stateMutability": "view",
      "type": "function"
    },
    {
      "inputs": [
        {
          "internalType": "uint256",
          "name": "_cardId",
          "type": "uint256"
        },
        {
          "internalType": "uint256",
          "name": "_optionIndex",
          "type": "uint256"
        }
      ],
      "name": "getOptionTotalStake",
      "outputs": [
        {
          "internalType": "uint256",
          "name": "",
          "type": "uint256"
        }
      ],
      "stateMutability": "view",
      "type": "function"
    },
    {
      "inputs": [
        {
          "internalType": "address",
          "name": "_user",
          "type": "address"
        },
        {
          "internalType": "uint256",
          "name": "_cardId",
          "type": "uint256"
        },
        {
          "internalType": "uint256",
          "name": "_optionIndex",
          "type": "uint256"
        }
      ],
      "name": "getUserOptionStake",
      "outputs": [
        {
          "internalType": "uint256",
          "name": "",
          "type": "uint256"
        }
      ],
      "stateMutability": "view",
      "type": "function"
    },
    {
      "inputs": [
        {
          "internalType": "address",
          "name": "_user",
          "type": "address"
        },
        {
          "internalType": "uint256",
          "name": "_cardId",
          "type": "uint256"
        }
      ],
      "name": "getUserShares",
      "outputs": [
        {
          "components": [
            {
              "internalType": "uint256",
              "name": "yesShares",
              "type": "uint256"
            },
            {
              "internalType": "uint256",
              "name": "noShares",
              "type": "uint256"
            }
          ],
          "internalType": "struct BettingCard.Share",
          "name": "",
          "type": "tuple"
        }
      ],
      "stateMutability": "view",
      "type": "function"
    },
    {
      "inputs": [],
      "name": "nextCardId",
      "outputs": [
        {
          "internalType": "uint256",
          "name": "",
          "type": "uint256"
        }
      ],
      "stateMutability": "view",
      "type": "function"
    },
    {
      "inputs": [
        {
          "internalType": "uint256",
          "name": "",
          "type": "uint256"
        },
        {
          "internalType": "uint256",
          "name": "",
          "type": "uint256"
        }
      ],
      "name": "optionTotalStakes",
      "outputs": [
        {
          "internalType": "uint256",
          "name": "",
          "type": "uint256"
        }
      ],
      "stateMutability": "view",
      "type": "function"
    },
    {
      "inputs": [],
      "name": "owner",
      "outputs": [
        {
          "internalType": "address",
          "name": "",
          "type": "address"
        }
      ],
      "stateMutability": "view",
      "type": "function"
    },
    {
      "inputs": [
        {
          "internalType": "uint256",
          "name": "_cardId",
          "type": "uint256"
        },
        {
          "internalType": "uint256",
          "name": "_optionIndex",
          "type": "uint256"
        }
      ],
      "name": "placeBetOnOption",
      "outputs": [],
      "stateMutability": "payable",
      "type": "function"
    },
    {
      "inputs": [],
      "name": "platformFee",
      "outputs": [
        {
          "internalType": "uint256",
          "name": "",
          "type": "uint256"
        }
      ],
      "stateMutability": "view",
      "type": "function"
    },
    {
      "inputs": [
        {
          "internalType": "uint256",
          "name": "_cardId",
          "type": "uint256"
        },
        {
          "internalType": "uint256",
          "name": "_yesShares",
          "type": "uint256"
        },
        {
          "internalType": "uint256",
          "name": "_noShares",
          "type": "uint256"
        }
      ],
      "name": "purchaseShares",
      "outputs": [],
      "stateMutability": "payable",
      "type": "function"
    },
    {
      "inputs": [
        {
          "internalType": "uint256",
          "name": "_cardId",
          "type": "uint256"
        }
      ],
      "name": "redeemOptionWinnings",
      "outputs": [],
      "stateMutability": "nonpayable",
      "type": "function"
    },
    {
      "inputs": [
        {
          "internalType": "uint256",
          "name": "_cardId",
          "type": "uint256"
        }
      ],
      "name": "redeemShares",
      "outputs": [],
      "stateMutability": "nonpayable",
      "type": "function"
    },
    {
      "inputs": [],
      "name": "renounceOwnership",
      "outputs": [],
      "stateMutability": "nonpayable",
      "type": "function"
    },
    {
      "inputs": [
        {
          "internalType": "uint256",
          "name": "_cardId",
          "type": "uint256"
        },
        {
          "internalType": "uint256",
          "name": "_actualAlphaPrice",
          "type": "uint256"
        }
      ],
      "name": "resolveCard",
      "outputs": [],
      "stateMutability": "nonpayable",
      "type": "function"
    },
    {
      "inputs": [
        {
          "internalType": "uint256",
          "name": "_cardId",
          "type": "uint256"
        },
        {
          "internalType": "uint256",
          "name": "_winningOption",
          "type": "uint256"
        }
      ],
      "name": "resolveCardMulti",
      "outputs": [],
      "stateMutability": "nonpayable",
      "type": "function"
    },
    {
      "inputs": [
        {
          "internalType": "uint256",
          "name": "_fee",
          "type": "uint256"
        }
      ],
      "name": "setPlatformFee",
      "outputs": [],
      "stateMutability": "nonpayable",
      "type": "function"
    },
    {
      "inputs": [
        {
          "internalType": "address",
          "name": "newOwner",
          "type": "address"
        }
      ],
      "name": "transferOwnership",
      "outputs": [],
      "stateMutability": "nonpayable",
      "type": "function"
    },
    {
      "inputs": [
        {
          "internalType": "address",
          "name": "",
          "type": "address"
        },
        {
          "internalType": "uint256",
          "name": "",
          "type": "uint256"
        },
        {
          "internalType": "uint256",
          "name": "",
          "type": "uint256"
        }
      ],
      "name": "userOptionStakes",
      "outputs": [
        {
          "internalType": "uint256",
          "name": "",
          "type": "uint256"
        }
      ],
      "stateMutability": "view",
      "type": "function"
    },
    {
      "inputs": [
        {
          "internalType": "address",
          "name": "",
          "type": "address"
        },
        {
          "internalType": "uint256",
          "name": "",
          "type": "uint256"
        }
      ],
      "name": "userShares",
      "outputs": [
        {
          "internalType": "uint256",
          "name": "yesShares",
          "type": "uint256"
        },
        {
          "internalType": "uint256",
          "name": "noShares",
          "type": "uint256"
        }
      ],
      "stateMutability": "view",
      "type": "function"
    },
    {
      "inputs": [],
      "name": "withdrawFees",
      "outputs": [],
      "stateMutability": "nonpayable",
      "type": "function"
    },
    {
      "stateMutability": "payable",
      "type": "receive"
    }
  ],
  "bytecode": "0x6080604052600160025560fa600355600060045534801561001f57600080fd5b50600160005561002e33610033565b610085565b600180546001600160a01b038381166001600160a01b0319831681179093556040519116919082907f8be0079c531659141344cd1fd0a4f28419497f9722a3daafe3b4186f6b6457e090600090a35050565b612696806100946000396000f3fe6080604052600436106101c65760003560e01c80638da5cb5b116100f7578063b4163d3611610095578063ddd9d04511610064578063ddd9d045146105b5578063e53dc68014610637578063ef132af31461068b578063f2fde38b146106c357600080fd5b8063b4163d361461051b578063c5263e8c14610569578063d73792a91461057f578063dafc88df1461059557600080fd5b80639188d312116100d15780639188d3121461049b57806399bc4d96146104c8578063a42c9504146104db578063adba9804146104fb57600080fd5b80638da5cb5b146103a95780638dc10768146103d157806390edf0011461047b57600080fd5b80634e09747c11610164578063628e1d261161013e578063628e1d2614610321578063715018a614610341578063793a932d146103565780637d6201301461039457600080fd5b80634e09747c146102e3578063587f5ed7146102f65780635df45a371461030c57600080fd5b806326232a2e116101a057806326232a2e1461024a57806343a615cb1461026e578063476343ee1461028e5780634ae3540e146102a357600080fd5b80630f9f9264146101d257806312e8e2c3146101f45780631386a5191461021457600080fd5b366101cd57005b600080fd5b3480156101de57600080fd5b506101f26101ed366004611e39565b6106e3565b005b34801561020057600080fd5b506101f261020f366004611e5b565b61083f565b34801561022057600080fd5b5061023461022f366004611e5b565b61089b565b6040516102419190611e74565b60405180910390f35b34801561025657600080fd5b5061026060035481565b604051908152602001610241565b34801561027a57600080fd5b50610260610289366004611f06565b6109b0565b34801561029a57600080fd5b506101f2610b85565b3480156102af57600080fd5b506102d36102be366004611e5b565b60076020526000908152604090205460ff1681565b6040519015158152602001610241565b6101f26102f1366004611e39565b610c15565b34801561030257600080fd5b5061026060045481565b34801561031857600080fd5b50600454610260565b34801561032d57600080fd5b506101f261033c366004611e5b565b610e43565b34801561034d57600080fd5b506101f2611042565b34801561036257600080fd5b50610260610371366004611fa7565b600960209081526000938452604080852082529284528284209052825290205481565b3480156103a057600080fd5b50610260611056565b3480156103b557600080fd5b506001546040516001600160a01b039091168152602001610241565b3480156103dd57600080fd5b506104626103ec366004611e5b565b600560208190526000918252604090912080546001820154600283015460038401546004850154958501546006860154600787015460088801546009890154600a8a0154600c909a0154989a9799969895976001600160a01b03169694959394929360ff8084169461010090940481169316908d565b6040516102419d9c9b9a99989796959493929190612012565b34801561048757600080fd5b506101f2610496366004611e39565b61106c565b3480156104a757600080fd5b506104bb6104b6366004611e5b565b6111a1565b6040516102419190612115565b6101f26104d63660046121f9565b611394565b3480156104e757600080fd5b506102606104f6366004611e39565b61163a565b34801561050757600080fd5b506101f2610516366004611e5b565b61165b565b34801561052757600080fd5b50610260610536366004611fa7565b6001600160a01b038316600090815260096020908152604080832085845282528083208484529091529020549392505050565b34801561057557600080fd5b5061026060025481565b34801561058b57600080fd5b5061026061271081565b3480156105a157600080fd5b506102606105b03660046121f9565b6118d5565b3480156105c157600080fd5b5061061c6105d0366004612225565b604080518082018252600080825260209182018190526001600160a01b039490941684526006815281842092845291825291829020825180840190935280548352600101549082015290565b60408051825181526020928301519281019290925201610241565b34801561064357600080fd5b50610676610652366004612225565b60066020908152600092835260408084209091529082529020805460019091015482565b60408051928352602083019190915201610241565b34801561069757600080fd5b506102606106a6366004611e39565b600860209081526000928352604080842090915290825290205481565b3480156106cf57600080fd5b506101f26106de36600461224f565b611b74565b6106eb611bea565b60008281526007602052604090205460ff1661071a57604051630479201160e41b815260040160405180910390fd5b60008281526005602052604090206008015460ff161561074d5760405163b6ad70f360e01b815260040160405180910390fd5b60008281526005602052604090206003015442101561077f5760405163dca075a360e01b815260040160405180910390fd5b6000828152600560205260408120600a015460ff1660018111156107a5576107a5611fda565b146107c357604051637dbbb63560e01b815260040160405180910390fd5b600082815260056020908152604091829020600881018054600283015486101561010090810261ffff1990921691909117600117918290558451910460ff16151581529182018490529184917f252ae5c5be4f6aad38fcca6ad8a555a218c48adcb3c0ab0d83c7e260114c2450910160405180910390a2505050565b610847611bea565b6103e88111156108965760405162461bcd60e51b81526020600482015260156024820152744665652063616e6e6f74206578636565642031302560581b60448201526064015b60405180910390fd5b600355565b60008181526007602052604090205460609060ff166108cd57604051630479201160e41b815260040160405180910390fd5b6000828152600560209081526040808320600b0180548251818502810185019093528083529193909284015b828210156109a557838290600052602060002001805461091890612271565b80601f016020809104026020016040519081016040528092919081815260200182805461094490612271565b80156109915780601f1061096657610100808354040283529160200191610991565b820191906000526020600020905b81548152906001019060200180831161097457829003601f168201915b5050505050815260200190600101906108f9565b505050509050919050565b60004282116109d25760405163b7d0949760e01b815260040160405180910390fd5b846000036109f3576040516368a3a6c360e11b815260040160405180910390fd5b6002831015610a1557604051630e908b9f60e31b815260040160405180910390fd5b6002805460009182610a26836122c1565b909155506000818152600560208190526040822083815560018082018b905560028201849055600382018890556004820180546001600160a01b03191633179055918101839055600681018390556007810183905560088101805461ffff19169055426009820155600a01805460ff191690911790559091505b84811015610b10576000828152600560205260409020600b01868683818110610acb57610acb6122da565b9050602002810190610add91906122f0565b82546001810184556000938452602090932090920191610afd91836123a2565b5080610b08816122c1565b915050610aa0565b506000818152600560209081526040808320600c01839055600790915290819020805460ff1916600117905551869082907fff872a831223dd6074a8cd7207a73ef537a49b0b3c7f8abba74109cbd2d1fd9b90610b7490899089908990339061248c565b60405180910390a395945050505050565b610b8d611bea565b6004548015610c1257600060048190556001546040516001600160a01b039091169083908381818185875af1925050503d8060008114610be9576040519150601f19603f3d011682016040523d82523d6000602084013e610bee565b606091505b5050905080610c10576040516312171d8360e31b815260040160405180910390fd5b505b50565b610c1d611c44565b60008281526007602052604090205460ff16610c4c57604051630479201160e41b815260040160405180910390fd5b60008281526005602052604090206001600a82015460ff166001811115610c7557610c75611fda565b14610c9357604051637dbbb63560e01b815260040160405180910390fd5b600881015460ff1615610cb95760405163b6ad70f360e01b815260040160405180910390fd5b80600301544210610cdd576040516356c7983160e01b815260040160405180910390fd5b600b8101548210610d0157604051632a71953160e01b815260040160405180910390fd5b34600003610d2257604051636992e1ff60e01b815260040160405180910390fd5b600354349060009061271090610d389084612541565b610d429190612558565b90506000610d50828461257a565b3360009081526009602090815260408083208a84528252808320898452909152812080549293508592909190610d8790849061258d565b9091555050600086815260086020908152604080832088845290915281208054859290610db590849061258d565b9250508190555080846007016000828254610dd0919061258d565b925050819055508160046000828254610de9919061258d565b909155505060408051848152602081018490529081018290528590339088907fce3b514b7bcd2e79c42dd4761ac50be95420f4cf85e6f27d682cf6a92adbfed89060600160405180910390a450505050610c106001600055565b610e4b611c44565b60008181526007602052604090205460ff16610e7a57604051630479201160e41b815260040160405180910390fd5b60008181526005602052604090206001600a82015460ff166001811115610ea357610ea3611fda565b14610ec157604051637dbbb63560e01b815260040160405180910390fd5b600881015460ff16610ee65760405163333c23ad60e11b815260040160405180910390fd5b600c810154336000908152600960209081526040808320868452825280832084845290915281205490819003610f2f5760405163f10cc93760e01b815260040160405180910390fd5b600084815260086020908152604080832085845290915281205460078501549091908290610f5d9085612541565b610f679190612558565b3360008181526009602090815260408083208b84528252808320898452909152808220829055519293509183908381818185875af1925050503d8060008114610fcc576040519150601f19603f3d011682016040523d82523d6000602084013e610fd1565b606091505b5050905080610ff3576040516312171d8360e31b815260040160405180910390fd5b6040805185815260208101849052869133918a917f631a8d93681fb7d140c811394a50f756c0907798a12bbd4a6282587ffd0b3e1d910160405180910390a4505050505050610c126001600055565b61104a611bea565b6110546000611c9d565b565b60006001600254611067919061257a565b905090565b611074611bea565b60008281526007602052604090205460ff166110a357604051630479201160e41b815260040160405180910390fd5b60008281526005602052604090206001600a82015460ff1660018111156110cc576110cc611fda565b146110ea57604051637dbbb63560e01b815260040160405180910390fd5b600881015460ff16156111105760405163b6ad70f360e01b815260040160405180910390fd5b80600301544210156111355760405163dca075a360e01b815260040160405180910390fd5b600b810154821061115957604051632a71953160e01b815260040160405180910390fd5b60088101805460ff19166001179055600c8101829055604051829084907f3ca31337698e2a0eddd144fc19b8ab540ec1b8682eb495b919c799c695914c0990600090a3505050565b6111a9611cef565b60008281526007602052604090205460ff166111d857604051630479201160e41b815260040160405180910390fd5b60008281526005602081815260409283902083516101c08101855281548152600180830154938201939093526002820154948101949094526003810154606085015260048101546001600160a01b031660808501529182015460a0840152600682015460c0840152600782015460e0840152600882015460ff808216151561010080870191909152909104811615156101208501526009830154610140850152600a83015461016085019291169081111561129557611295611fda565b60018111156112a6576112a6611fda565b8152602001600b8201805480602002602001604051908101604052809291908181526020016000905b8282101561137b5783829060005260206000200180546112ee90612271565b80601f016020809104026020016040519081016040528092919081815260200182805461131a90612271565b80156113675780601f1061133c57610100808354040283529160200191611367565b820191906000526020600020905b81548152906001019060200180831161134a57829003601f168201915b5050505050815260200190600101906112cf565b505050508152602001600c820154815250509050919050565b61139c611c44565b60008381526007602052604090205460ff166113cb57604051630479201160e41b815260040160405180910390fd5b60008381526005602052604090206008015460ff16156113fe5760405163b6ad70f360e01b815260040160405180910390fd5b6000838152600560205260408120600a015460ff16600181111561142457611424611fda565b1461144257604051637dbbb63560e01b815260040160405180910390fd5b8115801561144e575080155b1561146b576040516289606760e61b815260040160405180910390fd5b600083815260056020526040902060030154421061149c576040516356c7983160e01b815260040160405180910390fd5b60006114a8828461258d565b90506000612710600354836114bd9190612541565b6114c79190612558565b905060006114d5828461257a565b90508234146114f757604051636992e1ff60e01b815260040160405180910390fd5b3360009081526006602090815260408083208984529091528120805487929061152190849061258d565b90915550503360009081526006602090815260408083208984529091528120600101805486929061155390849061258d565b90915550506000868152600560208190526040822001805487929061157990849061258d565b90915550506000868152600560205260408120600601805486929061159f90849061258d565b9091555050600086815260056020526040812060070180548392906115c590849061258d565b9250508190555081600460008282546115de919061258d565b90915550506040805186815260208101869052908101849052339087907fd881b7a03adab99450e4654c7e5d438f97aa23838978d00e2a3a3f8fb1ea52ef9060600160405180910390a35050506116356001600055565b505050565b60008281526008602090815260408083208484529091529020545b92915050565b611663611c44565b60008181526007602052604090205460ff1661169257604051630479201160e41b815260040160405180910390fd5b60008181526005602052604090206008015460ff166116c45760405163333c23ad60e11b815260040160405180910390fd5b6000818152600560205260408120600a015460ff1660018111156116ea576116ea611fda565b1461170857604051637dbbb63560e01b815260040160405180910390fd5b3360009081526006602090815260408083208484529091529020805415801561173357506001810154155b156117515760405163f10cc93760e01b815260040160405180910390fd5b60008281526005602052604081206008810154909190610100900460ff16156117a35782541561179e576005820154600783015484546117919190612541565b61179b9190612558565b90505b6117d3565b6001830154156117d3578160060154826007015484600101546117c69190612541565b6117d09190612558565b90505b825460018085015460408051808201825260008082526020808301828152338352600682528483208c8452909152929020905181559051920191909155821561188157604051600090339085908381818185875af1925050503d8060008114611858576040519150601f19603f3d011682016040523d82523d6000602084013e61185d565b606091505b505090508061187f576040516312171d8360e31b815260040160405180910390fd5b505b6040805183815260208101839052908101849052339087907f440937b7141b89352cc35e21b147ca3d8aebef76cb9627bf3dea041ecf30889d9060600160405180910390a35050505050610c126001600055565b60004282116118f75760405163b7d0949760e01b815260040160405180910390fd5b826000036119175760405162bfc92160e01b815260040160405180910390fd5b83600003611938576040516368a3a6c360e11b815260040160405180910390fd5b6002805460009182611949836122c1565b919050559050604051806101c00160405280828152602001868152602001858152602001848152602001336001600160a01b03168152602001600081526020016000815260200160008152602001600015158152602001600015158152602001428152602001600060018111156119c2576119c2611fda565b815260200160006040519080825280602002602001820160405280156119fc57816020015b60608152602001906001900390816119e75790505b50815260006020918201819052838152600580835260409182902084518155928401516001808501919091559184015160028401556060840151600384015560808401516004840180546001600160a01b0319166001600160a01b0390921691909117905560a08401519083015560c0830151600683015560e083015160078301556101008084015160088401805461012087015161ffff1990911692151561ff001916929092179115159092021790556101408301516009830155610160830151600a830180549192909160ff1916908381811115611ade57611ade611fda565b02179055506101808201518051611aff91600b840191602090910190611d7c565b506101a09190910151600c90910155600081815260076020908152604091829020805460ff19166001179055815186815290810185905233818301529051869183917fa47f2b648fe6fee6023b9227628b751649f165f204c8a6e75d3146aca5b1b8a6916060908290030190a3949350505050565b611b7c611bea565b6001600160a01b038116611be15760405162461bcd60e51b815260206004820152602660248201527f4f776e61626c653a206e6577206f776e657220697320746865207a65726f206160448201526564647265737360d01b606482015260840161088d565b610c1281611c9d565b6001546001600160a01b031633146110545760405162461bcd60e51b815260206004820181905260248201527f4f776e61626c653a2063616c6c6572206973206e6f7420746865206f776e6572604482015260640161088d565b600260005403611c965760405162461bcd60e51b815260206004820152601f60248201527f5265656e7472616e637947756172643a207265656e7472616e742063616c6c00604482015260640161088d565b6002600055565b600180546001600160a01b038381166001600160a01b0319831681179093556040519116919082907f8be0079c531659141344cd1fd0a4f28419497f9722a3daafe3b4186f6b6457e090600090a35050565b604051806101c001604052806000815260200160008152602001600081526020016000815260200160006001600160a01b031681526020016000815260200160008152602001600081526020016000151581526020016000151581526020016000815260200160006001811115611d6857611d68611fda565b815260200160608152602001600081525090565b828054828255906000526020600020908101928215611dc2579160200282015b82811115611dc25782518290611db290826125a0565b5091602001919060010190611d9c565b50611dce929150611dd2565b5090565b80821115611dce576000611de68282611def565b50600101611dd2565b508054611dfb90612271565b6000825580601f10611e0b575050565b601f016020900490600052602060002090810190610c1291905b80821115611dce5760008155600101611e25565b60008060408385031215611e4c57600080fd5b50508035926020909101359150565b600060208284031215611e6d57600080fd5b5035919050565b6000602080830181845280855180835260408601915060408160051b87010192508387016000805b83811015611ef857888603603f1901855282518051808852835b81811015611ed1578281018a01518982018b01528901611eb6565b508781018901849052601f01601f1916909601870195509386019391860191600101611e9c565b509398975050505050505050565b60008060008060608587031215611f1c57600080fd5b84359350602085013567ffffffffffffffff80821115611f3b57600080fd5b818701915087601f830112611f4f57600080fd5b813581811115611f5e57600080fd5b8860208260051b8501011115611f7357600080fd5b95986020929092019750949560400135945092505050565b80356001600160a01b0381168114611fa257600080fd5b919050565b600080600060608486031215611fbc57600080fd5b611fc584611f8b565b95602085013595506040909401359392505050565b634e487b7160e01b600052602160045260246000fd5b6002811061200e57634e487b7160e01b600052602160045260246000fd5b9052565b60006101a0820190508e82528d60208301528c60408301528b606083015260018060a01b038b1660808301528960a08301528860c08301528760e083015286151561010083015285151561012083015284610140830152612077610160830185611ff0565b826101808301529e9d5050505050505050505050505050565b600081518084526020808501808196508360051b810191508286016000805b86811015612107578385038a5282518051808752835b818110156120e0578281018901518882018a015288016120c5565b5086810188018490529a87019a601f01601f191690950186019450918501916001016120af565b509298975050505050505050565b60208152815160208201526020820151604082015260408201516060820152606082015160808201526000608083015161215a60a08401826001600160a01b03169052565b5060a083015160c083015260c083015160e083015260e08301516101008181850152808501519150506101206121938185018315159052565b84015190506101406121a88482018315159052565b8401516101608481019190915284015190506101806121c981850183611ff0565b808501519150506101c06101a081818601526121e96101e0860184612090565b9501519301929092525090919050565b60008060006060848603121561220e57600080fd5b505081359360208301359350604090920135919050565b6000806040838503121561223857600080fd5b61224183611f8b565b946020939093013593505050565b60006020828403121561226157600080fd5b61226a82611f8b565b9392505050565b600181811c9082168061228557607f821691505b6020821081036122a557634e487b7160e01b600052602260045260246000fd5b50919050565b634e487b7160e01b600052601160045260246000fd5b6000600182016122d3576122d36122ab565b5060010190565b634e487b7160e01b600052603260045260246000fd5b6000808335601e1984360301811261230757600080fd5b83018035915067ffffffffffffffff82111561232257600080fd5b60200191503681900382131561233757600080fd5b9250929050565b634e487b7160e01b600052604160045260246000fd5b601f82111561163557600081815260208120601f850160051c8101602086101561237b5750805b601f850160051c820191505b8181101561239a57828155600101612387565b505050505050565b67ffffffffffffffff8311156123ba576123ba61233e565b6123ce836123c88354612271565b83612354565b6000601f84116001811461240257600085156123ea5750838201355b600019600387901b1c1916600186901b17835561245c565b600083815260209020601f19861690835b828110156124335786850135825560209485019460019092019101612413565b50868210156124505760001960f88860031b161c19848701351681555b505060018560011b0183555b5050505050565b81835281816020850137506000828201602090810191909152601f909101601f19169091010190565b6060808252810184905260006080600586901b8301810190830187835b8881101561251d57858403607f190183528135368b9003601e190181126124cf57600080fd5b8a01602081810191359067ffffffffffffffff8211156124ee57600080fd5b8136038313156124fd57600080fd5b612508878385612463565b965094850194939093019250506001016124a9565b505050602083018590526001600160a01b0384166040840152905095945050505050565b8082028115828204841417611655576116556122ab565b60008261257557634e487b7160e01b600052601260045260246000fd5b500490565b81810381811115611655576116556122ab565b80820180821115611655576116556122ab565b815167ffffffffffffffff8111156125ba576125ba61233e565b6125ce816125c88454612271565b84612354565b602080601f83116001811461260357600084156125eb5750858301515b600019600386901b1c1916600185901b17855561239a565b600085815260208120601f198616915b8281101561263257888601518255948401946001909101908401612613565b50858210156126505787850151600019600388901b60f8161c191681555b5050505050600190811b0190555056fea2646970667358221220e8d8fa7da027226304d0f67d7ffa2e0d6a3b4951c8ce29bd19c0f89a630f249364736f6c63430008130033",
  "linkReferences": {},
  "deployedLinkReferences": {}
}