{
  "_format": "hh-sol-artifact-1",
  "contractName": "BettingCard",
  "sourceName": "contracts/BettingCard.sol",
  "abi": [
    {
      "inputs": [
        {
          "internalType": "address",
          "name": "_taoToken",
          "type": "address"
        }
      ],
      "stateMutability": "nonpayable",
      "type": "constructor"
    },
    {
      "anonymous": false,
      "inputs": [
        {
          "indexed": true,
          "internalType": "uint256",
          "name": "cardId",
          "type": "uint256"
        },
        {
          "indexed": true,
          "internalType": "uint256",
          "name": "netuid",
          "type": "uint256"
        },
        {
          "indexed": false,
          "internalType": "uint256",
          "name": "bettedAlphaPrice",
          "type": "uint256"
        },
        {
          "indexed": false,
          "internalType": "uint256",
          "name": "timestamp",
          "type": "uint256"
        },
        {
          "indexed": false,
          "internalType": "address",
          "name": "creator",
          "type": "address"
        }
      ],
      "name": "CardCreated",
      "type": "event"
    },
    {
      "anonymous": false,
      "inputs": [
        {
          "indexed": true,
          "internalType": "uint256",
          "name": "cardId",
          "type": "uint256"
        },
        {
          "indexed": false,
          "internalType": "bool",
          "name": "outcome",
          "type": "bool"
        },
        {
          "indexed": false,
          "internalType": "uint256",
          "name": "actualAlphaPrice",
          "type": "uint256"
        }
      ],
      "name": "CardResolved",
      "type": "event"
    },
    {
      "anonymous": false,
      "inputs": [
        {
          "indexed": true,
          "internalType": "address",
          "name": "previousOwner",
          "type": "address"
        },
        {
          "indexed": true,
          "internalType": "address",
          "name": "newOwner",
          "type": "address"
        }
      ],
      "name": "OwnershipTransferred",
      "type": "event"
    },
    {
      "anonymous": false,
      "inputs": [
        {
          "indexed": true,
          "internalType": "uint256",
          "name": "cardId",
          "type": "uint256"
        },
        {
          "indexed": true,
          "internalType": "address",
          "name": "user",
          "type": "address"
        },
        {
          "indexed": false,
          "internalType": "uint256",
          "name": "yesShares",
          "type": "uint256"
        },
        {
          "indexed": false,
          "internalType": "uint256",
          "name": "noShares",
          "type": "uint256"
        },
        {
          "indexed": false,
          "internalType": "uint256",
          "name": "totalCost",
          "type": "uint256"
        }
      ],
      "name": "SharesPurchased",
      "type": "event"
    },
    {
      "anonymous": false,
      "inputs": [
        {
          "indexed": true,
          "internalType": "uint256",
          "name": "cardId",
          "type": "uint256"
        },
        {
          "indexed": true,
          "internalType": "address",
          "name": "user",
          "type": "address"
        },
        {
          "indexed": false,
          "internalType": "uint256",
          "name": "yesShares",
          "type": "uint256"
        },
        {
          "indexed": false,
          "internalType": "uint256",
          "name": "noShares",
          "type": "uint256"
        },
        {
          "indexed": false,
          "internalType": "uint256",
          "name": "totalPayout",
          "type": "uint256"
        }
      ],
      "name": "SharesRedeemed",
      "type": "event"
    },
    {
      "inputs": [],
      "name": "FEE_DENOMINATOR",
      "outputs": [
        {
          "internalType": "uint256",
          "name": "",
          "type": "uint256"
        }
      ],
      "stateMutability": "view",
      "type": "function"
    },
    {
      "inputs": [
        {
          "internalType": "uint256",
          "name": "",
          "type": "uint256"
        }
      ],
      "name": "cardExists",
      "outputs": [
        {
          "internalType": "bool",
          "name": "",
          "type": "bool"
        }
      ],
      "stateMutability": "view",
      "type": "function"
    },
    {
      "inputs": [
        {
          "internalType": "uint256",
          "name": "",
          "type": "uint256"
        }
      ],
      "name": "cards",
      "outputs": [
        {
          "internalType": "uint256",
          "name": "id",
          "type": "uint256"
        },
        {
          "internalType": "uint256",
          "name": "netuid",
          "type": "uint256"
        },
        {
          "internalType": "uint256",
          "name": "bettedAlphaPrice",
          "type": "uint256"
        },
        {
          "internalType": "uint256",
          "name": "timestamp",
          "type": "uint256"
        },
        {
          "internalType": "address",
          "name": "creator",
          "type": "address"
        },
        {
          "internalType": "uint256",
          "name": "totalYesShares",
          "type": "uint256"
        },
        {
          "internalType": "uint256",
          "name": "totalNoShares",
          "type": "uint256"
        },
        {
          "internalType": "uint256",
          "name": "totalLiquidity",
          "type": "uint256"
        },
        {
          "internalType": "bool",
          "name": "resolved",
          "type": "bool"
        },
        {
          "internalType": "bool",
          "name": "outcome",
          "type": "bool"
        },
        {
          "internalType": "uint256",
          "name": "creationTime",
          "type": "uint256"
        }
      ],
      "stateMutability": "view",
      "type": "function"
    },
    {
      "inputs": [
        {
          "internalType": "uint256",
          "name": "_netuid",
          "type": "uint256"
        },
        {
          "internalType": "uint256",
          "name": "_bettedAlphaPrice",
          "type": "uint256"
        },
        {
          "internalType": "uint256",
          "name": "_timestamp",
          "type": "uint256"
        }
      ],
      "name": "createCard",
      "outputs": [
        {
          "internalType": "uint256",
          "name": "",
          "type": "uint256"
        }
      ],
      "stateMutability": "nonpayable",
      "type": "function"
    },
    {
      "inputs": [
        {
          "internalType": "uint256",
          "name": "_cardId",
          "type": "uint256"
        }
      ],
      "name": "getCard",
      "outputs": [
        {
          "components": [
            {
              "internalType": "uint256",
              "name": "id",
              "type": "uint256"
            },
            {
              "internalType": "uint256",
              "name": "netuid",
              "type": "uint256"
            },
            {
              "internalType": "uint256",
              "name": "bettedAlphaPrice",
              "type": "uint256"
            },
            {
              "internalType": "uint256",
              "name": "timestamp",
              "type": "uint256"
            },
            {
              "internalType": "address",
              "name": "creator",
              "type": "address"
            },
            {
              "internalType": "uint256",
              "name": "totalYesShares",
              "type": "uint256"
            },
            {
              "internalType": "uint256",
              "name": "totalNoShares",
              "type": "uint256"
            },
            {
              "internalType": "uint256",
              "name": "totalLiquidity",
              "type": "uint256"
            },
            {
              "internalType": "bool",
              "name": "resolved",
              "type": "bool"
            },
            {
              "internalType": "bool",
              "name": "outcome",
              "type": "bool"
            },
            {
              "internalType": "uint256",
              "name": "creationTime",
              "type": "uint256"
            }
          ],
          "internalType": "struct BettingCard.Card",
          "name": "",
          "type": "tuple"
        }
      ],
      "stateMutability": "view",
      "type": "function"
    },
    {
      "inputs": [],
      "name": "getCardCount",
      "outputs": [
        {
          "internalType": "uint256",
          "name": "",
          "type": "uint256"
        }
      ],
      "stateMutability": "view",
      "type": "function"
    },
    {
      "inputs": [
        {
          "internalType": "address",
          "name": "_user",
          "type": "address"
        },
        {
          "internalType": "uint256",
          "name": "_cardId",
          "type": "uint256"
        }
      ],
      "name": "getUserShares",
      "outputs": [
        {
          "components": [
            {
              "internalType": "uint256",
              "name": "yesShares",
              "type": "uint256"
            },
            {
              "internalType": "uint256",
              "name": "noShares",
              "type": "uint256"
            }
          ],
          "internalType": "struct BettingCard.Share",
          "name": "",
          "type": "tuple"
        }
      ],
      "stateMutability": "view",
      "type": "function"
    },
    {
      "inputs": [],
      "name": "nextCardId",
      "outputs": [
        {
          "internalType": "uint256",
          "name": "",
          "type": "uint256"
        }
      ],
      "stateMutability": "view",
      "type": "function"
    },
    {
      "inputs": [],
      "name": "owner",
      "outputs": [
        {
          "internalType": "address",
          "name": "",
          "type": "address"
        }
      ],
      "stateMutability": "view",
      "type": "function"
    },
    {
      "inputs": [],
      "name": "platformFee",
      "outputs": [
        {
          "internalType": "uint256",
          "name": "",
          "type": "uint256"
        }
      ],
      "stateMutability": "view",
      "type": "function"
    },
    {
      "inputs": [
        {
          "internalType": "uint256",
          "name": "_cardId",
          "type": "uint256"
        },
        {
          "internalType": "uint256",
          "name": "_yesShares",
          "type": "uint256"
        },
        {
          "internalType": "uint256",
          "name": "_noShares",
          "type": "uint256"
        }
      ],
      "name": "purchaseShares",
      "outputs": [],
      "stateMutability": "nonpayable",
      "type": "function"
    },
    {
      "inputs": [
        {
          "internalType": "uint256",
          "name": "_cardId",
          "type": "uint256"
        }
      ],
      "name": "redeemShares",
      "outputs": [],
      "stateMutability": "nonpayable",
      "type": "function"
    },
    {
      "inputs": [],
      "name": "renounceOwnership",
      "outputs": [],
      "stateMutability": "nonpayable",
      "type": "function"
    },
    {
      "inputs": [
        {
          "internalType": "uint256",
          "name": "_cardId",
          "type": "uint256"
        },
        {
          "internalType": "uint256",
          "name": "_actualAlphaPrice",
          "type": "uint256"
        }
      ],
      "name": "resolveCard",
      "outputs": [],
      "stateMutability": "nonpayable",
      "type": "function"
    },
    {
      "inputs": [
        {
          "internalType": "uint256",
          "name": "_fee",
          "type": "uint256"
        }
      ],
      "name": "setPlatformFee",
      "outputs": [],
      "stateMutability": "nonpayable",
      "type": "function"
    },
    {
      "inputs": [],
      "name": "taoToken",
      "outputs": [
        {
          "internalType": "contract IERC20",
          "name": "",
          "type": "address"
        }
      ],
      "stateMutability": "view",
      "type": "function"
    },
    {
      "inputs": [
        {
          "internalType": "address",
          "name": "newOwner",
          "type": "address"
        }
      ],
      "name": "transferOwnership",
      "outputs": [],
      "stateMutability": "nonpayable",
      "type": "function"
    },
    {
      "inputs": [
        {
          "internalType": "address",
          "name": "",
          "type": "address"
        },
        {
          "internalType": "uint256",
          "name": "",
          "type": "uint256"
        }
      ],
      "name": "userShares",
      "outputs": [
        {
          "internalType": "uint256",
          "name": "yesShares",
          "type": "uint256"
        },
        {
          "internalType": "uint256",
          "name": "noShares",
          "type": "uint256"
        }
      ],
      "stateMutability": "view",
      "type": "function"
    },
    {
      "inputs": [],
      "name": "withdrawFees",
      "outputs": [],
      "stateMutability": "nonpayable",
      "type": "function"
    }
  ],
  "bytecode": "0x60a0604052600160025560fa6003553480156200001b57600080fd5b5060405162002aec38038062002aec8339818101604052810190620000419190620001dc565b6001600081905550620000696200005d620000a460201b60201c565b620000ac60201b60201c565b8073ffffffffffffffffffffffffffffffffffffffff1660808173ffffffffffffffffffffffffffffffffffffffff1681525050506200020e565b600033905090565b6000600160009054906101000a900473ffffffffffffffffffffffffffffffffffffffff16905081600160006101000a81548173ffffffffffffffffffffffffffffffffffffffff021916908373ffffffffffffffffffffffffffffffffffffffff1602179055508173ffffffffffffffffffffffffffffffffffffffff168173ffffffffffffffffffffffffffffffffffffffff167f8be0079c531659141344cd1fd0a4f28419497f9722a3daafe3b4186f6b6457e060405160405180910390a35050565b600080fd5b600073ffffffffffffffffffffffffffffffffffffffff82169050919050565b6000620001a48262000177565b9050919050565b620001b68162000197565b8114620001c257600080fd5b50565b600081519050620001d681620001ab565b92915050565b600060208284031215620001f557620001f462000172565b5b60006200020584828501620001c5565b91505092915050565b60805161289862000254600039600081816105d0015281816105fe015281816106a301528181610b4201528181610c1e01528181610cfb01526111f001526128986000f3fe608060405234801561001057600080fd5b50600436106101215760003560e01c80638dc10768116100ad578063d73792a911610071578063d73792a9146102da578063dafc88df146102f8578063ddd9d04514610328578063e53dc68014610358578063f2fde38b1461038957610121565b80638dc107681461021a5780639188d3121461025457806399bc4d9614610284578063adba9804146102a0578063c5263e8c146102bc57610121565b8063476343ee116100f4578063476343ee1461019a5780634ae3540e146101a4578063715018a6146101d45780637d620130146101de5780638da5cb5b146101fc57610121565b80630f9f92641461012657806312e8e2c31461014257806326232a2e1461015e578063441f46841461017c575b600080fd5b610140600480360381019061013b9190611958565b6103a5565b005b61015c60048036038101906101579190611998565b610571565b005b6101666105c8565b60405161017391906119d4565b60405180910390f35b6101846105ce565b6040516101919190611a6e565b60405180910390f35b6101a26105f2565b005b6101be60048036038101906101b99190611998565b61074b565b6040516101cb9190611aa4565b60405180910390f35b6101dc61076b565b005b6101e661077f565b6040516101f391906119d4565b60405180910390f35b610204610795565b6040516102119190611ae0565b60405180910390f35b610234600480360381019061022f9190611998565b6107bf565b60405161024b9b9a99989796959493929190611afb565b60405180910390f35b61026e60048036038101906102699190611998565b610853565b60405161027b9190611cb4565b60405180910390f35b61029e60048036038101906102999190611cd0565b6109bd565b005b6102ba60048036038101906102b59190611998565b610f56565b005b6102c46112f7565b6040516102d191906119d4565b60405180910390f35b6102e26112fd565b6040516102ef91906119d4565b60405180910390f35b610312600480360381019061030d9190611cd0565b611303565b60405161031f91906119d4565b60405180910390f35b610342600480360381019061033d9190611d4f565b6115b7565b60405161034f9190611dbe565b60405180910390f35b610372600480360381019061036d9190611d4f565b611636565b604051610380929190611dd9565b60405180910390f35b6103a3600480360381019061039e9190611e02565b611667565b005b6103ad6116ea565b6006600083815260200190815260200160002060009054906101000a900460ff1661040d576040517f08c379a000000000000000000000000000000000000000000000000000000000815260040161040490611e8c565b60405180910390fd5b6004600083815260200190815260200160002060080160009054906101000a900460ff1615610471576040517f08c379a000000000000000000000000000000000000000000000000000000000815260040161046890611ef8565b60405180910390fd5b60046000838152602001908152602001600020600301544210156104ca576040517f08c379a00000000000000000000000000000000000000000000000000000000081526004016104c190611f64565b60405180910390fd5b600060046000848152602001908152602001600020905060018160080160006101000a81548160ff02191690831515021790555080600201548210158160080160016101000a81548160ff021916908315150217905550827f252ae5c5be4f6aad38fcca6ad8a555a218c48adcb3c0ab0d83c7e260114c24508260080160019054906101000a900460ff1684604051610564929190611f84565b60405180910390a2505050565b6105796116ea565b6103e88111156105be576040517f08c379a00000000000000000000000000000000000000000000000000000000081526004016105b590611ff9565b60405180910390fd5b8060038190555050565b60035481565b7f000000000000000000000000000000000000000000000000000000000000000081565b6105fa6116ea565b60007f000000000000000000000000000000000000000000000000000000000000000073ffffffffffffffffffffffffffffffffffffffff166370a08231306040518263ffffffff1660e01b81526004016106559190611ae0565b602060405180830381865afa158015610672573d6000803e3d6000fd5b505050506040513d601f19601f82011682018060405250810190610696919061202e565b90506000811115610748577f000000000000000000000000000000000000000000000000000000000000000073ffffffffffffffffffffffffffffffffffffffff1663a9059cbb6106e5610795565b836040518363ffffffff1660e01b815260040161070392919061205b565b6020604051808303816000875af1158015610722573d6000803e3d6000fd5b505050506040513d601f19601f8201168201806040525081019061074691906120b0565b505b50565b60066020528060005260406000206000915054906101000a900460ff1681565b6107736116ea565b61077d6000611768565b565b60006001600254610790919061210c565b905090565b6000600160009054906101000a900473ffffffffffffffffffffffffffffffffffffffff16905090565b60046020528060005260406000206000915090508060000154908060010154908060020154908060030154908060040160009054906101000a900473ffffffffffffffffffffffffffffffffffffffff16908060050154908060060154908060070154908060080160009054906101000a900460ff16908060080160019054906101000a900460ff1690806009015490508b565b61085b61188f565b6006600083815260200190815260200160002060009054906101000a900460ff166108bb576040517f08c379a00000000000000000000000000000000000000000000000000000000081526004016108b290611e8c565b60405180910390fd5b6004600083815260200190815260200160002060405180610160016040529081600082015481526020016001820154815260200160028201548152602001600382015481526020016004820160009054906101000a900473ffffffffffffffffffffffffffffffffffffffff1673ffffffffffffffffffffffffffffffffffffffff1673ffffffffffffffffffffffffffffffffffffffff1681526020016005820154815260200160068201548152602001600782015481526020016008820160009054906101000a900460ff161515151581526020016008820160019054906101000a900460ff161515151581526020016009820154815250509050919050565b6109c561182e565b6006600084815260200190815260200160002060009054906101000a900460ff16610a25576040517f08c379a0000000000000000000000000000000000000000000000000000000008152600401610a1c90611e8c565b60405180910390fd5b6004600084815260200190815260200160002060080160009054906101000a900460ff1615610a89576040517f08c379a0000000000000000000000000000000000000000000000000000000008152600401610a8090611ef8565b60405180910390fd5b6000821180610a985750600081115b610ad7576040517f08c379a0000000000000000000000000000000000000000000000000000000008152600401610ace9061218c565b60405180910390fd5b60046000848152602001908152602001600020600301544210610b2f576040517f08c379a0000000000000000000000000000000000000000000000000000000008152600401610b26906121f8565b60405180910390fd5b60008183610b3d9190612218565b9050807f000000000000000000000000000000000000000000000000000000000000000073ffffffffffffffffffffffffffffffffffffffff166370a08231336040518263ffffffff1660e01b8152600401610b999190611ae0565b602060405180830381865afa158015610bb6573d6000803e3d6000fd5b505050506040513d601f19601f82011682018060405250810190610bda919061202e565b1015610c1b576040517f08c379a0000000000000000000000000000000000000000000000000000000008152600401610c1290612298565b60405180910390fd5b807f000000000000000000000000000000000000000000000000000000000000000073ffffffffffffffffffffffffffffffffffffffff1663dd62ed3e33306040518363ffffffff1660e01b8152600401610c779291906122b8565b602060405180830381865afa158015610c94573d6000803e3d6000fd5b505050506040513d601f19601f82011682018060405250810190610cb8919061202e565b1015610cf9576040517f08c379a0000000000000000000000000000000000000000000000000000000008152600401610cf09061232d565b60405180910390fd5b7f000000000000000000000000000000000000000000000000000000000000000073ffffffffffffffffffffffffffffffffffffffff166323b872dd3330846040518463ffffffff1660e01b8152600401610d569392919061234d565b6020604051808303816000875af1158015610d75573d6000803e3d6000fd5b505050506040513d601f19601f82011682018060405250810190610d9991906120b0565b5082600560003373ffffffffffffffffffffffffffffffffffffffff1673ffffffffffffffffffffffffffffffffffffffff16815260200190815260200160002060008681526020019081526020016000206000016000828254610dfd9190612218565b9250508190555081600560003373ffffffffffffffffffffffffffffffffffffffff1673ffffffffffffffffffffffffffffffffffffffff16815260200190815260200160002060008681526020019081526020016000206001016000828254610e679190612218565b9250508190555082600460008681526020019081526020016000206005016000828254610e949190612218565b9250508190555081600460008681526020019081526020016000206006016000828254610ec19190612218565b9250508190555080600460008681526020019081526020016000206007016000828254610eee9190612218565b925050819055503373ffffffffffffffffffffffffffffffffffffffff16847fd881b7a03adab99450e4654c7e5d438f97aa23838978d00e2a3a3f8fb1ea52ef858585604051610f4093929190612384565b60405180910390a350610f5161187d565b505050565b610f5e61182e565b6006600082815260200190815260200160002060009054906101000a900460ff16610fbe576040517f08c379a0000000000000000000000000000000000000000000000000000000008152600401610fb590611e8c565b60405180910390fd5b6004600082815260200190815260200160002060080160009054906101000a900460ff16611021576040517f08c379a000000000000000000000000000000000000000000000000000000000815260040161101890612407565b60405180910390fd5b6000600560003373ffffffffffffffffffffffffffffffffffffffff1673ffffffffffffffffffffffffffffffffffffffff1681526020019081526020016000206000838152602001908152602001600020905060008160000154118061108c575060008160010154115b6110cb576040517f08c379a00000000000000000000000000000000000000000000000000000000081526004016110c290612473565b60405180910390fd5b600060046000848152602001908152602001600020905060008160080160019054906101000a900460ff16156111335760008360000154111561112e578160050154826007015484600001546111219190612493565b61112b9190612504565b90505b611167565b600083600101541115611166578160060154826007015484600101546111599190612493565b6111639190612504565b90505b5b6040518060400160405280600081526020016000815250600560003373ffffffffffffffffffffffffffffffffffffffff1673ffffffffffffffffffffffffffffffffffffffff16815260200190815260200160002060008681526020019081526020016000206000820151816000015560208201518160010155905050600081111561128e577f000000000000000000000000000000000000000000000000000000000000000073ffffffffffffffffffffffffffffffffffffffff1663a9059cbb33836040518363ffffffff1660e01b815260040161124992919061205b565b6020604051808303816000875af1158015611268573d6000803e3d6000fd5b505050506040513d601f19601f8201168201806040525081019061128c91906120b0565b505b3373ffffffffffffffffffffffffffffffffffffffff16847f440937b7141b89352cc35e21b147ca3d8aebef76cb9627bf3dea041ecf30889d85600001548660010154856040516112e193929190612384565b60405180910390a35050506112f461187d565b50565b60025481565b61271081565b6000428211611347576040517f08c379a000000000000000000000000000000000000000000000000000000000815260040161133e90612581565b60405180910390fd5b6000831161138a576040517f08c379a0000000000000000000000000000000000000000000000000000000008152600401611381906125ed565b60405180910390fd5b600084116113cd576040517f08c379a00000000000000000000000000000000000000000000000000000000081526004016113c490612659565b60405180910390fd5b6000600260008154809291906113e290612679565b9190505590506040518061016001604052808281526020018681526020018581526020018481526020013373ffffffffffffffffffffffffffffffffffffffff16815260200160008152602001600081526020016000815260200160001515815260200160001515815260200142815250600460008381526020019081526020016000206000820151816000015560208201518160010155604082015181600201556060820151816003015560808201518160040160006101000a81548173ffffffffffffffffffffffffffffffffffffffff021916908373ffffffffffffffffffffffffffffffffffffffff16021790555060a0820151816005015560c0820151816006015560e082015181600701556101008201518160080160006101000a81548160ff0219169083151502179055506101208201518160080160016101000a81548160ff021916908315150217905550610140820151816009015590505060016006600083815260200190815260200160002060006101000a81548160ff02191690831515021790555084817fa47f2b648fe6fee6023b9227628b751649f165f204c8a6e75d3146aca5b1b8a68686336040516115a4939291906126c1565b60405180910390a3809150509392505050565b6115bf611903565b600560008473ffffffffffffffffffffffffffffffffffffffff1673ffffffffffffffffffffffffffffffffffffffff168152602001908152602001600020600083815260200190815260200160002060405180604001604052908160008201548152602001600182015481525050905092915050565b6005602052816000526040600020602052806000526040600020600091509150508060000154908060010154905082565b61166f6116ea565b600073ffffffffffffffffffffffffffffffffffffffff168173ffffffffffffffffffffffffffffffffffffffff16036116de576040517f08c379a00000000000000000000000000000000000000000000000000000000081526004016116d59061276a565b60405180910390fd5b6116e781611768565b50565b6116f2611887565b73ffffffffffffffffffffffffffffffffffffffff16611710610795565b73ffffffffffffffffffffffffffffffffffffffff1614611766576040517f08c379a000000000000000000000000000000000000000000000000000000000815260040161175d906127d6565b60405180910390fd5b565b6000600160009054906101000a900473ffffffffffffffffffffffffffffffffffffffff16905081600160006101000a81548173ffffffffffffffffffffffffffffffffffffffff021916908373ffffffffffffffffffffffffffffffffffffffff1602179055508173ffffffffffffffffffffffffffffffffffffffff168173ffffffffffffffffffffffffffffffffffffffff167f8be0079c531659141344cd1fd0a4f28419497f9722a3daafe3b4186f6b6457e060405160405180910390a35050565b600260005403611873576040517f08c379a000000000000000000000000000000000000000000000000000000000815260040161186a90612842565b60405180910390fd5b6002600081905550565b6001600081905550565b600033905090565b60405180610160016040528060008152602001600081526020016000815260200160008152602001600073ffffffffffffffffffffffffffffffffffffffff168152602001600081526020016000815260200160008152602001600015158152602001600015158152602001600081525090565b604051806040016040528060008152602001600081525090565b600080fd5b6000819050919050565b61193581611922565b811461194057600080fd5b50565b6000813590506119528161192c565b92915050565b6000806040838503121561196f5761196e61191d565b5b600061197d85828601611943565b925050602061198e85828601611943565b9150509250929050565b6000602082840312156119ae576119ad61191d565b5b60006119bc84828501611943565b91505092915050565b6119ce81611922565b82525050565b60006020820190506119e960008301846119c5565b92915050565b600073ffffffffffffffffffffffffffffffffffffffff82169050919050565b6000819050919050565b6000611a34611a2f611a2a846119ef565b611a0f565b6119ef565b9050919050565b6000611a4682611a19565b9050919050565b6000611a5882611a3b565b9050919050565b611a6881611a4d565b82525050565b6000602082019050611a836000830184611a5f565b92915050565b60008115159050919050565b611a9e81611a89565b82525050565b6000602082019050611ab96000830184611a95565b92915050565b6000611aca826119ef565b9050919050565b611ada81611abf565b82525050565b6000602082019050611af56000830184611ad1565b92915050565b600061016082019050611b11600083018e6119c5565b611b1e602083018d6119c5565b611b2b604083018c6119c5565b611b38606083018b6119c5565b611b45608083018a611ad1565b611b5260a08301896119c5565b611b5f60c08301886119c5565b611b6c60e08301876119c5565b611b7a610100830186611a95565b611b88610120830185611a95565b611b966101408301846119c5565b9c9b505050505050505050505050565b611baf81611922565b82525050565b611bbe81611abf565b82525050565b611bcd81611a89565b82525050565b61016082016000820151611bea6000850182611ba6565b506020820151611bfd6020850182611ba6565b506040820151611c106040850182611ba6565b506060820151611c236060850182611ba6565b506080820151611c366080850182611bb5565b5060a0820151611c4960a0850182611ba6565b5060c0820151611c5c60c0850182611ba6565b5060e0820151611c6f60e0850182611ba6565b50610100820151611c84610100850182611bc4565b50610120820151611c99610120850182611bc4565b50610140820151611cae610140850182611ba6565b50505050565b600061016082019050611cca6000830184611bd3565b92915050565b600080600060608486031215611ce957611ce861191d565b5b6000611cf786828701611943565b9350506020611d0886828701611943565b9250506040611d1986828701611943565b9150509250925092565b611d2c81611abf565b8114611d3757600080fd5b50565b600081359050611d4981611d23565b92915050565b60008060408385031215611d6657611d6561191d565b5b6000611d7485828601611d3a565b9250506020611d8585828601611943565b9150509250929050565b604082016000820151611da56000850182611ba6565b506020820151611db86020850182611ba6565b50505050565b6000604082019050611dd36000830184611d8f565b92915050565b6000604082019050611dee60008301856119c5565b611dfb60208301846119c5565b9392505050565b600060208284031215611e1857611e1761191d565b5b6000611e2684828501611d3a565b91505092915050565b600082825260208201905092915050565b7f4361726420646f6573206e6f7420657869737400000000000000000000000000600082015250565b6000611e76601383611e2f565b9150611e8182611e40565b602082019050919050565b60006020820190508181036000830152611ea581611e69565b9050919050565b7f4361726420616c7265616479207265736f6c7665640000000000000000000000600082015250565b6000611ee2601583611e2f565b9150611eed82611eac565b602082019050919050565b60006020820190508181036000830152611f1181611ed5565b9050919050565b7f5265736f6c7574696f6e2074696d65206e6f7420726561636865640000000000600082015250565b6000611f4e601b83611e2f565b9150611f5982611f18565b602082019050919050565b60006020820190508181036000830152611f7d81611f41565b9050919050565b6000604082019050611f996000830185611a95565b611fa660208301846119c5565b9392505050565b7f4665652063616e6e6f7420657863656564203130250000000000000000000000600082015250565b6000611fe3601583611e2f565b9150611fee82611fad565b602082019050919050565b6000602082019050818103600083015261201281611fd6565b9050919050565b6000815190506120288161192c565b92915050565b6000602082840312156120445761204361191d565b5b600061205284828501612019565b91505092915050565b60006040820190506120706000830185611ad1565b61207d60208301846119c5565b9392505050565b61208d81611a89565b811461209857600080fd5b50565b6000815190506120aa81612084565b92915050565b6000602082840312156120c6576120c561191d565b5b60006120d48482850161209b565b91505092915050565b7f4e487b7100000000000000000000000000000000000000000000000000000000600052601160045260246000fd5b600061211782611922565b915061212283611922565b925082820390508181111561213a576121396120dd565b5b92915050565b7f4d757374207075726368617365206174206c65617374206f6e65207368617265600082015250565b6000612176602083611e2f565b915061218182612140565b602082019050919050565b600060208201905081810360008301526121a581612169565b9050919050565b7f42657474696e6720706572696f642068617320656e6465640000000000000000600082015250565b60006121e2601883611e2f565b91506121ed826121ac565b602082019050919050565b60006020820190508181036000830152612211816121d5565b9050919050565b600061222382611922565b915061222e83611922565b9250828201905080821115612246576122456120dd565b5b92915050565b7f496e73756666696369656e742054414f2062616c616e63650000000000000000600082015250565b6000612282601883611e2f565b915061228d8261224c565b602082019050919050565b600060208201905081810360008301526122b181612275565b9050919050565b60006040820190506122cd6000830185611ad1565b6122da6020830184611ad1565b9392505050565b7f496e73756666696369656e7420616c6c6f77616e636500000000000000000000600082015250565b6000612317601683611e2f565b9150612322826122e1565b602082019050919050565b600060208201905081810360008301526123468161230a565b9050919050565b60006060820190506123626000830186611ad1565b61236f6020830185611ad1565b61237c60408301846119c5565b949350505050565b600060608201905061239960008301866119c5565b6123a660208301856119c5565b6123b360408301846119c5565b949350505050565b7f43617264206e6f74207265736f6c766564000000000000000000000000000000600082015250565b60006123f1601183611e2f565b91506123fc826123bb565b602082019050919050565b60006020820190508181036000830152612420816123e4565b9050919050565b7f4e6f2073686172657320746f2072656465656d00000000000000000000000000600082015250565b600061245d601383611e2f565b915061246882612427565b602082019050919050565b6000602082019050818103600083015261248c81612450565b9050919050565b600061249e82611922565b91506124a983611922565b92508282026124b781611922565b915082820484148315176124ce576124cd6120dd565b5b5092915050565b7f4e487b7100000000000000000000000000000000000000000000000000000000600052601260045260246000fd5b600061250f82611922565b915061251a83611922565b92508261252a576125296124d5565b5b828204905092915050565b7f54696d657374616d70206d75737420626520696e207468652066757475726500600082015250565b600061256b601f83611e2f565b915061257682612535565b602082019050919050565b6000602082019050818103600083015261259a8161255e565b9050919050565b7f5072696365206d7573742062652067726561746572207468616e203000000000600082015250565b60006125d7601c83611e2f565b91506125e2826125a1565b602082019050919050565b60006020820190508181036000830152612606816125ca565b9050919050565b7f496e76616c6964206e6574756964000000000000000000000000000000000000600082015250565b6000612643600e83611e2f565b915061264e8261260d565b602082019050919050565b6000602082019050818103600083015261267281612636565b9050919050565b600061268482611922565b91507fffffffffffffffffffffffffffffffffffffffffffffffffffffffffffffffff82036126b6576126b56120dd565b5b600182019050919050565b60006060820190506126d660008301866119c5565b6126e360208301856119c5565b6126f06040830184611ad1565b949350505050565b7f4f776e61626c653a206e6577206f776e657220697320746865207a65726f206160008201527f6464726573730000000000000000000000000000000000000000000000000000602082015250565b6000612754602683611e2f565b915061275f826126f8565b604082019050919050565b6000602082019050818103600083015261278381612747565b9050919050565b7f4f776e61626c653a2063616c6c6572206973206e6f7420746865206f776e6572600082015250565b60006127c0602083611e2f565b91506127cb8261278a565b602082019050919050565b600060208201905081810360008301526127ef816127b3565b9050919050565b7f5265656e7472616e637947756172643a207265656e7472616e742063616c6c00600082015250565b600061282c601f83611e2f565b9150612837826127f6565b602082019050919050565b6000602082019050818103600083015261285b8161281f565b905091905056fea2646970667358221220a528af367cf29c6e00dcff9780fa531fd8b617ced2a25ef57a697db342313f4f64736f6c63430008130033",
  "linkReferences": {},
  "deployedLinkReferences": {}
}