{"contracts/BettingCard.sol":{"BettingCard":{"abi":[{"inputs":[],"stateMutability":"nonpayable","type":"constructor"},{"inputs":[],"name":"AlreadyDisputed","type":"error"},{"inputs":[],"name":"AlreadyVoted","type":"error"},{"inputs":[],"name":"BettingPeriodEnded","type":"error"},{"inputs":[],"name":"CardAlreadyResolved","type":"error"},{"inputs":[],"name":"CardNotFound","type":"error"},{"inputs":[],"name":"CardNotResolved","type":"error"},{"inputs":[],"name":"DisputePeriodActive","type":"error"},{"inputs":[],"name":"DisputePeriodEnded","type":"error"},{"inputs":[],"name":"IncorrectPaymentAmount","type":"error"},{"inputs":[],"name":"InsufficientBond","type":"error"},{"inputs":[],"name":"InvalidCardType","type":"error"},{"inputs":[],"name":"InvalidNetuid","type":"error"},{"inputs":[],"name":"InvalidOption","type":"error"},{"inputs":[],"name":"InvalidOptionsArray","type":"error"},{"inputs":[],"name":"InvalidPrice","type":"error"},{"inputs":[],"name":"InvalidTimestamp","type":"error"},{"inputs":[],"name":"NoProposalExists","type":"error"},{"inputs":[],"name":"NoSharesToPurchase","type":"error"},{"inputs":[],"name":"NoSharesToRedeem","type":"error"},{"inputs":[],"name":"NotParticipant","type":"error"},{"inputs":[],"name":"ResolutionAlreadyProposed","type":"error"},{"inputs":[],"name":"ResolutionTimeNotReached","type":"error"},{"inputs":[],"name":"TransferFailed","type":"error"},{"inputs":[],"name":"VotingNotActive","type":"error"},{"anonymous":false,"inputs":[{"indexed":true,"internalType":"uint256","name":"cardId","type":"uint256"},{"indexed":true,"internalType":"uint256","name":"netuid","type":"uint256"},{"indexed":false,"internalType":"uint256","name":"bettedAlphaPrice","type":"uint256"},{"indexed":false,"internalType":"uint256","name":"timestamp","type":"uint256"},{"indexed":false,"internalType":"address","name":"creator","type":"address"}],"name":"CardCreated","type":"event"},{"anonymous":false,"inputs":[{"indexed":true,"internalType":"uint256","name":"cardId","type":"uint256"},{"indexed":true,"internalType":"uint256","name":"netuid","type":"uint256"},{"indexed":false,"internalType":"string[]","name":"optionNames","type":"string[]"},{"indexed":false,"internalType":"uint256","name":"timestamp","type":"uint256"},{"indexed":false,"internalType":"address","name":"creator","type":"address"}],"name":"CardCreatedMulti","type":"event"},{"anonymous":false,"inputs":[{"indexed":true,"internalType":"uint256","name":"cardId","type":"uint256"},{"indexed":false,"internalType":"bool","name":"outcome","type":"bool"},{"indexed":false,"internalType":"uint256","name":"actualAlphaPrice","type":"uint256"}],"name":"CardResolved","type":"event"},{"anonymous":false,"inputs":[{"indexed":true,"internalType":"uint256","name":"cardId","type":"uint256"},{"indexed":true,"internalType":"uint256","name":"winningOption","type":"uint256"}],"name":"CardResolvedMulti","type":"event"},{"anonymous":false,"inputs":[{"indexed":true,"internalType":"uint256","name":"cardId","type":"uint256"},{"indexed":true,"internalType":"address","name":"user","type":"address"},{"indexed":true,"internalType":"uint256","name":"optionIndex","type":"uint256"},{"indexed":false,"internalType":"uint256","name":"amount","type":"uint256"},{"indexed":false,"internalType":"uint256","name":"feeAmount","type":"uint256"},{"indexed":false,"internalType":"uint256","name":"netAmount","type":"uint256"}],"name":"OptionBetPlaced","type":"event"},{"anonymous":false,"inputs":[{"indexed":true,"internalType":"uint256","name":"cardId","type":"uint256"},{"indexed":true,"internalType":"address","name":"user","type":"address"},{"indexed":true,"internalType":"uint256","name":"winningOption","type":"uint256"},{"indexed":false,"internalType":"uint256","name":"userGrossStakeOnWinner","type":"uint256"},{"indexed":false,"internalType":"uint256","name":"payout","type":"uint256"}],"name":"OptionWinningsRedeemed","type":"event"},{"anonymous":false,"inputs":[{"indexed":true,"internalType":"address","name":"previousOwner","type":"address"},{"indexed":true,"internalType":"address","name":"newOwner","type":"address"}],"name":"OwnershipTransferred","type":"event"},{"anonymous":false,"inputs":[{"indexed":true,"internalType":"uint256","name":"cardId","type":"uint256"},{"indexed":true,"internalType":"address","name":"challenger","type":"address"},{"indexed":false,"internalType":"uint256","name":"bondAmount","type":"uint256"}],"name":"ResolutionDisputed","type":"event"},{"anonymous":false,"inputs":[{"indexed":true,"internalType":"uint256","name":"cardId","type":"uint256"},{"indexed":false,"internalType":"bool","name":"proposalAccepted","type":"bool"},{"indexed":false,"internalType":"address","name":"bondWinner","type":"address"},{"indexed":false,"internalType":"uint256","name":"bondPayout","type":"uint256"}],"name":"ResolutionFinalized","type":"event"},{"anonymous":false,"inputs":[{"indexed":true,"internalType":"uint256","name":"cardId","type":"uint256"},{"indexed":true,"internalType":"address","name":"proposer","type":"address"},{"indexed":false,"internalType":"uint256","name":"proposedPrice","type":"uint256"},{"indexed":false,"internalType":"uint256","name":"proposedOption","type":"uint256"},{"indexed":false,"internalType":"uint256","name":"bondAmount","type":"uint256"}],"name":"ResolutionProposed","type":"event"},{"anonymous":false,"inputs":[{"indexed":true,"internalType":"uint256","name":"cardId","type":"uint256"},{"indexed":true,"internalType":"address","name":"user","type":"address"},{"indexed":false,"internalType":"uint256","name":"yesShares","type":"uint256"},{"indexed":false,"internalType":"uint256","name":"noShares","type":"uint256"},{"indexed":false,"internalType":"uint256","name":"totalCost","type":"uint256"}],"name":"SharesPurchased","type":"event"},{"anonymous":false,"inputs":[{"indexed":true,"internalType":"uint256","name":"cardId","type":"uint256"},{"indexed":true,"internalType":"address","name":"user","type":"address"},{"indexed":false,"internalType":"uint256","name":"yesShares","type":"uint256"},{"indexed":false,"internalType":"uint256","name":"noShares","type":"uint256"},{"indexed":false,"internalType":"uint256","name":"totalPayout","type":"uint256"}],"name":"SharesRedeemed","type":"event"},{"anonymous":false,"inputs":[{"indexed":true,"internalType":"uint256","name":"cardId","type":"uint256"},{"indexed":true,"internalType":"address","name":"voter","type":"address"},{"indexed":false,"internalType":"bool","name":"supportsProposal","type":"bool"},{"indexed":false,"internalType":"uint256","name":"voteWeight","type":"uint256"}],"name":"VoteCast","type":"event"},{"inputs":[],"name":"FEE_DENOMINATOR","outputs":[{"internalType":"uint256","name":"","type":"uint256"}],"stateMutability":"view","type":"function"},{"inputs":[],"name":"accumulatedFees","outputs":[{"internalType":"uint256","name":"","type":"uint256"}],"stateMutability":"view","type":"function"},{"inputs":[{"internalType":"uint256","name":"","type":"uint256"}],"name":"cardExists","outputs":[{"internalType":"bool","name":"","type":"bool"}],"stateMutability":"view","type":"function"},{"inputs":[{"internalType":"uint256","name":"","type":"uint256"}],"name":"cards","outputs":[{"internalType":"uint256","name":"id","type":"uint256"},{"internalType":"uint256","name":"netuid","type":"uint256"},{"internalType":"uint256","name":"bettedAlphaPrice","type":"uint256"},{"internalType":"uint256","name":"timestamp","type":"uint256"},{"internalType":"address","name":"creator","type":"address"},{"internalType":"uint256","name":"totalYesShares","type":"uint256"},{"internalType":"uint256","name":"totalNoShares","type":"uint256"},{"internalType":"uint256","name":"totalLiquidity","type":"uint256"},{"internalType":"bool","name":"resolved","type":"bool"},{"internalType":"bool","name":"outcome","type":"bool"},{"internalType":"uint256","name":"creationTime","type":"uint256"},{"internalType":"enum BettingCard.CardType","name":"cardType","type":"uint8"},{"internalType":"uint256","name":"winningOption","type":"uint256"}],"stateMutability":"view","type":"function"},{"inputs":[{"internalType":"uint256","name":"_netuid","type":"uint256"},{"internalType":"uint256","name":"_bettedAlphaPrice","type":"uint256"},{"internalType":"uint256","name":"_timestamp","type":"uint256"}],"name":"createCard","outputs":[{"internalType":"uint256","name":"","type":"uint256"}],"stateMutability":"nonpayable","type":"function"},{"inputs":[{"internalType":"uint256","name":"_netuid","type":"uint256"},{"internalType":"string[]","name":"_optionNames","type":"string[]"},{"internalType":"uint256","name":"_timestamp","type":"uint256"}],"name":"createCardMulti","outputs":[{"internalType":"uint256","name":"","type":"uint256"}],"stateMutability":"nonpayable","type":"function"},{"inputs":[],"name":"disputePeriod","outputs":[{"internalType":"uint256","name":"","type":"uint256"}],"stateMutability":"view","type":"function"},{"inputs":[{"internalType":"uint256","name":"_cardId","type":"uint256"}],"name":"disputeResolution","outputs":[],"stateMutability":"payable","type":"function"},{"inputs":[{"internalType":"uint256","name":"_cardId","type":"uint256"}],"name":"finalizeResolution","outputs":[],"stateMutability":"nonpayable","type":"function"},{"inputs":[],"name":"getAccumulatedFees","outputs":[{"internalType":"uint256","name":"","type":"uint256"}],"stateMutability":"view","type":"function"},{"inputs":[{"internalType":"uint256","name":"_cardId","type":"uint256"}],"name":"getCard","outputs":[{"components":[{"internalType":"uint256","name":"id","type":"uint256"},{"internalType":"uint256","name":"netuid","type":"uint256"},{"internalType":"uint256","name":"bettedAlphaPrice","type":"uint256"},{"internalType":"uint256","name":"timestamp","type":"uint256"},{"internalType":"address","name":"creator","type":"address"},{"internalType":"uint256","name":"totalYesShares","type":"uint256"},{"internalType":"uint256","name":"totalNoShares","type":"uint256"},{"internalType":"uint256","name":"totalLiquidity","type":"uint256"},{"internalType":"bool","name":"resolved","type":"bool"},{"internalType":"bool","name":"outcome","type":"bool"},{"internalType":"uint256","name":"creationTime","type":"uint256"},{"internalType":"enum BettingCard.CardType","name":"cardType","type":"uint8"},{"internalType":"string[]","name":"optionNames","type":"string[]"},{"internalType":"uint256","name":"winningOption","type":"uint256"}],"internalType":"struct BettingCard.Card","name":"","type":"tuple"}],"stateMutability":"view","type":"function"},{"inputs":[],"name":"getCardCount","outputs":[{"internalType":"uint256","name":"","type":"uint256"}],"stateMutability":"view","type":"function"},{"inputs":[{"internalType":"uint256","name":"_cardId","type":"uint256"}],"name":"getOptionNames","outputs":[{"internalType":"string[]","name":"","type":"string[]"}],"stateMutability":"view","type":"function"},{"inputs":[{"internalType":"uint256","name":"_cardId","type":"uint256"},{"internalType":"uint256","name":"_optionIndex","type":"uint256"}],"name":"getOptionTotalStake","outputs":[{"internalType":"uint256","name":"","type":"uint256"}],"stateMutability":"view","type":"function"},{"inputs":[{"internalType":"uint256","name":"_cardId","type":"uint256"}],"name":"getProposal","outputs":[{"components":[{"internalType":"address","name":"proposer","type":"address"},{"internalType":"uint256","name":"proposedPrice","type":"uint256"},{"internalType":"uint256","name":"proposedOption","type":"uint256"},{"internalType":"uint256","name":"bondAmount","type":"uint256"},{"internalType":"uint256","name":"proposalTime","type":"uint256"},{"internalType":"bool","name":"disputed","type":"bool"},{"internalType":"address","name":"challenger","type":"address"},{"internalType":"uint256","name":"challengerBond","type":"uint256"},{"internalType":"uint256","name":"yesVotes","type":"uint256"},{"internalType":"uint256","name":"noVotes","type":"uint256"},{"internalType":"bool","name":"votingActive","type":"bool"}],"internalType":"struct BettingCard.ResolutionProposal","name":"","type":"tuple"}],"stateMutability":"view","type":"function"},{"inputs":[{"internalType":"address","name":"_user","type":"address"},{"internalType":"uint256","name":"_cardId","type":"uint256"},{"internalType":"uint256","name":"_optionIndex","type":"uint256"}],"name":"getUserOptionStake","outputs":[{"internalType":"uint256","name":"","type":"uint256"}],"stateMutability":"view","type":"function"},{"inputs":[{"internalType":"address","name":"_user","type":"address"},{"internalType":"uint256","name":"_cardId","type":"uint256"}],"name":"getUserShares","outputs":[{"components":[{"internalType":"uint256","name":"yesShares","type":"uint256"},{"internalType":"uint256","name":"noShares","type":"uint256"}],"internalType":"struct BettingCard.Share","name":"","type":"tuple"}],"stateMutability":"view","type":"function"},{"inputs":[{"internalType":"uint256","name":"_cardId","type":"uint256"},{"internalType":"address","name":"_user","type":"address"}],"name":"getVotingPower","outputs":[{"internalType":"uint256","name":"","type":"uint256"}],"stateMutability":"view","type":"function"},{"inputs":[{"internalType":"uint256","name":"_cardId","type":"uint256"},{"internalType":"address","name":"_user","type":"address"}],"name":"hasUserVoted","outputs":[{"internalType":"bool","name":"","type":"bool"}],"stateMutability":"view","type":"function"},{"inputs":[{"internalType":"uint256","name":"","type":"uint256"},{"internalType":"address","name":"","type":"address"}],"name":"hasVoted","outputs":[{"internalType":"bool","name":"","type":"bool"}],"stateMutability":"view","type":"function"},{"inputs":[],"name":"nextCardId","outputs":[{"internalType":"uint256","name":"","type":"uint256"}],"stateMutability":"view","type":"function"},{"inputs":[{"internalType":"uint256","name":"","type":"uint256"},{"internalType":"uint256","name":"","type":"uint256"}],"name":"optionTotalStakes","outputs":[{"internalType":"uint256","name":"","type":"uint256"}],"stateMutability":"view","type":"function"},{"inputs":[],"name":"owner","outputs":[{"internalType":"address","name":"","type":"address"}],"stateMutability":"view","type":"function"},{"inputs":[{"internalType":"uint256","name":"_cardId","type":"uint256"},{"internalType":"uint256","name":"_optionIndex","type":"uint256"}],"name":"placeBetOnOption","outputs":[],"stateMutability":"payable","type":"function"},{"inputs":[],"name":"platformFee","outputs":[{"internalType":"uint256","name":"","type":"uint256"}],"stateMutability":"view","type":"function"},{"inputs":[{"internalType":"uint256","name":"","type":"uint256"}],"name":"proposals","outputs":[{"internalType":"address","name":"proposer","type":"address"},{"internalType":"uint256","name":"proposedPrice","type":"uint256"},{"internalType":"uint256","name":"proposedOption","type":"uint256"},{"internalType":"uint256","name":"bondAmount","type":"uint256"},{"internalType":"uint256","name":"proposalTime","type":"uint256"},{"internalType":"bool","name":"disputed","type":"bool"},{"internalType":"address","name":"challenger","type":"address"},{"internalType":"uint256","name":"challengerBond","type":"uint256"},{"internalType":"uint256","name":"yesVotes","type":"uint256"},{"internalType":"uint256","name":"noVotes","type":"uint256"},{"internalType":"bool","name":"votingActive","type":"bool"}],"stateMutability":"view","type":"function"},{"inputs":[{"internalType":"uint256","name":"_cardId","type":"uint256"},{"internalType":"uint256","name":"_actualAlphaPrice","type":"uint256"}],"name":"proposeResolution","outputs":[],"stateMutability":"payable","type":"function"},{"inputs":[{"internalType":"uint256","name":"_cardId","type":"uint256"},{"internalType":"uint256","name":"_winningOption","type":"uint256"}],"name":"proposeResolutionMulti","outputs":[],"stateMutability":"payable","type":"function"},{"inputs":[{"internalType":"uint256","name":"_cardId","type":"uint256"},{"internalType":"uint256","name":"_yesShares","type":"uint256"},{"internalType":"uint256","name":"_noShares","type":"uint256"}],"name":"purchaseShares","outputs":[],"stateMutability":"payable","type":"function"},{"inputs":[{"internalType":"uint256","name":"_cardId","type":"uint256"}],"name":"redeemOptionWinnings","outputs":[],"stateMutability":"nonpayable","type":"function"},{"inputs":[{"internalType":"uint256","name":"_cardId","type":"uint256"}],"name":"redeemShares","outputs":[],"stateMutability":"nonpayable","type":"function"},{"inputs":[],"name":"renounceOwnership","outputs":[],"stateMutability":"nonpayable","type":"function"},{"inputs":[],"name":"resolutionBond","outputs":[{"internalType":"uint256","name":"","type":"uint256"}],"stateMutability":"view","type":"function"},{"inputs":[{"internalType":"uint256","name":"_cardId","type":"uint256"},{"internalType":"uint256","name":"_actualAlphaPrice","type":"uint256"}],"name":"resolveCard","outputs":[],"stateMutability":"nonpayable","type":"function"},{"inputs":[{"internalType":"uint256","name":"_cardId","type":"uint256"},{"internalType":"uint256","name":"_winningOption","type":"uint256"}],"name":"resolveCardMulti","outputs":[],"stateMutability":"nonpayable","type":"function"},{"inputs":[{"internalType":"uint256","name":"_newPeriod","type":"uint256"}],"name":"setDisputePeriod","outputs":[],"stateMutability":"nonpayable","type":"function"},{"inputs":[{"internalType":"uint256","name":"_fee","type":"uint256"}],"name":"setPlatformFee","outputs":[],"stateMutability":"nonpayable","type":"function"},{"inputs":[{"internalType":"uint256","name":"_newBond","type":"uint256"}],"name":"setResolutionBond","outputs":[],"stateMutability":"nonpayable","type":"function"},{"inputs":[{"internalType":"uint256","name":"_newPeriod","type":"uint256"}],"name":"setVotingPeriod","outputs":[],"stateMutability":"nonpayable","type":"function"},{"inputs":[{"internalType":"address","name":"newOwner","type":"address"}],"name":"transferOwnership","outputs":[],"stateMutability":"nonpayable","type":"function"},{"inputs":[{"internalType":"address","name":"","type":"address"},{"internalType":"uint256","name":"","type":"uint256"},{"internalType":"uint256","name":"","type":"uint256"}],"name":"userOptionStakes","outputs":[{"internalType":"uint256","name":"","type":"uint256"}],"stateMutability":"view","type":"function"},{"inputs":[{"internalType":"address","name":"","type":"address"},{"internalType":"uint256","name":"","type":"uint256"}],"name":"userShares","outputs":[{"internalType":"uint256","name":"yesShares","type":"uint256"},{"internalType":"uint256","name":"noShares","type":"uint256"}],"stateMutability":"view","type":"function"},{"inputs":[{"internalType":"uint256","name":"_cardId","type":"uint256"},{"internalType":"bool","name":"_supportsProposal","type":"bool"}],"name":"voteOnResolution","outputs":[],"stateMutability":"nonpayable","type":"function"},{"inputs":[],"name":"votingPeriod","outputs":[{"internalType":"uint256","name":"","type":"uint256"}],"stateMutability":"view","type":"function"},{"inputs":[],"name":"withdrawFees","outputs":[],"stateMutability":"nonpayable","type":"function"},{"stateMutability":"payable","type":"receive"}],"evm":{"bytecode":{"linkReferences":{},"object":"6080604052600160025560fa6003556000600455678ac7230489e800006005556202a300600655620151806007553480156200003a57600080fd5b5060016000556200004b3362000051565b620000a3565b600180546001600160a01b038381166001600160a01b0319831681179093556040519116919082907f8be0079c531659141344cd1fd0a4f28419497f9722a3daafe3b4186f6b6457e090600090a35050565b613bde80620000b36000396000f3fe6080604052600436106102765760003560e01c80638c535cf81161014f578063c7f758a8116100c1578063e53dc6801161007a578063e53dc68014610969578063ea0217cf146109bd578063ed798fec146109dd578063ef132af3146109f0578063f2fde38b14610a28578063f5489b7e14610a4857600080fd5b8063c7f758a81461081e578063d73792a91461084b578063dafc88df14610861578063dbdad43214610881578063dc296ae1146108a1578063ddd9d045146108e757600080fd5b806399bc4d961161011357806399bc4d9614610747578063a42c95041461075a578063a83ba53e1461077a578063adba98041461079a578063b4163d36146107ba578063c5263e8c1461080857600080fd5b80638c535cf8146106135780638da5cb5b146106265780638dc107681461064e57806390edf001146106fa5780639188d3121461071a57600080fd5b80634ae3540e116101e8578063623d5f20116101ac578063623d5f2014610558578063628e1d261461056b57806366cd90051461058b578063715018a6146105ab578063793a932d146105c05780637d620130146105fe57600080fd5b80634ae3540e146104d45780634e09747c14610504578063587f5ed7146105175780635bf31d4d1461052d5780635df45a371461054357600080fd5b80631386a5191161023a5780631386a519146103fb57806326232a2e146104285780632b839b411461043e578063438596321461045457806343a615cb1461049f578063476343ee146104bf57600080fd5b8063013cf08b1461028257806302a251a314610375578063039cf6d0146103995780630f9f9264146103bb57806312e8e2c3146103db57600080fd5b3661027d57005b600080fd5b34801561028e57600080fd5b5061030561029d366004613283565b600d6020526000908152604090208054600182015460028301546003840154600485015460058601546006870154600788015460088901546009909901546001600160a01b0398891699979896979596949560ff80861696610100909604909516949091168b565b604080516001600160a01b039c8d168152602081019b909b528a01989098526060890196909652608088019490945291151560a087015290951660c085015260e0840194909452610100830193909352610120820192909252901515610140820152610160015b60405180910390f35b34801561038157600080fd5b5061038b60075481565b60405190815260200161036c565b3480156103a557600080fd5b506103b96103b4366004613283565b610a68565b005b3480156103c757600080fd5b506103b96103d636600461329c565b610a75565b3480156103e757600080fd5b506103b96103f6366004613283565b610bd2565b34801561040757600080fd5b5061041b610416366004613283565b610c2e565b60405161036c91906132be565b34801561043457600080fd5b5061038b60035481565b34801561044a57600080fd5b5061038b60055481565b34801561046057600080fd5b5061048f61046f36600461336c565b600e60209081526000928352604080842090915290825290205460ff1681565b604051901515815260200161036c565b3480156104ab57600080fd5b5061038b6104ba366004613398565b610d43565b3480156104cb57600080fd5b506103b9610f18565b3480156104e057600080fd5b5061048f6104ef366004613283565b600a6020526000908152604090205460ff1681565b6103b961051236600461329c565b610fa8565b34801561052357600080fd5b5061038b60045481565b34801561053957600080fd5b5061038b60065481565b34801561054f57600080fd5b5060045461038b565b6103b961056636600461329c565b6111d6565b34801561057757600080fd5b506103b9610586366004613283565b6114e1565b34801561059757600080fd5b506103b96105a636600461341d565b6116e1565b3480156105b757600080fd5b506103b9611907565b3480156105cc57600080fd5b5061038b6105db366004613452565b600c60209081526000938452604080852082529284528284209052825290205481565b34801561060a57600080fd5b5061038b61191b565b6103b9610621366004613283565b611931565b34801561063257600080fd5b506001546040516001600160a01b03909116815260200161036c565b34801561065a57600080fd5b506106e1610669366004613283565b600860208190526000918252604090912080546001820154600283015460038401546004850154600586015460068701546007880154988801546009890154600a8a0154600c909a0154989a9799969895976001600160a01b0390951696939592949360ff808416946101009094048116939116908d565b60405161036c9d9c9b9a999897969594939291906134bd565b34801561070657600080fd5b506103b961071536600461329c565b611a96565b34801561072657600080fd5b5061073a610735366004613283565b611bcb565b60405161036c91906135c0565b6103b96107553660046136a4565b611dbe565b34801561076657600080fd5b5061038b61077536600461329c565b612065565b34801561078657600080fd5b506103b9610795366004613283565b612086565b3480156107a657600080fd5b506103b96107b5366004613283565b612093565b3480156107c657600080fd5b5061038b6107d5366004613452565b6001600160a01b0383166000908152600c6020908152604080832085845282528083208484529091529020549392505050565b34801561081457600080fd5b5061038b60025481565b34801561082a57600080fd5b5061083e610839366004613283565b61230f565b60405161036c91906136d0565b34801561085757600080fd5b5061038b61271081565b34801561086d57600080fd5b5061038b61087c3660046136a4565b612427565b34801561088d57600080fd5b5061038b61089c36600461336c565b6126c9565b3480156108ad57600080fd5b5061048f6108bc36600461336c565b6000918252600e602090815260408084206001600160a01b0393909316845291905290205460ff1690565b3480156108f357600080fd5b5061094e61090236600461376d565b604080518082018252600080825260209182018190526001600160a01b039490941684526009815281842092845291825291829020825180840190935280548352600101549082015290565b6040805182518152602092830151928101929092520161036c565b34801561097557600080fd5b506109a861098436600461376d565b60096020908152600092835260408084209091529082529020805460019091015482565b6040805192835260208301919091520161036c565b3480156109c957600080fd5b506103b96109d8366004613283565b6127c5565b6103b96109eb36600461329c565b6127d2565b3480156109fc57600080fd5b5061038b610a0b36600461329c565b600b60209081526000928352604080842090915290825290205481565b348015610a3457600080fd5b506103b9610a43366004613797565b612aa5565b348015610a5457600080fd5b506103b9610a63366004613283565b612b1b565b610a70613034565b600555565b610a7d613034565b6000828152600a602052604090205460ff16610aac57604051630479201160e41b815260040160405180910390fd5b6000828152600860208190526040909120015460ff1615610ae05760405163b6ad70f360e01b815260040160405180910390fd5b600082815260086020526040902060030154421015610b125760405163dca075a360e01b815260040160405180910390fd5b6000828152600860205260408120600a015460ff166001811115610b3857610b38613485565b14610b5657604051637dbbb63560e01b815260040160405180910390fd5b6000828152600860208181526040928390209182018054600284015486101561010090810261ffff1990921691909117600117918290558451910460ff1615158152908101849052909184917f252ae5c5be4f6aad38fcca6ad8a555a218c48adcb3c0ab0d83c7e260114c2450910160405180910390a2505050565b610bda613034565b6103e8811115610c295760405162461bcd60e51b81526020600482015260156024820152744665652063616e6e6f74206578636565642031302560581b60448201526064015b60405180910390fd5b600355565b6000818152600a602052604090205460609060ff16610c6057604051630479201160e41b815260040160405180910390fd5b6000828152600860209081526040808320600b0180548251818502810185019093528083529193909284015b82821015610d38578382906000526020600020018054610cab906137b9565b80601f0160208091040260200160405190810160405280929190818152602001828054610cd7906137b9565b8015610d245780601f10610cf957610100808354040283529160200191610d24565b820191906000526020600020905b815481529060010190602001808311610d0757829003601f168201915b505050505081526020019060010190610c8c565b505050509050919050565b6000428211610d655760405163b7d0949760e01b815260040160405180910390fd5b84600003610d86576040516368a3a6c360e11b815260040160405180910390fd5b6002831015610da857604051630e908b9f60e31b815260040160405180910390fd5b6002805460009182610db983613809565b909155506000818152600860208190526040822083815560018082018b905560028201849055600382018890556004820180546001600160a01b03191633179055600582018490556006820184905560078201849055918101805461ffff19169055426009820155600a01805460ff191690911790559091505b84811015610ea3576000828152600860205260409020600b01868683818110610e5e57610e5e613822565b9050602002810190610e709190613838565b82546001810184556000938452602090932090920191610e9091836138ea565b5080610e9b81613809565b915050610e33565b506000818152600860209081526040808320600c01839055600a90915290819020805460ff1916600117905551869082907fff872a831223dd6074a8cd7207a73ef537a49b0b3c7f8abba74109cbd2d1fd9b90610f079089908990899033906139d4565b60405180910390a395945050505050565b610f20613034565b6004548015610fa557600060048190556001546040516001600160a01b039091169083908381818185875af1925050503d8060008114610f7c576040519150601f19603f3d011682016040523d82523d6000602084013e610f81565b606091505b5050905080610fa3576040516312171d8360e31b815260040160405180910390fd5b505b50565b610fb061308e565b6000828152600a602052604090205460ff16610fdf57604051630479201160e41b815260040160405180910390fd5b60008281526008602052604090206001600a82015460ff16600181111561100857611008613485565b1461102657604051637dbbb63560e01b815260040160405180910390fd5b600881015460ff161561104c5760405163b6ad70f360e01b815260040160405180910390fd5b80600301544210611070576040516356c7983160e01b815260040160405180910390fd5b600b810154821061109457604051632a71953160e01b815260040160405180910390fd5b346000036110b557604051636992e1ff60e01b815260040160405180910390fd5b6003543490600090612710906110cb9084613a89565b6110d59190613aa0565b905060006110e38284613ac2565b336000908152600c602090815260408083208a8452825280832089845290915281208054929350859290919061111a908490613ad5565b90915550506000868152600b6020908152604080832088845290915281208054859290611148908490613ad5565b92505081905550808460070160008282546111639190613ad5565b92505081905550816004600082825461117c9190613ad5565b909155505060408051848152602081018490529081018290528590339088907fce3b514b7bcd2e79c42dd4761ac50be95420f4cf85e6f27d682cf6a92adbfed89060600160405180910390a450505050610fa36001600055565b6111de61308e565b6000828152600a602052604090205460ff1661120d57604051630479201160e41b815260040160405180910390fd5b60008281526008602052604090206001600a82015460ff16600181111561123657611236613485565b1461125457604051637dbbb63560e01b815260040160405180910390fd5b600881015460ff161561127a5760405163b6ad70f360e01b815260040160405180910390fd5b806003015442101561129f5760405163dca075a360e01b815260040160405180910390fd5b6000838152600d60205260409020546001600160a01b0316156112d55760405163eccf800f60e01b815260040160405180910390fd5b600b81015482106112f957604051632a71953160e01b815260040160405180910390fd5b60055434101561131c5760405163e92c469f60e01b815260040160405180910390fd5b604051806101600160405280336001600160a01b031681526020016000815260200183815260200134815260200142815260200160001515815260200160006001600160a01b0316815260200160008152602001600081526020016000815260200160001515815250600d600085815260200190815260200160002060008201518160000160006101000a8154816001600160a01b0302191690836001600160a01b031602179055506020820151816001015560408201518160020155606082015181600301556080820151816004015560a08201518160050160006101000a81548160ff02191690831515021790555060c08201518160050160016101000a8154816001600160a01b0302191690836001600160a01b0316021790555060e08201518160060155610100820151816007015561012082015181600801556101408201518160090160006101000a81548160ff021916908315150217905550905050336001600160a01b0316837f0338ae4575885ea06228826734bf428d3f476dd8caf6d9323b7f354b8c55813d600085346040516114ce939291909283526020830191909152604082015260600190565b60405180910390a350610fa36001600055565b6114e961308e565b6000818152600a602052604090205460ff1661151857604051630479201160e41b815260040160405180910390fd5b60008181526008602052604090206001600a82015460ff16600181111561154157611541613485565b1461155f57604051637dbbb63560e01b815260040160405180910390fd5b600881015460ff166115845760405163333c23ad60e11b815260040160405180910390fd5b600c808201543360009081526020928352604080822086835284528082208383529093529182205490918190036115ce5760405163f10cc93760e01b815260040160405180910390fd5b6000848152600b60209081526040808320858452909152812054600785015490919082906115fc9085613a89565b6116069190613aa0565b336000818152600c602090815260408083208b84528252808320898452909152808220829055519293509183908381818185875af1925050503d806000811461166b576040519150601f19603f3d011682016040523d82523d6000602084013e611670565b606091505b5050905080611692576040516312171d8360e31b815260040160405180910390fd5b6040805185815260208101849052869133918a917f631a8d93681fb7d140c811394a50f756c0907798a12bbd4a6282587ffd0b3e1d910160405180910390a4505050505050610fa56001600055565b6116e961308e565b6000828152600a602052604090205460ff1661171857604051630479201160e41b815260040160405180910390fd5b6000828152600860209081526040808320600d909252909120600981015460ff1661175657604051639b8cc47560e01b815260040160405180910390fd5b6000848152600e6020908152604080832033845290915290205460ff161561179157604051637c9a1cf960e01b815260040160405180910390fd5b600080600a84015460ff1660018111156117ad576117ad613485565b036117e5573360009081526009602090815260408083208884529091529020600181015481546117dd9190613ad5565b915050611837565b60005b600b84015481101561183557336000908152600c6020908152604080832089845282528083208484529091529020546118219083613ad5565b91508061182d81613809565b9150506117e8565b505b806000036118585760405163721c7c6760e11b815260040160405180910390fd5b6000858152600e602090815260408083203384529091529020805460ff1916600117905583156118a157808260070160008282546118969190613ad5565b909155506118bb9050565b808260080160008282546118b59190613ad5565b90915550505b60408051851515815260208101839052339187917fcbdf6214089cba887ecbf35a0b6a734589959c9763342c756bb2a80ca2bc9f6e910160405180910390a3505050610fa36001600055565b61190f613034565b61191960006130e7565b565b6000600160025461192c9190613ac2565b905090565b61193961308e565b6000818152600a602052604090205460ff1661196857604051630479201160e41b815260040160405180910390fd5b6000818152600d6020526040902080546001600160a01b031661199e57604051635b1c11d360e11b815260040160405180910390fd5b600581015460ff16156119c4576040516304ee891b60e11b815260040160405180910390fd5b60065481600401546119d69190613ad5565b42106119f55760405163033cf42960e31b815260040160405180910390fd5b8060030154341015611a1a5760405163e92c469f60e01b815260040160405180910390fd5b60058101805460016001600160a81b031990911661010033908102919091178217909255346006840181905560098401805460ff191690921790915560405190815283907fa0950096f857303fe1784282d8fae72ba187c45f4243c57f82b99df66b61787d9060200160405180910390a350610fa56001600055565b611a9e613034565b6000828152600a602052604090205460ff16611acd57604051630479201160e41b815260040160405180910390fd5b60008281526008602052604090206001600a82015460ff166001811115611af657611af6613485565b14611b1457604051637dbbb63560e01b815260040160405180910390fd5b600881015460ff1615611b3a5760405163b6ad70f360e01b815260040160405180910390fd5b8060030154421015611b5f5760405163dca075a360e01b815260040160405180910390fd5b600b8101548210611b8357604051632a71953160e01b815260040160405180910390fd5b60088101805460ff19166001179055600c8101829055604051829084907f3ca31337698e2a0eddd144fc19b8ab540ec1b8682eb495b919c799c695914c0990600090a3505050565b611bd3613139565b6000828152600a602052604090205460ff16611c0257604051630479201160e41b815260040160405180910390fd5b60008281526008602081815260409283902083516101c08101855281548152600180830154938201939093526002820154948101949094526003810154606085015260048101546001600160a01b03166080850152600581015460a0850152600681015460c0850152600781015460e08501529182015460ff808216151561010080870191909152909104811615156101208501526009830154610140850152600a830154610160850192911690811115611cbf57611cbf613485565b6001811115611cd057611cd0613485565b8152602001600b8201805480602002602001604051908101604052809291908181526020016000905b82821015611da5578382906000526020600020018054611d18906137b9565b80601f0160208091040260200160405190810160405280929190818152602001828054611d44906137b9565b8015611d915780601f10611d6657610100808354040283529160200191611d91565b820191906000526020600020905b815481529060010190602001808311611d7457829003601f168201915b505050505081526020019060010190611cf9565b505050508152602001600c820154815250509050919050565b611dc661308e565b6000838152600a602052604090205460ff16611df557604051630479201160e41b815260040160405180910390fd5b6000838152600860208190526040909120015460ff1615611e295760405163b6ad70f360e01b815260040160405180910390fd5b6000838152600860205260408120600a015460ff166001811115611e4f57611e4f613485565b14611e6d57604051637dbbb63560e01b815260040160405180910390fd5b81158015611e79575080155b15611e96576040516289606760e61b815260040160405180910390fd5b6000838152600860205260409020600301544210611ec7576040516356c7983160e01b815260040160405180910390fd5b6000611ed38284613ad5565b9050600061271060035483611ee89190613a89565b611ef29190613aa0565b90506000611f008284613ac2565b9050823414611f2257604051636992e1ff60e01b815260040160405180910390fd5b33600090815260096020908152604080832089845290915281208054879290611f4c908490613ad5565b909155505033600090815260096020908152604080832089845290915281206001018054869290611f7e908490613ad5565b909155505060008681526008602052604081206005018054879290611fa4908490613ad5565b909155505060008681526008602052604081206006018054869290611fca908490613ad5565b909155505060008681526008602052604081206007018054839290611ff0908490613ad5565b9250508190555081600460008282546120099190613ad5565b90915550506040805186815260208101869052908101849052339087907fd881b7a03adab99450e4654c7e5d438f97aa23838978d00e2a3a3f8fb1ea52ef9060600160405180910390a35050506120606001600055565b505050565b6000828152600b602090815260408083208484529091529020545b92915050565b61208e613034565b600655565b61209b61308e565b6000818152600a602052604090205460ff166120ca57604051630479201160e41b815260040160405180910390fd5b6000818152600860208190526040909120015460ff166120fd5760405163333c23ad60e11b815260040160405180910390fd5b6000818152600860205260408120600a015460ff16600181111561212357612123613485565b1461214157604051637dbbb63560e01b815260040160405180910390fd5b3360009081526009602090815260408083208484529091529020805415801561216c57506001810154155b1561218a5760405163f10cc93760e01b815260040160405180910390fd5b6000828152600860208190526040822090810154909190610100900460ff16156121dd578254156121d8576005820154600783015484546121cb9190613a89565b6121d59190613aa0565b90505b61220d565b60018301541561220d578160060154826007015484600101546122009190613a89565b61220a9190613aa0565b90505b825460018085015460408051808201825260008082526020808301828152338352600982528483208c845290915292902090518155905192019190915582156122bb57604051600090339085908381818185875af1925050503d8060008114612292576040519150601f19603f3d011682016040523d82523d6000602084013e612297565b606091505b50509050806122b9576040516312171d8360e31b815260040160405180910390fd5b505b6040805183815260208101839052908101849052339087907f440937b7141b89352cc35e21b147ca3d8aebef76cb9627bf3dea041ecf30889d9060600160405180910390a35050505050610fa56001600055565b61238260405180610160016040528060006001600160a01b031681526020016000815260200160008152602001600081526020016000815260200160001515815260200160006001600160a01b031681526020016000815260200160008152602001600081526020016000151581525090565b506000908152600d602090815260409182902082516101608101845281546001600160a01b0390811682526001830154938201939093526002820154938101939093526003810154606084015260048101546080840152600581015460ff808216151560a08601526101009182900490931660c0850152600682015460e085015260078201549084015260088101546101208401526009015416151561014082015290565b60004282116124495760405163b7d0949760e01b815260040160405180910390fd5b826000036124695760405162bfc92160e01b815260040160405180910390fd5b8360000361248a576040516368a3a6c360e11b815260040160405180910390fd5b600280546000918261249b83613809565b919050559050604051806101c00160405280828152602001868152602001858152602001848152602001336001600160a01b031681526020016000815260200160008152602001600081526020016000151581526020016000151581526020014281526020016000600181111561251457612514613485565b8152602001600060405190808252806020026020018201604052801561254e57816020015b60608152602001906001900390816125395790505b50815260006020918201819052838152600880835260409182902084518155928401516001808501919091559184015160028401556060840151600384015560808401516004840180546001600160a01b0319166001600160a01b0390921691909117905560a0840151600584015560c0840151600684015560e0840151600784015561010080850151918401805461012087015161ffff1990911693151561ff001916939093179215159091029190911790556101408301516009830155610160830151600a830180549192909160ff191690838181111561263357612633613485565b0217905550610180820151805161265491600b8401916020909101906131c6565b506101a09190910151600c909101556000818152600a6020908152604091829020805460ff19166001179055815186815290810185905233818301529051869183917fa47f2b648fe6fee6023b9227628b751649f165f204c8a6e75d3146aca5b1b8a6916060908290030190a3949350505050565b6000828152600a602052604081205460ff166126f857604051630479201160e41b815260040160405180910390fd5b60008381526008602052604081209080600a83015460ff16600181111561272157612721613485565b03612762576001600160a01b038416600090815260096020908152604080832088845290915290206001810154815461275a9190613ad5565b9150506127bd565b60005b600b8301548110156127bb576001600160a01b0385166000908152600c6020908152604080832089845282528083208484529091529020546127a79083613ad5565b9150806127b381613809565b915050612765565b505b949350505050565b6127cd613034565b600755565b6127da61308e565b6000828152600a602052604090205460ff1661280957604051630479201160e41b815260040160405180910390fd5b600082815260086020526040812090600a82015460ff16600181111561283157612831613485565b1461284f57604051637dbbb63560e01b815260040160405180910390fd5b600881015460ff16156128755760405163b6ad70f360e01b815260040160405180910390fd5b806003015442101561289a5760405163dca075a360e01b815260040160405180910390fd5b6000838152600d60205260409020546001600160a01b0316156128d05760405163eccf800f60e01b815260040160405180910390fd5b6005543410156128f35760405163e92c469f60e01b815260040160405180910390fd5b604051806101600160405280336001600160a01b031681526020018381526020016000815260200134815260200142815260200160001515815260200160006001600160a01b0316815260200160008152602001600081526020016000815260200160001515815250600d600085815260200190815260200160002060008201518160000160006101000a8154816001600160a01b0302191690836001600160a01b031602179055506020820151816001015560408201518160020155606082015181600301556080820151816004015560a08201518160050160006101000a81548160ff02191690831515021790555060c08201518160050160016101000a8154816001600160a01b0302191690836001600160a01b0316021790555060e08201518160060155610100820151816007015561012082015181600801556101408201518160090160006101000a81548160ff021916908315150217905550905050336001600160a01b0316837f0338ae4575885ea06228826734bf428d3f476dd8caf6d9323b7f354b8c55813d846000346040516114ce939291909283526020830191909152604082015260600190565b612aad613034565b6001600160a01b038116612b125760405162461bcd60e51b815260206004820152602660248201527f4f776e61626c653a206e6577206f776e657220697320746865207a65726f206160448201526564647265737360d01b6064820152608401610c20565b610fa5816130e7565b612b2361308e565b6000818152600a602052604090205460ff16612b5257604051630479201160e41b815260040160405180910390fd5b6000818152600860208181526040808420600d9092529092209082015460ff1615612b905760405163b6ad70f360e01b815260040160405180910390fd5b80546001600160a01b0316612bb857604051635b1c11d360e11b815260040160405180910390fd5b60058101546000908190819060ff16612c1b576006548460040154612bdd9190613ad5565b421015612bfd57604051637cf214ed60e01b815260040160405180910390fd5b505081546003830154600192506001600160a01b0390911690612cc7565b6007546006548560040154612c309190613ad5565b612c3a9190613ad5565b421015612c5a57604051639b8cc47560e01b815260040160405180910390fd5b836008015484600701541115612c9757835460068501546003860154600195506001600160a01b039092169350612c9091613ad5565b9050612cc7565b600584015460068501546003860154600095506101009092046001600160a01b03169350612cc491613ad5565b90505b60088501805460ff191660011790556000600a86015460ff166001811115612cf157612cf1613485565b03612d6f5760028501546001850180546008880180546101009490921015840261ff00199092169190911790819055905460405189937f252ae5c5be4f6aad38fcca6ad8a555a218c48adcb3c0ab0d83c7e260114c245093612d629391900460ff1615158252602082015260400190565b60405180910390a2612f62565b8215612d84576002840154600c860155612f31565b6000868152600d602052604080822080546001600160a01b031916815560018101839055600281018390556003808201849055600482018490556005820180546001600160a81b0319169055600682018490556007820184905560088083018590556009909201805460ff19908116909155918901805490921690915586549087015491516001600160a01b0390911691908381818185875af1925050503d8060008114612e4e576040519150601f19603f3d011682016040523d82523d6000602084013e612e53565b606091505b5050600586015460068701546040519293506000926101009092046001600160a01b0316918381818185875af1925050503d8060008114612eb0576040519150601f19603f3d011682016040523d82523d6000602084013e612eb5565b606091505b50509050811580612ec4575080155b15612ee2576040516312171d8360e31b815260040160405180910390fd5b6040805160008082526020820181905281830152905189917ff452967aedd0ffbd4241d1b9265c9a2f68e770027e0f463d9ed07c70a5b03f0f919081900360600190a25050505050505061302a565b600c85015460405187907f3ca31337698e2a0eddd144fc19b8ab540ec1b8682eb495b919c799c695914c0990600090a35b6000826001600160a01b03168260405160006040518083038185875af1925050503d8060008114612faf576040519150601f19603f3d011682016040523d82523d6000602084013e612fb4565b606091505b5050905080612fd6576040516312171d8360e31b815260040160405180910390fd5b6040805185151581526001600160a01b038516602082015290810183905287907ff452967aedd0ffbd4241d1b9265c9a2f68e770027e0f463d9ed07c70a5b03f0f9060600160405180910390a25050505050505b610fa56001600055565b6001546001600160a01b031633146119195760405162461bcd60e51b815260206004820181905260248201527f4f776e61626c653a2063616c6c6572206973206e6f7420746865206f776e65726044820152606401610c20565b6002600054036130e05760405162461bcd60e51b815260206004820152601f60248201527f5265656e7472616e637947756172643a207265656e7472616e742063616c6c006044820152606401610c20565b6002600055565b600180546001600160a01b038381166001600160a01b0319831681179093556040519116919082907f8be0079c531659141344cd1fd0a4f28419497f9722a3daafe3b4186f6b6457e090600090a35050565b604051806101c001604052806000815260200160008152602001600081526020016000815260200160006001600160a01b0316815260200160008152602001600081526020016000815260200160001515815260200160001515815260200160008152602001600060018111156131b2576131b2613485565b815260200160608152602001600081525090565b82805482825590600052602060002090810192821561320c579160200282015b8281111561320c57825182906131fc9082613ae8565b50916020019190600101906131e6565b5061321892915061321c565b5090565b808211156132185760006132308282613239565b5060010161321c565b508054613245906137b9565b6000825580601f10613255575050565b601f016020900490600052602060002090810190610fa591905b80821115613218576000815560010161326f565b60006020828403121561329557600080fd5b5035919050565b600080604083850312156132af57600080fd5b50508035926020909101359150565b6000602080830181845280855180835260408601915060408160051b87010192508387016000805b8381101561334257888603603f1901855282518051808852835b8181101561331b578281018a01518982018b01528901613300565b508781018901849052601f01601f19169096018701955093860193918601916001016132e6565b509398975050505050505050565b80356001600160a01b038116811461336757600080fd5b919050565b6000806040838503121561337f57600080fd5b8235915061338f60208401613350565b90509250929050565b600080600080606085870312156133ae57600080fd5b84359350602085013567ffffffffffffffff808211156133cd57600080fd5b818701915087601f8301126133e157600080fd5b8135818111156133f057600080fd5b8860208260051b850101111561340557600080fd5b95986020929092019750949560400135945092505050565b6000806040838503121561343057600080fd5b823591506020830135801515811461344757600080fd5b809150509250929050565b60008060006060848603121561346757600080fd5b61347084613350565b95602085013595506040909401359392505050565b634e487b7160e01b600052602160045260246000fd5b600281106134b957634e487b7160e01b600052602160045260246000fd5b9052565b60006101a0820190508e82528d60208301528c60408301528b606083015260018060a01b038b1660808301528960a08301528860c08301528760e08301528615156101008301528515156101208301528461014083015261352261016083018561349b565b826101808301529e9d5050505050505050505050505050565b600081518084526020808501808196508360051b810191508286016000805b868110156135b2578385038a5282518051808752835b8181101561358b578281018901518882018a01528801613570565b5086810188018490529a87019a601f01601f1916909501860194509185019160010161355a565b509298975050505050505050565b60208152815160208201526020820151604082015260408201516060820152606082015160808201526000608083015161360560a08401826001600160a01b03169052565b5060a083015160c083015260c083015160e083015260e083015161010081818501528085015191505061012061363e8185018315159052565b84015190506101406136538482018315159052565b8401516101608481019190915284015190506101806136748185018361349b565b808501519150506101c06101a081818601526136946101e086018461353b565b9501519301929092525090919050565b6000806000606084860312156136b957600080fd5b505081359360208301359350604090920135919050565b81516001600160a01b0316815261016081016020830151602083015260408301516040830152606083015160608301526080830151608083015260a083015161371d60a084018215159052565b5060c083015161373860c08401826001600160a01b03169052565b5060e0838101519083015261010080840151908301526101208084015190830152610140928301511515929091019190915290565b6000806040838503121561378057600080fd5b61378983613350565b946020939093013593505050565b6000602082840312156137a957600080fd5b6137b282613350565b9392505050565b600181811c908216806137cd57607f821691505b6020821081036137ed57634e487b7160e01b600052602260045260246000fd5b50919050565b634e487b7160e01b600052601160045260246000fd5b60006001820161381b5761381b6137f3565b5060010190565b634e487b7160e01b600052603260045260246000fd5b6000808335601e1984360301811261384f57600080fd5b83018035915067ffffffffffffffff82111561386a57600080fd5b60200191503681900382131561387f57600080fd5b9250929050565b634e487b7160e01b600052604160045260246000fd5b601f82111561206057600081815260208120601f850160051c810160208610156138c35750805b601f850160051c820191505b818110156138e2578281556001016138cf565b505050505050565b67ffffffffffffffff83111561390257613902613886565b6139168361391083546137b9565b8361389c565b6000601f84116001811461394a57600085156139325750838201355b600019600387901b1c1916600186901b1783556139a4565b600083815260209020601f19861690835b8281101561397b578685013582556020948501946001909201910161395b565b50868210156139985760001960f88860031b161c19848701351681555b505060018560011b0183555b5050505050565b81835281816020850137506000828201602090810191909152601f909101601f19169091010190565b6060808252810184905260006080600586901b8301810190830187835b88811015613a6557858403607f190183528135368b9003601e19018112613a1757600080fd5b8a01602081810191359067ffffffffffffffff821115613a3657600080fd5b813603831315613a4557600080fd5b613a508783856139ab565b965094850194939093019250506001016139f1565b505050602083018590526001600160a01b0384166040840152905095945050505050565b8082028115828204841417612080576120806137f3565b600082613abd57634e487b7160e01b600052601260045260246000fd5b500490565b81810381811115612080576120806137f3565b80820180821115612080576120806137f3565b815167ffffffffffffffff811115613b0257613b02613886565b613b1681613b1084546137b9565b8461389c565b602080601f831160018114613b4b5760008415613b335750858301515b600019600386901b1c1916600185901b1785556138e2565b600085815260208120601f198616915b82811015613b7a57888601518255948401946001909101908401613b5b565b5085821015613b985787850151600019600388901b60f8161c191681555b5050505050600190811b0190555056fea2646970667358221220300e1f0618dca770876bc6ccf06f0cd1bee811ad97e4c3babc2838860db5799464736f6c63430008130033","opcodes":"PUSH1 0x80 PUSH1 0x40 MSTORE PUSH1 0x1 PUSH1 0x2 SSTORE PUSH1 0xFA PUSH1 0x3 SSTORE PUSH1 0x0 PUSH1 0x4 SSTORE PUSH8 0x8AC7230489E80000 PUSH1 0x5 SSTORE PUSH3 0x2A300 PUSH1 0x6 SSTORE PUSH3 0x15180 PUSH1 0x7 SSTORE CALLVALUE DUP1 ISZERO PUSH3 0x3A JUMPI PUSH1 0x0 DUP1 REVERT JUMPDEST POP PUSH1 0x1 PUSH1 0x0 SSTORE PUSH3 0x4B CALLER PUSH3 0x51 JUMP JUMPDEST PUSH3 0xA3 JUMP JUMPDEST PUSH1 0x1 DUP1 SLOAD PUSH1 0x1 PUSH1 0x1 PUSH1 0xA0 SHL SUB DUP4 DUP2 AND PUSH1 0x1 PUSH1 0x1 PUSH1 0xA0 SHL SUB NOT DUP4 AND DUP2 OR SWAP1 SWAP4 SSTORE PUSH1 0x40 MLOAD SWAP2 AND SWAP2 SWAP1 DUP3 SWAP1 PUSH32 0x8BE0079C531659141344CD1FD0A4F28419497F9722A3DAAFE3B4186F6B6457E0 SWAP1 PUSH1 0x0 SWAP1 LOG3 POP POP JUMP JUMPDEST PUSH2 0x3BDE DUP1 PUSH3 0xB3 PUSH1 0x0 CODECOPY PUSH1 0x0 RETURN INVALID PUSH1 0x80 PUSH1 0x40 MSTORE PUSH1 0x4 CALLDATASIZE LT PUSH2 0x276 JUMPI PUSH1 0x0 CALLDATALOAD PUSH1 0xE0 SHR DUP1 PUSH4 0x8C535CF8 GT PUSH2 0x14F JUMPI DUP1 PUSH4 0xC7F758A8 GT PUSH2 0xC1 JUMPI DUP1 PUSH4 0xE53DC680 GT PUSH2 0x7A JUMPI DUP1 PUSH4 0xE53DC680 EQ PUSH2 0x969 JUMPI DUP1 PUSH4 0xEA0217CF EQ PUSH2 0x9BD JUMPI DUP1 PUSH4 0xED798FEC EQ PUSH2 0x9DD JUMPI DUP1 PUSH4 0xEF132AF3 EQ PUSH2 0x9F0 JUMPI DUP1 PUSH4 0xF2FDE38B EQ PUSH2 0xA28 JUMPI DUP1 PUSH4 0xF5489B7E EQ PUSH2 0xA48 JUMPI PUSH1 0x0 DUP1 REVERT JUMPDEST DUP1 PUSH4 0xC7F758A8 EQ PUSH2 0x81E JUMPI DUP1 PUSH4 0xD73792A9 EQ PUSH2 0x84B JUMPI DUP1 PUSH4 0xDAFC88DF EQ PUSH2 0x861 JUMPI DUP1 PUSH4 0xDBDAD432 EQ PUSH2 0x881 JUMPI DUP1 PUSH4 0xDC296AE1 EQ PUSH2 0x8A1 JUMPI DUP1 PUSH4 0xDDD9D045 EQ PUSH2 0x8E7 JUMPI PUSH1 0x0 DUP1 REVERT JUMPDEST DUP1 PUSH4 0x99BC4D96 GT PUSH2 0x113 JUMPI DUP1 PUSH4 0x99BC4D96 EQ PUSH2 0x747 JUMPI DUP1 PUSH4 0xA42C9504 EQ PUSH2 0x75A JUMPI DUP1 PUSH4 0xA83BA53E EQ PUSH2 0x77A JUMPI DUP1 PUSH4 0xADBA9804 EQ PUSH2 0x79A JUMPI DUP1 PUSH4 0xB4163D36 EQ PUSH2 0x7BA JUMPI DUP1 PUSH4 0xC5263E8C EQ PUSH2 0x808 JUMPI PUSH1 0x0 DUP1 REVERT JUMPDEST DUP1 PUSH4 0x8C535CF8 EQ PUSH2 0x613 JUMPI DUP1 PUSH4 0x8DA5CB5B EQ PUSH2 0x626 JUMPI DUP1 PUSH4 0x8DC10768 EQ PUSH2 0x64E JUMPI DUP1 PUSH4 0x90EDF001 EQ PUSH2 0x6FA JUMPI DUP1 PUSH4 0x9188D312 EQ PUSH2 0x71A JUMPI PUSH1 0x0 DUP1 REVERT JUMPDEST DUP1 PUSH4 0x4AE3540E GT PUSH2 0x1E8 JUMPI DUP1 PUSH4 0x623D5F20 GT PUSH2 0x1AC JUMPI DUP1 PUSH4 0x623D5F20 EQ PUSH2 0x558 JUMPI DUP1 PUSH4 0x628E1D26 EQ PUSH2 0x56B JUMPI DUP1 PUSH4 0x66CD9005 EQ PUSH2 0x58B JUMPI DUP1 PUSH4 0x715018A6 EQ PUSH2 0x5AB JUMPI DUP1 PUSH4 0x793A932D EQ PUSH2 0x5C0 JUMPI DUP1 PUSH4 0x7D620130 EQ PUSH2 0x5FE JUMPI PUSH1 0x0 DUP1 REVERT JUMPDEST DUP1 PUSH4 0x4AE3540E EQ PUSH2 0x4D4 JUMPI DUP1 PUSH4 0x4E09747C EQ PUSH2 0x504 JUMPI DUP1 PUSH4 0x587F5ED7 EQ PUSH2 0x517 JUMPI DUP1 PUSH4 0x5BF31D4D EQ PUSH2 0x52D JUMPI DUP1 PUSH4 0x5DF45A37 EQ PUSH2 0x543 JUMPI PUSH1 0x0 DUP1 REVERT JUMPDEST DUP1 PUSH4 0x1386A519 GT PUSH2 0x23A JUMPI DUP1 PUSH4 0x1386A519 EQ PUSH2 0x3FB JUMPI DUP1 PUSH4 0x26232A2E EQ PUSH2 0x428 JUMPI DUP1 PUSH4 0x2B839B41 EQ PUSH2 0x43E JUMPI DUP1 PUSH4 0x43859632 EQ PUSH2 0x454 JUMPI DUP1 PUSH4 0x43A615CB EQ PUSH2 0x49F JUMPI DUP1 PUSH4 0x476343EE EQ PUSH2 0x4BF JUMPI PUSH1 0x0 DUP1 REVERT JUMPDEST DUP1 PUSH4 0x13CF08B EQ PUSH2 0x282 JUMPI DUP1 PUSH4 0x2A251A3 EQ PUSH2 0x375 JUMPI DUP1 PUSH4 0x39CF6D0 EQ PUSH2 0x399 JUMPI DUP1 PUSH4 0xF9F9264 EQ PUSH2 0x3BB JUMPI DUP1 PUSH4 0x12E8E2C3 EQ PUSH2 0x3DB JUMPI PUSH1 0x0 DUP1 REVERT JUMPDEST CALLDATASIZE PUSH2 0x27D JUMPI STOP JUMPDEST PUSH1 0x0 DUP1 REVERT JUMPDEST CALLVALUE DUP1 ISZERO PUSH2 0x28E JUMPI PUSH1 0x0 DUP1 REVERT JUMPDEST POP PUSH2 0x305 PUSH2 0x29D CALLDATASIZE PUSH1 0x4 PUSH2 0x3283 JUMP JUMPDEST PUSH1 0xD PUSH1 0x20 MSTORE PUSH1 0x0 SWAP1 DUP2 MSTORE PUSH1 0x40 SWAP1 KECCAK256 DUP1 SLOAD PUSH1 0x1 DUP3 ADD SLOAD PUSH1 0x2 DUP4 ADD SLOAD PUSH1 0x3 DUP5 ADD SLOAD PUSH1 0x4 DUP6 ADD SLOAD PUSH1 0x5 DUP7 ADD SLOAD PUSH1 0x6 DUP8 ADD SLOAD PUSH1 0x7 DUP9 ADD SLOAD PUSH1 0x8 DUP10 ADD SLOAD PUSH1 0x9 SWAP1 SWAP10 ADD SLOAD PUSH1 0x1 PUSH1 0x1 PUSH1 0xA0 SHL SUB SWAP9 DUP10 AND SWAP10 SWAP8 SWAP9 SWAP7 SWAP8 SWAP6 SWAP7 SWAP5 SWAP6 PUSH1 0xFF DUP1 DUP7 AND SWAP7 PUSH2 0x100 SWAP1 SWAP7 DIV SWAP1 SWAP6 AND SWAP5 SWAP1 SWAP2 AND DUP12 JUMP JUMPDEST PUSH1 0x40 DUP1 MLOAD PUSH1 0x1 PUSH1 0x1 PUSH1 0xA0 SHL SUB SWAP13 DUP14 AND DUP2 MSTORE PUSH1 0x20 DUP2 ADD SWAP12 SWAP1 SWAP12 MSTORE DUP11 ADD SWAP9 SWAP1 SWAP9 MSTORE PUSH1 0x60 DUP10 ADD SWAP7 SWAP1 SWAP7 MSTORE PUSH1 0x80 DUP9 ADD SWAP5 SWAP1 SWAP5 MSTORE SWAP2 ISZERO ISZERO PUSH1 0xA0 DUP8 ADD MSTORE SWAP1 SWAP6 AND PUSH1 0xC0 DUP6 ADD MSTORE PUSH1 0xE0 DUP5 ADD SWAP5 SWAP1 SWAP5 MSTORE PUSH2 0x100 DUP4 ADD SWAP4 SWAP1 SWAP4 MSTORE PUSH2 0x120 DUP3 ADD SWAP3 SWAP1 SWAP3 MSTORE SWAP1 ISZERO ISZERO PUSH2 0x140 DUP3 ADD MSTORE PUSH2 0x160 ADD JUMPDEST PUSH1 0x40 MLOAD DUP1 SWAP2 SUB SWAP1 RETURN JUMPDEST CALLVALUE DUP1 ISZERO PUSH2 0x381 JUMPI PUSH1 0x0 DUP1 REVERT JUMPDEST POP PUSH2 0x38B PUSH1 0x7 SLOAD DUP2 JUMP JUMPDEST PUSH1 0x40 MLOAD SWAP1 DUP2 MSTORE PUSH1 0x20 ADD PUSH2 0x36C JUMP JUMPDEST CALLVALUE DUP1 ISZERO PUSH2 0x3A5 JUMPI PUSH1 0x0 DUP1 REVERT JUMPDEST POP PUSH2 0x3B9 PUSH2 0x3B4 CALLDATASIZE PUSH1 0x4 PUSH2 0x3283 JUMP JUMPDEST PUSH2 0xA68 JUMP JUMPDEST STOP JUMPDEST CALLVALUE DUP1 ISZERO PUSH2 0x3C7 JUMPI PUSH1 0x0 DUP1 REVERT JUMPDEST POP PUSH2 0x3B9 PUSH2 0x3D6 CALLDATASIZE PUSH1 0x4 PUSH2 0x329C JUMP JUMPDEST PUSH2 0xA75 JUMP JUMPDEST CALLVALUE DUP1 ISZERO PUSH2 0x3E7 JUMPI PUSH1 0x0 DUP1 REVERT JUMPDEST POP PUSH2 0x3B9 PUSH2 0x3F6 CALLDATASIZE PUSH1 0x4 PUSH2 0x3283 JUMP JUMPDEST PUSH2 0xBD2 JUMP JUMPDEST CALLVALUE DUP1 ISZERO PUSH2 0x407 JUMPI PUSH1 0x0 DUP1 REVERT JUMPDEST POP PUSH2 0x41B PUSH2 0x416 CALLDATASIZE PUSH1 0x4 PUSH2 0x3283 JUMP JUMPDEST PUSH2 0xC2E JUMP JUMPDEST PUSH1 0x40 MLOAD PUSH2 0x36C SWAP2 SWAP1 PUSH2 0x32BE JUMP JUMPDEST CALLVALUE DUP1 ISZERO PUSH2 0x434 JUMPI PUSH1 0x0 DUP1 REVERT JUMPDEST POP PUSH2 0x38B PUSH1 0x3 SLOAD DUP2 JUMP JUMPDEST CALLVALUE DUP1 ISZERO PUSH2 0x44A JUMPI PUSH1 0x0 DUP1 REVERT JUMPDEST POP PUSH2 0x38B PUSH1 0x5 SLOAD DUP2 JUMP JUMPDEST CALLVALUE DUP1 ISZERO PUSH2 0x460 JUMPI PUSH1 0x0 DUP1 REVERT JUMPDEST POP PUSH2 0x48F PUSH2 0x46F CALLDATASIZE PUSH1 0x4 PUSH2 0x336C JUMP JUMPDEST PUSH1 0xE PUSH1 0x20 SWAP1 DUP2 MSTORE PUSH1 0x0 SWAP3 DUP4 MSTORE PUSH1 0x40 DUP1 DUP5 KECCAK256 SWAP1 SWAP2 MSTORE SWAP1 DUP3 MSTORE SWAP1 KECCAK256 SLOAD PUSH1 0xFF AND DUP2 JUMP JUMPDEST PUSH1 0x40 MLOAD SWAP1 ISZERO ISZERO DUP2 MSTORE PUSH1 0x20 ADD PUSH2 0x36C JUMP JUMPDEST CALLVALUE DUP1 ISZERO PUSH2 0x4AB JUMPI PUSH1 0x0 DUP1 REVERT JUMPDEST POP PUSH2 0x38B PUSH2 0x4BA CALLDATASIZE PUSH1 0x4 PUSH2 0x3398 JUMP JUMPDEST PUSH2 0xD43 JUMP JUMPDEST CALLVALUE DUP1 ISZERO PUSH2 0x4CB JUMPI PUSH1 0x0 DUP1 REVERT JUMPDEST POP PUSH2 0x3B9 PUSH2 0xF18 JUMP JUMPDEST CALLVALUE DUP1 ISZERO PUSH2 0x4E0 JUMPI PUSH1 0x0 DUP1 REVERT JUMPDEST POP PUSH2 0x48F PUSH2 0x4EF CALLDATASIZE PUSH1 0x4 PUSH2 0x3283 JUMP JUMPDEST PUSH1 0xA PUSH1 0x20 MSTORE PUSH1 0x0 SWAP1 DUP2 MSTORE PUSH1 0x40 SWAP1 KECCAK256 SLOAD PUSH1 0xFF AND DUP2 JUMP JUMPDEST PUSH2 0x3B9 PUSH2 0x512 CALLDATASIZE PUSH1 0x4 PUSH2 0x329C JUMP JUMPDEST PUSH2 0xFA8 JUMP JUMPDEST CALLVALUE DUP1 ISZERO PUSH2 0x523 JUMPI PUSH1 0x0 DUP1 REVERT JUMPDEST POP PUSH2 0x38B PUSH1 0x4 SLOAD DUP2 JUMP JUMPDEST CALLVALUE DUP1 ISZERO PUSH2 0x539 JUMPI PUSH1 0x0 DUP1 REVERT JUMPDEST POP PUSH2 0x38B PUSH1 0x6 SLOAD DUP2 JUMP JUMPDEST CALLVALUE DUP1 ISZERO PUSH2 0x54F JUMPI PUSH1 0x0 DUP1 REVERT JUMPDEST POP PUSH1 0x4 SLOAD PUSH2 0x38B JUMP JUMPDEST PUSH2 0x3B9 PUSH2 0x566 CALLDATASIZE PUSH1 0x4 PUSH2 0x329C JUMP JUMPDEST PUSH2 0x11D6 JUMP JUMPDEST CALLVALUE DUP1 ISZERO PUSH2 0x577 JUMPI PUSH1 0x0 DUP1 REVERT JUMPDEST POP PUSH2 0x3B9 PUSH2 0x586 CALLDATASIZE PUSH1 0x4 PUSH2 0x3283 JUMP JUMPDEST PUSH2 0x14E1 JUMP JUMPDEST CALLVALUE DUP1 ISZERO PUSH2 0x597 JUMPI PUSH1 0x0 DUP1 REVERT JUMPDEST POP PUSH2 0x3B9 PUSH2 0x5A6 CALLDATASIZE PUSH1 0x4 PUSH2 0x341D JUMP JUMPDEST PUSH2 0x16E1 JUMP JUMPDEST CALLVALUE DUP1 ISZERO PUSH2 0x5B7 JUMPI PUSH1 0x0 DUP1 REVERT JUMPDEST POP PUSH2 0x3B9 PUSH2 0x1907 JUMP JUMPDEST CALLVALUE DUP1 ISZERO PUSH2 0x5CC JUMPI PUSH1 0x0 DUP1 REVERT JUMPDEST POP PUSH2 0x38B PUSH2 0x5DB CALLDATASIZE PUSH1 0x4 PUSH2 0x3452 JUMP JUMPDEST PUSH1 0xC PUSH1 0x20 SWAP1 DUP2 MSTORE PUSH1 0x0 SWAP4 DUP5 MSTORE PUSH1 0x40 DUP1 DUP6 KECCAK256 DUP3 MSTORE SWAP3 DUP5 MSTORE DUP3 DUP5 KECCAK256 SWAP1 MSTORE DUP3 MSTORE SWAP1 KECCAK256 SLOAD DUP2 JUMP JUMPDEST CALLVALUE DUP1 ISZERO PUSH2 0x60A JUMPI PUSH1 0x0 DUP1 REVERT JUMPDEST POP PUSH2 0x38B PUSH2 0x191B JUMP JUMPDEST PUSH2 0x3B9 PUSH2 0x621 CALLDATASIZE PUSH1 0x4 PUSH2 0x3283 JUMP JUMPDEST PUSH2 0x1931 JUMP JUMPDEST CALLVALUE DUP1 ISZERO PUSH2 0x632 JUMPI PUSH1 0x0 DUP1 REVERT JUMPDEST POP PUSH1 0x1 SLOAD PUSH1 0x40 MLOAD PUSH1 0x1 PUSH1 0x1 PUSH1 0xA0 SHL SUB SWAP1 SWAP2 AND DUP2 MSTORE PUSH1 0x20 ADD PUSH2 0x36C JUMP JUMPDEST CALLVALUE DUP1 ISZERO PUSH2 0x65A JUMPI PUSH1 0x0 DUP1 REVERT JUMPDEST POP PUSH2 0x6E1 PUSH2 0x669 CALLDATASIZE PUSH1 0x4 PUSH2 0x3283 JUMP JUMPDEST PUSH1 0x8 PUSH1 0x20 DUP2 SWAP1 MSTORE PUSH1 0x0 SWAP2 DUP3 MSTORE PUSH1 0x40 SWAP1 SWAP2 KECCAK256 DUP1 SLOAD PUSH1 0x1 DUP3 ADD SLOAD PUSH1 0x2 DUP4 ADD SLOAD PUSH1 0x3 DUP5 ADD SLOAD PUSH1 0x4 DUP6 ADD SLOAD PUSH1 0x5 DUP7 ADD SLOAD PUSH1 0x6 DUP8 ADD SLOAD PUSH1 0x7 DUP9 ADD SLOAD SWAP9 DUP9 ADD SLOAD PUSH1 0x9 DUP10 ADD SLOAD PUSH1 0xA DUP11 ADD SLOAD PUSH1 0xC SWAP1 SWAP11 ADD SLOAD SWAP9 SWAP11 SWAP8 SWAP10 SWAP7 SWAP9 SWAP6 SWAP8 PUSH1 0x1 PUSH1 0x1 PUSH1 0xA0 SHL SUB SWAP1 SWAP6 AND SWAP7 SWAP4 SWAP6 SWAP3 SWAP5 SWAP4 PUSH1 0xFF DUP1 DUP5 AND SWAP5 PUSH2 0x100 SWAP1 SWAP5 DIV DUP2 AND SWAP4 SWAP2 AND SWAP1 DUP14 JUMP JUMPDEST PUSH1 0x40 MLOAD PUSH2 0x36C SWAP14 SWAP13 SWAP12 SWAP11 SWAP10 SWAP9 SWAP8 SWAP7 SWAP6 SWAP5 SWAP4 SWAP3 SWAP2 SWAP1 PUSH2 0x34BD JUMP JUMPDEST CALLVALUE DUP1 ISZERO PUSH2 0x706 JUMPI PUSH1 0x0 DUP1 REVERT JUMPDEST POP PUSH2 0x3B9 PUSH2 0x715 CALLDATASIZE PUSH1 0x4 PUSH2 0x329C JUMP JUMPDEST PUSH2 0x1A96 JUMP JUMPDEST CALLVALUE DUP1 ISZERO PUSH2 0x726 JUMPI PUSH1 0x0 DUP1 REVERT JUMPDEST POP PUSH2 0x73A PUSH2 0x735 CALLDATASIZE PUSH1 0x4 PUSH2 0x3283 JUMP JUMPDEST PUSH2 0x1BCB JUMP JUMPDEST PUSH1 0x40 MLOAD PUSH2 0x36C SWAP2 SWAP1 PUSH2 0x35C0 JUMP JUMPDEST PUSH2 0x3B9 PUSH2 0x755 CALLDATASIZE PUSH1 0x4 PUSH2 0x36A4 JUMP JUMPDEST PUSH2 0x1DBE JUMP JUMPDEST CALLVALUE DUP1 ISZERO PUSH2 0x766 JUMPI PUSH1 0x0 DUP1 REVERT JUMPDEST POP PUSH2 0x38B PUSH2 0x775 CALLDATASIZE PUSH1 0x4 PUSH2 0x329C JUMP JUMPDEST PUSH2 0x2065 JUMP JUMPDEST CALLVALUE DUP1 ISZERO PUSH2 0x786 JUMPI PUSH1 0x0 DUP1 REVERT JUMPDEST POP PUSH2 0x3B9 PUSH2 0x795 CALLDATASIZE PUSH1 0x4 PUSH2 0x3283 JUMP JUMPDEST PUSH2 0x2086 JUMP JUMPDEST CALLVALUE DUP1 ISZERO PUSH2 0x7A6 JUMPI PUSH1 0x0 DUP1 REVERT JUMPDEST POP PUSH2 0x3B9 PUSH2 0x7B5 CALLDATASIZE PUSH1 0x4 PUSH2 0x3283 JUMP JUMPDEST PUSH2 0x2093 JUMP JUMPDEST CALLVALUE DUP1 ISZERO PUSH2 0x7C6 JUMPI PUSH1 0x0 DUP1 REVERT JUMPDEST POP PUSH2 0x38B PUSH2 0x7D5 CALLDATASIZE PUSH1 0x4 PUSH2 0x3452 JUMP JUMPDEST PUSH1 0x1 PUSH1 0x1 PUSH1 0xA0 SHL SUB DUP4 AND PUSH1 0x0 SWAP1 DUP2 MSTORE PUSH1 0xC PUSH1 0x20 SWAP1 DUP2 MSTORE PUSH1 0x40 DUP1 DUP4 KECCAK256 DUP6 DUP5 MSTORE DUP3 MSTORE DUP1 DUP4 KECCAK256 DUP5 DUP5 MSTORE SWAP1 SWAP2 MSTORE SWAP1 KECCAK256 SLOAD SWAP4 SWAP3 POP POP POP JUMP JUMPDEST CALLVALUE DUP1 ISZERO PUSH2 0x814 JUMPI PUSH1 0x0 DUP1 REVERT JUMPDEST POP PUSH2 0x38B PUSH1 0x2 SLOAD DUP2 JUMP JUMPDEST CALLVALUE DUP1 ISZERO PUSH2 0x82A JUMPI PUSH1 0x0 DUP1 REVERT JUMPDEST POP PUSH2 0x83E PUSH2 0x839 CALLDATASIZE PUSH1 0x4 PUSH2 0x3283 JUMP JUMPDEST PUSH2 0x230F JUMP JUMPDEST PUSH1 0x40 MLOAD PUSH2 0x36C SWAP2 SWAP1 PUSH2 0x36D0 JUMP JUMPDEST CALLVALUE DUP1 ISZERO PUSH2 0x857 JUMPI PUSH1 0x0 DUP1 REVERT JUMPDEST POP PUSH2 0x38B PUSH2 0x2710 DUP2 JUMP JUMPDEST CALLVALUE DUP1 ISZERO PUSH2 0x86D JUMPI PUSH1 0x0 DUP1 REVERT JUMPDEST POP PUSH2 0x38B PUSH2 0x87C CALLDATASIZE PUSH1 0x4 PUSH2 0x36A4 JUMP JUMPDEST PUSH2 0x2427 JUMP JUMPDEST CALLVALUE DUP1 ISZERO PUSH2 0x88D JUMPI PUSH1 0x0 DUP1 REVERT JUMPDEST POP PUSH2 0x38B PUSH2 0x89C CALLDATASIZE PUSH1 0x4 PUSH2 0x336C JUMP JUMPDEST PUSH2 0x26C9 JUMP JUMPDEST CALLVALUE DUP1 ISZERO PUSH2 0x8AD JUMPI PUSH1 0x0 DUP1 REVERT JUMPDEST POP PUSH2 0x48F PUSH2 0x8BC CALLDATASIZE PUSH1 0x4 PUSH2 0x336C JUMP JUMPDEST PUSH1 0x0 SWAP2 DUP3 MSTORE PUSH1 0xE PUSH1 0x20 SWAP1 DUP2 MSTORE PUSH1 0x40 DUP1 DUP5 KECCAK256 PUSH1 0x1 PUSH1 0x1 PUSH1 0xA0 SHL SUB SWAP4 SWAP1 SWAP4 AND DUP5 MSTORE SWAP2 SWAP1 MSTORE SWAP1 KECCAK256 SLOAD PUSH1 0xFF AND SWAP1 JUMP JUMPDEST CALLVALUE DUP1 ISZERO PUSH2 0x8F3 JUMPI PUSH1 0x0 DUP1 REVERT JUMPDEST POP PUSH2 0x94E PUSH2 0x902 CALLDATASIZE PUSH1 0x4 PUSH2 0x376D JUMP JUMPDEST PUSH1 0x40 DUP1 MLOAD DUP1 DUP3 ADD DUP3 MSTORE PUSH1 0x0 DUP1 DUP3 MSTORE PUSH1 0x20 SWAP2 DUP3 ADD DUP2 SWAP1 MSTORE PUSH1 0x1 PUSH1 0x1 PUSH1 0xA0 SHL SUB SWAP5 SWAP1 SWAP5 AND DUP5 MSTORE PUSH1 0x9 DUP2 MSTORE DUP2 DUP5 KECCAK256 SWAP3 DUP5 MSTORE SWAP2 DUP3 MSTORE SWAP2 DUP3 SWAP1 KECCAK256 DUP3 MLOAD DUP1 DUP5 ADD SWAP1 SWAP4 MSTORE DUP1 SLOAD DUP4 MSTORE PUSH1 0x1 ADD SLOAD SWAP1 DUP3 ADD MSTORE SWAP1 JUMP JUMPDEST PUSH1 0x40 DUP1 MLOAD DUP3 MLOAD DUP2 MSTORE PUSH1 0x20 SWAP3 DUP4 ADD MLOAD SWAP3 DUP2 ADD SWAP3 SWAP1 SWAP3 MSTORE ADD PUSH2 0x36C JUMP JUMPDEST CALLVALUE DUP1 ISZERO PUSH2 0x975 JUMPI PUSH1 0x0 DUP1 REVERT JUMPDEST POP PUSH2 0x9A8 PUSH2 0x984 CALLDATASIZE PUSH1 0x4 PUSH2 0x376D JUMP JUMPDEST PUSH1 0x9 PUSH1 0x20 SWAP1 DUP2 MSTORE PUSH1 0x0 SWAP3 DUP4 MSTORE PUSH1 0x40 DUP1 DUP5 KECCAK256 SWAP1 SWAP2 MSTORE SWAP1 DUP3 MSTORE SWAP1 KECCAK256 DUP1 SLOAD PUSH1 0x1 SWAP1 SWAP2 ADD SLOAD DUP3 JUMP JUMPDEST PUSH1 0x40 DUP1 MLOAD SWAP3 DUP4 MSTORE PUSH1 0x20 DUP4 ADD SWAP2 SWAP1 SWAP2 MSTORE ADD PUSH2 0x36C JUMP JUMPDEST CALLVALUE DUP1 ISZERO PUSH2 0x9C9 JUMPI PUSH1 0x0 DUP1 REVERT JUMPDEST POP PUSH2 0x3B9 PUSH2 0x9D8 CALLDATASIZE PUSH1 0x4 PUSH2 0x3283 JUMP JUMPDEST PUSH2 0x27C5 JUMP JUMPDEST PUSH2 0x3B9 PUSH2 0x9EB CALLDATASIZE PUSH1 0x4 PUSH2 0x329C JUMP JUMPDEST PUSH2 0x27D2 JUMP JUMPDEST CALLVALUE DUP1 ISZERO PUSH2 0x9FC JUMPI PUSH1 0x0 DUP1 REVERT JUMPDEST POP PUSH2 0x38B PUSH2 0xA0B CALLDATASIZE PUSH1 0x4 PUSH2 0x329C JUMP JUMPDEST PUSH1 0xB PUSH1 0x20 SWAP1 DUP2 MSTORE PUSH1 0x0 SWAP3 DUP4 MSTORE PUSH1 0x40 DUP1 DUP5 KECCAK256 SWAP1 SWAP2 MSTORE SWAP1 DUP3 MSTORE SWAP1 KECCAK256 SLOAD DUP2 JUMP JUMPDEST CALLVALUE DUP1 ISZERO PUSH2 0xA34 JUMPI PUSH1 0x0 DUP1 REVERT JUMPDEST POP PUSH2 0x3B9 PUSH2 0xA43 CALLDATASIZE PUSH1 0x4 PUSH2 0x3797 JUMP JUMPDEST PUSH2 0x2AA5 JUMP JUMPDEST CALLVALUE DUP1 ISZERO PUSH2 0xA54 JUMPI PUSH1 0x0 DUP1 REVERT JUMPDEST POP PUSH2 0x3B9 PUSH2 0xA63 CALLDATASIZE PUSH1 0x4 PUSH2 0x3283 JUMP JUMPDEST PUSH2 0x2B1B JUMP JUMPDEST PUSH2 0xA70 PUSH2 0x3034 JUMP JUMPDEST PUSH1 0x5 SSTORE JUMP JUMPDEST PUSH2 0xA7D PUSH2 0x3034 JUMP JUMPDEST PUSH1 0x0 DUP3 DUP2 MSTORE PUSH1 0xA PUSH1 0x20 MSTORE PUSH1 0x40 SWAP1 KECCAK256 SLOAD PUSH1 0xFF AND PUSH2 0xAAC JUMPI PUSH1 0x40 MLOAD PUSH4 0x4792011 PUSH1 0xE4 SHL DUP2 MSTORE PUSH1 0x4 ADD PUSH1 0x40 MLOAD DUP1 SWAP2 SUB SWAP1 REVERT JUMPDEST PUSH1 0x0 DUP3 DUP2 MSTORE PUSH1 0x8 PUSH1 0x20 DUP2 SWAP1 MSTORE PUSH1 0x40 SWAP1 SWAP2 KECCAK256 ADD SLOAD PUSH1 0xFF AND ISZERO PUSH2 0xAE0 JUMPI PUSH1 0x40 MLOAD PUSH4 0xB6AD70F3 PUSH1 0xE0 SHL DUP2 MSTORE PUSH1 0x4 ADD PUSH1 0x40 MLOAD DUP1 SWAP2 SUB SWAP1 REVERT JUMPDEST PUSH1 0x0 DUP3 DUP2 MSTORE PUSH1 0x8 PUSH1 0x20 MSTORE PUSH1 0x40 SWAP1 KECCAK256 PUSH1 0x3 ADD SLOAD TIMESTAMP LT ISZERO PUSH2 0xB12 JUMPI PUSH1 0x40 MLOAD PUSH4 0xDCA075A3 PUSH1 0xE0 SHL DUP2 MSTORE PUSH1 0x4 ADD PUSH1 0x40 MLOAD DUP1 SWAP2 SUB SWAP1 REVERT JUMPDEST PUSH1 0x0 DUP3 DUP2 MSTORE PUSH1 0x8 PUSH1 0x20 MSTORE PUSH1 0x40 DUP2 KECCAK256 PUSH1 0xA ADD SLOAD PUSH1 0xFF AND PUSH1 0x1 DUP2 GT ISZERO PUSH2 0xB38 JUMPI PUSH2 0xB38 PUSH2 0x3485 JUMP JUMPDEST EQ PUSH2 0xB56 JUMPI PUSH1 0x40 MLOAD PUSH4 0x7DBBB635 PUSH1 0xE0 SHL DUP2 MSTORE PUSH1 0x4 ADD PUSH1 0x40 MLOAD DUP1 SWAP2 SUB SWAP1 REVERT JUMPDEST PUSH1 0x0 DUP3 DUP2 MSTORE PUSH1 0x8 PUSH1 0x20 DUP2 DUP2 MSTORE PUSH1 0x40 SWAP3 DUP4 SWAP1 KECCAK256 SWAP2 DUP3 ADD DUP1 SLOAD PUSH1 0x2 DUP5 ADD SLOAD DUP7 LT ISZERO PUSH2 0x100 SWAP1 DUP2 MUL PUSH2 0xFFFF NOT SWAP1 SWAP3 AND SWAP2 SWAP1 SWAP2 OR PUSH1 0x1 OR SWAP2 DUP3 SWAP1 SSTORE DUP5 MLOAD SWAP2 DIV PUSH1 0xFF AND ISZERO ISZERO DUP2 MSTORE SWAP1 DUP2 ADD DUP5 SWAP1 MSTORE SWAP1 SWAP2 DUP5 SWAP2 PUSH32 0x252AE5C5BE4F6AAD38FCCA6AD8A555A218C48ADCB3C0AB0D83C7E260114C2450 SWAP2 ADD PUSH1 0x40 MLOAD DUP1 SWAP2 SUB SWAP1 LOG2 POP POP POP JUMP JUMPDEST PUSH2 0xBDA PUSH2 0x3034 JUMP JUMPDEST PUSH2 0x3E8 DUP2 GT ISZERO PUSH2 0xC29 JUMPI PUSH1 0x40 MLOAD PUSH3 0x461BCD PUSH1 0xE5 SHL DUP2 MSTORE PUSH1 0x20 PUSH1 0x4 DUP3 ADD MSTORE PUSH1 0x15 PUSH1 0x24 DUP3 ADD MSTORE PUSH21 0x4665652063616E6E6F742065786365656420313025 PUSH1 0x58 SHL PUSH1 0x44 DUP3 ADD MSTORE PUSH1 0x64 ADD JUMPDEST PUSH1 0x40 MLOAD DUP1 SWAP2 SUB SWAP1 REVERT JUMPDEST PUSH1 0x3 SSTORE JUMP JUMPDEST PUSH1 0x0 DUP2 DUP2 MSTORE PUSH1 0xA PUSH1 0x20 MSTORE PUSH1 0x40 SWAP1 KECCAK256 SLOAD PUSH1 0x60 SWAP1 PUSH1 0xFF AND PUSH2 0xC60 JUMPI PUSH1 0x40 MLOAD PUSH4 0x4792011 PUSH1 0xE4 SHL DUP2 MSTORE PUSH1 0x4 ADD PUSH1 0x40 MLOAD DUP1 SWAP2 SUB SWAP1 REVERT JUMPDEST PUSH1 0x0 DUP3 DUP2 MSTORE PUSH1 0x8 PUSH1 0x20 SWAP1 DUP2 MSTORE PUSH1 0x40 DUP1 DUP4 KECCAK256 PUSH1 0xB ADD DUP1 SLOAD DUP3 MLOAD DUP2 DUP6 MUL DUP2 ADD DUP6 ADD SWAP1 SWAP4 MSTORE DUP1 DUP4 MSTORE SWAP2 SWAP4 SWAP1 SWAP3 DUP5 ADD JUMPDEST DUP3 DUP3 LT ISZERO PUSH2 0xD38 JUMPI DUP4 DUP3 SWAP1 PUSH1 0x0 MSTORE PUSH1 0x20 PUSH1 0x0 KECCAK256 ADD DUP1 SLOAD PUSH2 0xCAB SWAP1 PUSH2 0x37B9 JUMP JUMPDEST DUP1 PUSH1 0x1F ADD PUSH1 0x20 DUP1 SWAP2 DIV MUL PUSH1 0x20 ADD PUSH1 0x40 MLOAD SWAP1 DUP2 ADD PUSH1 0x40 MSTORE DUP1 SWAP3 SWAP2 SWAP1 DUP2 DUP2 MSTORE PUSH1 0x20 ADD DUP3 DUP1 SLOAD PUSH2 0xCD7 SWAP1 PUSH2 0x37B9 JUMP JUMPDEST DUP1 ISZERO PUSH2 0xD24 JUMPI DUP1 PUSH1 0x1F LT PUSH2 0xCF9 JUMPI PUSH2 0x100 DUP1 DUP4 SLOAD DIV MUL DUP4 MSTORE SWAP2 PUSH1 0x20 ADD SWAP2 PUSH2 0xD24 JUMP JUMPDEST DUP3 ADD SWAP2 SWAP1 PUSH1 0x0 MSTORE PUSH1 0x20 PUSH1 0x0 KECCAK256 SWAP1 JUMPDEST DUP2 SLOAD DUP2 MSTORE SWAP1 PUSH1 0x1 ADD SWAP1 PUSH1 0x20 ADD DUP1 DUP4 GT PUSH2 0xD07 JUMPI DUP3 SWAP1 SUB PUSH1 0x1F AND DUP3 ADD SWAP2 JUMPDEST POP POP POP POP POP DUP2 MSTORE PUSH1 0x20 ADD SWAP1 PUSH1 0x1 ADD SWAP1 PUSH2 0xC8C JUMP JUMPDEST POP POP POP POP SWAP1 POP SWAP2 SWAP1 POP JUMP JUMPDEST PUSH1 0x0 TIMESTAMP DUP3 GT PUSH2 0xD65 JUMPI PUSH1 0x40 MLOAD PUSH4 0xB7D09497 PUSH1 0xE0 SHL DUP2 MSTORE PUSH1 0x4 ADD PUSH1 0x40 MLOAD DUP1 SWAP2 SUB SWAP1 REVERT JUMPDEST DUP5 PUSH1 0x0 SUB PUSH2 0xD86 JUMPI PUSH1 0x40 MLOAD PUSH4 0x68A3A6C3 PUSH1 0xE1 SHL DUP2 MSTORE PUSH1 0x4 ADD PUSH1 0x40 MLOAD DUP1 SWAP2 SUB SWAP1 REVERT JUMPDEST PUSH1 0x2 DUP4 LT ISZERO PUSH2 0xDA8 JUMPI PUSH1 0x40 MLOAD PUSH4 0xE908B9F PUSH1 0xE3 SHL DUP2 MSTORE PUSH1 0x4 ADD PUSH1 0x40 MLOAD DUP1 SWAP2 SUB SWAP1 REVERT JUMPDEST PUSH1 0x2 DUP1 SLOAD PUSH1 0x0 SWAP2 DUP3 PUSH2 0xDB9 DUP4 PUSH2 0x3809 JUMP JUMPDEST SWAP1 SWAP2 SSTORE POP PUSH1 0x0 DUP2 DUP2 MSTORE PUSH1 0x8 PUSH1 0x20 DUP2 SWAP1 MSTORE PUSH1 0x40 DUP3 KECCAK256 DUP4 DUP2 SSTORE PUSH1 0x1 DUP1 DUP3 ADD DUP12 SWAP1 SSTORE PUSH1 0x2 DUP3 ADD DUP5 SWAP1 SSTORE PUSH1 0x3 DUP3 ADD DUP9 SWAP1 SSTORE PUSH1 0x4 DUP3 ADD DUP1 SLOAD PUSH1 0x1 PUSH1 0x1 PUSH1 0xA0 SHL SUB NOT AND CALLER OR SWAP1 SSTORE PUSH1 0x5 DUP3 ADD DUP5 SWAP1 SSTORE PUSH1 0x6 DUP3 ADD DUP5 SWAP1 SSTORE PUSH1 0x7 DUP3 ADD DUP5 SWAP1 SSTORE SWAP2 DUP2 ADD DUP1 SLOAD PUSH2 0xFFFF NOT AND SWAP1 SSTORE TIMESTAMP PUSH1 0x9 DUP3 ADD SSTORE PUSH1 0xA ADD DUP1 SLOAD PUSH1 0xFF NOT AND SWAP1 SWAP2 OR SWAP1 SSTORE SWAP1 SWAP2 POP JUMPDEST DUP5 DUP2 LT ISZERO PUSH2 0xEA3 JUMPI PUSH1 0x0 DUP3 DUP2 MSTORE PUSH1 0x8 PUSH1 0x20 MSTORE PUSH1 0x40 SWAP1 KECCAK256 PUSH1 0xB ADD DUP7 DUP7 DUP4 DUP2 DUP2 LT PUSH2 0xE5E JUMPI PUSH2 0xE5E PUSH2 0x3822 JUMP JUMPDEST SWAP1 POP PUSH1 0x20 MUL DUP2 ADD SWAP1 PUSH2 0xE70 SWAP2 SWAP1 PUSH2 0x3838 JUMP JUMPDEST DUP3 SLOAD PUSH1 0x1 DUP2 ADD DUP5 SSTORE PUSH1 0x0 SWAP4 DUP5 MSTORE PUSH1 0x20 SWAP1 SWAP4 KECCAK256 SWAP1 SWAP3 ADD SWAP2 PUSH2 0xE90 SWAP2 DUP4 PUSH2 0x38EA JUMP JUMPDEST POP DUP1 PUSH2 0xE9B DUP2 PUSH2 0x3809 JUMP JUMPDEST SWAP2 POP POP PUSH2 0xE33 JUMP JUMPDEST POP PUSH1 0x0 DUP2 DUP2 MSTORE PUSH1 0x8 PUSH1 0x20 SWAP1 DUP2 MSTORE PUSH1 0x40 DUP1 DUP4 KECCAK256 PUSH1 0xC ADD DUP4 SWAP1 SSTORE PUSH1 0xA SWAP1 SWAP2 MSTORE SWAP1 DUP2 SWAP1 KECCAK256 DUP1 SLOAD PUSH1 0xFF NOT AND PUSH1 0x1 OR SWAP1 SSTORE MLOAD DUP7 SWAP1 DUP3 SWAP1 PUSH32 0xFF872A831223DD6074A8CD7207A73EF537A49B0B3C7F8ABBA74109CBD2D1FD9B SWAP1 PUSH2 0xF07 SWAP1 DUP10 SWAP1 DUP10 SWAP1 DUP10 SWAP1 CALLER SWAP1 PUSH2 0x39D4 JUMP JUMPDEST PUSH1 0x40 MLOAD DUP1 SWAP2 SUB SWAP1 LOG3 SWAP6 SWAP5 POP POP POP POP POP JUMP JUMPDEST PUSH2 0xF20 PUSH2 0x3034 JUMP JUMPDEST PUSH1 0x4 SLOAD DUP1 ISZERO PUSH2 0xFA5 JUMPI PUSH1 0x0 PUSH1 0x4 DUP2 SWAP1 SSTORE PUSH1 0x1 SLOAD PUSH1 0x40 MLOAD PUSH1 0x1 PUSH1 0x1 PUSH1 0xA0 SHL SUB SWAP1 SWAP2 AND SWAP1 DUP4 SWAP1 DUP4 DUP2 DUP2 DUP2 DUP6 DUP8 GAS CALL SWAP3 POP POP POP RETURNDATASIZE DUP1 PUSH1 0x0 DUP2 EQ PUSH2 0xF7C JUMPI PUSH1 0x40 MLOAD SWAP2 POP PUSH1 0x1F NOT PUSH1 0x3F RETURNDATASIZE ADD AND DUP3 ADD PUSH1 0x40 MSTORE RETURNDATASIZE DUP3 MSTORE RETURNDATASIZE PUSH1 0x0 PUSH1 0x20 DUP5 ADD RETURNDATACOPY PUSH2 0xF81 JUMP JUMPDEST PUSH1 0x60 SWAP2 POP JUMPDEST POP POP SWAP1 POP DUP1 PUSH2 0xFA3 JUMPI PUSH1 0x40 MLOAD PUSH4 0x12171D83 PUSH1 0xE3 SHL DUP2 MSTORE PUSH1 0x4 ADD PUSH1 0x40 MLOAD DUP1 SWAP2 SUB SWAP1 REVERT JUMPDEST POP JUMPDEST POP JUMP JUMPDEST PUSH2 0xFB0 PUSH2 0x308E JUMP JUMPDEST PUSH1 0x0 DUP3 DUP2 MSTORE PUSH1 0xA PUSH1 0x20 MSTORE PUSH1 0x40 SWAP1 KECCAK256 SLOAD PUSH1 0xFF AND PUSH2 0xFDF JUMPI PUSH1 0x40 MLOAD PUSH4 0x4792011 PUSH1 0xE4 SHL DUP2 MSTORE PUSH1 0x4 ADD PUSH1 0x40 MLOAD DUP1 SWAP2 SUB SWAP1 REVERT JUMPDEST PUSH1 0x0 DUP3 DUP2 MSTORE PUSH1 0x8 PUSH1 0x20 MSTORE PUSH1 0x40 SWAP1 KECCAK256 PUSH1 0x1 PUSH1 0xA DUP3 ADD SLOAD PUSH1 0xFF AND PUSH1 0x1 DUP2 GT ISZERO PUSH2 0x1008 JUMPI PUSH2 0x1008 PUSH2 0x3485 JUMP JUMPDEST EQ PUSH2 0x1026 JUMPI PUSH1 0x40 MLOAD PUSH4 0x7DBBB635 PUSH1 0xE0 SHL DUP2 MSTORE PUSH1 0x4 ADD PUSH1 0x40 MLOAD DUP1 SWAP2 SUB SWAP1 REVERT JUMPDEST PUSH1 0x8 DUP2 ADD SLOAD PUSH1 0xFF AND ISZERO PUSH2 0x104C JUMPI PUSH1 0x40 MLOAD PUSH4 0xB6AD70F3 PUSH1 0xE0 SHL DUP2 MSTORE PUSH1 0x4 ADD PUSH1 0x40 MLOAD DUP1 SWAP2 SUB SWAP1 REVERT JUMPDEST DUP1 PUSH1 0x3 ADD SLOAD TIMESTAMP LT PUSH2 0x1070 JUMPI PUSH1 0x40 MLOAD PUSH4 0x56C79831 PUSH1 0xE0 SHL DUP2 MSTORE PUSH1 0x4 ADD PUSH1 0x40 MLOAD DUP1 SWAP2 SUB SWAP1 REVERT JUMPDEST PUSH1 0xB DUP2 ADD SLOAD DUP3 LT PUSH2 0x1094 JUMPI PUSH1 0x40 MLOAD PUSH4 0x2A719531 PUSH1 0xE0 SHL DUP2 MSTORE PUSH1 0x4 ADD PUSH1 0x40 MLOAD DUP1 SWAP2 SUB SWAP1 REVERT JUMPDEST CALLVALUE PUSH1 0x0 SUB PUSH2 0x10B5 JUMPI PUSH1 0x40 MLOAD PUSH4 0x6992E1FF PUSH1 0xE0 SHL DUP2 MSTORE PUSH1 0x4 ADD PUSH1 0x40 MLOAD DUP1 SWAP2 SUB SWAP1 REVERT JUMPDEST PUSH1 0x3 SLOAD CALLVALUE SWAP1 PUSH1 0x0 SWAP1 PUSH2 0x2710 SWAP1 PUSH2 0x10CB SWAP1 DUP5 PUSH2 0x3A89 JUMP JUMPDEST PUSH2 0x10D5 SWAP2 SWAP1 PUSH2 0x3AA0 JUMP JUMPDEST SWAP1 POP PUSH1 0x0 PUSH2 0x10E3 DUP3 DUP5 PUSH2 0x3AC2 JUMP JUMPDEST CALLER PUSH1 0x0 SWAP1 DUP2 MSTORE PUSH1 0xC PUSH1 0x20 SWAP1 DUP2 MSTORE PUSH1 0x40 DUP1 DUP4 KECCAK256 DUP11 DUP5 MSTORE DUP3 MSTORE DUP1 DUP4 KECCAK256 DUP10 DUP5 MSTORE SWAP1 SWAP2 MSTORE DUP2 KECCAK256 DUP1 SLOAD SWAP3 SWAP4 POP DUP6 SWAP3 SWAP1 SWAP2 SWAP1 PUSH2 0x111A SWAP1 DUP5 SWAP1 PUSH2 0x3AD5 JUMP JUMPDEST SWAP1 SWAP2 SSTORE POP POP PUSH1 0x0 DUP7 DUP2 MSTORE PUSH1 0xB PUSH1 0x20 SWAP1 DUP2 MSTORE PUSH1 0x40 DUP1 DUP4 KECCAK256 DUP9 DUP5 MSTORE SWAP1 SWAP2 MSTORE DUP2 KECCAK256 DUP1 SLOAD DUP6 SWAP3 SWAP1 PUSH2 0x1148 SWAP1 DUP5 SWAP1 PUSH2 0x3AD5 JUMP JUMPDEST SWAP3 POP POP DUP2 SWAP1 SSTORE POP DUP1 DUP5 PUSH1 0x7 ADD PUSH1 0x0 DUP3 DUP3 SLOAD PUSH2 0x1163 SWAP2 SWAP1 PUSH2 0x3AD5 JUMP JUMPDEST SWAP3 POP POP DUP2 SWAP1 SSTORE POP DUP2 PUSH1 0x4 PUSH1 0x0 DUP3 DUP3 SLOAD PUSH2 0x117C SWAP2 SWAP1 PUSH2 0x3AD5 JUMP JUMPDEST SWAP1 SWAP2 SSTORE POP POP PUSH1 0x40 DUP1 MLOAD DUP5 DUP2 MSTORE PUSH1 0x20 DUP2 ADD DUP5 SWAP1 MSTORE SWAP1 DUP2 ADD DUP3 SWAP1 MSTORE DUP6 SWAP1 CALLER SWAP1 DUP9 SWAP1 PUSH32 0xCE3B514B7BCD2E79C42DD4761AC50BE95420F4CF85E6F27D682CF6A92ADBFED8 SWAP1 PUSH1 0x60 ADD PUSH1 0x40 MLOAD DUP1 SWAP2 SUB SWAP1 LOG4 POP POP POP POP PUSH2 0xFA3 PUSH1 0x1 PUSH1 0x0 SSTORE JUMP JUMPDEST PUSH2 0x11DE PUSH2 0x308E JUMP JUMPDEST PUSH1 0x0 DUP3 DUP2 MSTORE PUSH1 0xA PUSH1 0x20 MSTORE PUSH1 0x40 SWAP1 KECCAK256 SLOAD PUSH1 0xFF AND PUSH2 0x120D JUMPI PUSH1 0x40 MLOAD PUSH4 0x4792011 PUSH1 0xE4 SHL DUP2 MSTORE PUSH1 0x4 ADD PUSH1 0x40 MLOAD DUP1 SWAP2 SUB SWAP1 REVERT JUMPDEST PUSH1 0x0 DUP3 DUP2 MSTORE PUSH1 0x8 PUSH1 0x20 MSTORE PUSH1 0x40 SWAP1 KECCAK256 PUSH1 0x1 PUSH1 0xA DUP3 ADD SLOAD PUSH1 0xFF AND PUSH1 0x1 DUP2 GT ISZERO PUSH2 0x1236 JUMPI PUSH2 0x1236 PUSH2 0x3485 JUMP JUMPDEST EQ PUSH2 0x1254 JUMPI PUSH1 0x40 MLOAD PUSH4 0x7DBBB635 PUSH1 0xE0 SHL DUP2 MSTORE PUSH1 0x4 ADD PUSH1 0x40 MLOAD DUP1 SWAP2 SUB SWAP1 REVERT JUMPDEST PUSH1 0x8 DUP2 ADD SLOAD PUSH1 0xFF AND ISZERO PUSH2 0x127A JUMPI PUSH1 0x40 MLOAD PUSH4 0xB6AD70F3 PUSH1 0xE0 SHL DUP2 MSTORE PUSH1 0x4 ADD PUSH1 0x40 MLOAD DUP1 SWAP2 SUB SWAP1 REVERT JUMPDEST DUP1 PUSH1 0x3 ADD SLOAD TIMESTAMP LT ISZERO PUSH2 0x129F JUMPI PUSH1 0x40 MLOAD PUSH4 0xDCA075A3 PUSH1 0xE0 SHL DUP2 MSTORE PUSH1 0x4 ADD PUSH1 0x40 MLOAD DUP1 SWAP2 SUB SWAP1 REVERT JUMPDEST PUSH1 0x0 DUP4 DUP2 MSTORE PUSH1 0xD PUSH1 0x20 MSTORE PUSH1 0x40 SWAP1 KECCAK256 SLOAD PUSH1 0x1 PUSH1 0x1 PUSH1 0xA0 SHL SUB AND ISZERO PUSH2 0x12D5 JUMPI PUSH1 0x40 MLOAD PUSH4 0xECCF800F PUSH1 0xE0 SHL DUP2 MSTORE PUSH1 0x4 ADD PUSH1 0x40 MLOAD DUP1 SWAP2 SUB SWAP1 REVERT JUMPDEST PUSH1 0xB DUP2 ADD SLOAD DUP3 LT PUSH2 0x12F9 JUMPI PUSH1 0x40 MLOAD PUSH4 0x2A719531 PUSH1 0xE0 SHL DUP2 MSTORE PUSH1 0x4 ADD PUSH1 0x40 MLOAD DUP1 SWAP2 SUB SWAP1 REVERT JUMPDEST PUSH1 0x5 SLOAD CALLVALUE LT ISZERO PUSH2 0x131C JUMPI PUSH1 0x40 MLOAD PUSH4 0xE92C469F PUSH1 0xE0 SHL DUP2 MSTORE PUSH1 0x4 ADD PUSH1 0x40 MLOAD DUP1 SWAP2 SUB SWAP1 REVERT JUMPDEST PUSH1 0x40 MLOAD DUP1 PUSH2 0x160 ADD PUSH1 0x40 MSTORE DUP1 CALLER PUSH1 0x1 PUSH1 0x1 PUSH1 0xA0 SHL SUB AND DUP2 MSTORE PUSH1 0x20 ADD PUSH1 0x0 DUP2 MSTORE PUSH1 0x20 ADD DUP4 DUP2 MSTORE PUSH1 0x20 ADD CALLVALUE DUP2 MSTORE PUSH1 0x20 ADD TIMESTAMP DUP2 MSTORE PUSH1 0x20 ADD PUSH1 0x0 ISZERO ISZERO DUP2 MSTORE PUSH1 0x20 ADD PUSH1 0x0 PUSH1 0x1 PUSH1 0x1 PUSH1 0xA0 SHL SUB AND DUP2 MSTORE PUSH1 0x20 ADD PUSH1 0x0 DUP2 MSTORE PUSH1 0x20 ADD PUSH1 0x0 DUP2 MSTORE PUSH1 0x20 ADD PUSH1 0x0 DUP2 MSTORE PUSH1 0x20 ADD PUSH1 0x0 ISZERO ISZERO DUP2 MSTORE POP PUSH1 0xD PUSH1 0x0 DUP6 DUP2 MSTORE PUSH1 0x20 ADD SWAP1 DUP2 MSTORE PUSH1 0x20 ADD PUSH1 0x0 KECCAK256 PUSH1 0x0 DUP3 ADD MLOAD DUP2 PUSH1 0x0 ADD PUSH1 0x0 PUSH2 0x100 EXP DUP2 SLOAD DUP2 PUSH1 0x1 PUSH1 0x1 PUSH1 0xA0 SHL SUB MUL NOT AND SWAP1 DUP4 PUSH1 0x1 PUSH1 0x1 PUSH1 0xA0 SHL SUB AND MUL OR SWAP1 SSTORE POP PUSH1 0x20 DUP3 ADD MLOAD DUP2 PUSH1 0x1 ADD SSTORE PUSH1 0x40 DUP3 ADD MLOAD DUP2 PUSH1 0x2 ADD SSTORE PUSH1 0x60 DUP3 ADD MLOAD DUP2 PUSH1 0x3 ADD SSTORE PUSH1 0x80 DUP3 ADD MLOAD DUP2 PUSH1 0x4 ADD SSTORE PUSH1 0xA0 DUP3 ADD MLOAD DUP2 PUSH1 0x5 ADD PUSH1 0x0 PUSH2 0x100 EXP DUP2 SLOAD DUP2 PUSH1 0xFF MUL NOT AND SWAP1 DUP4 ISZERO ISZERO MUL OR SWAP1 SSTORE POP PUSH1 0xC0 DUP3 ADD MLOAD DUP2 PUSH1 0x5 ADD PUSH1 0x1 PUSH2 0x100 EXP DUP2 SLOAD DUP2 PUSH1 0x1 PUSH1 0x1 PUSH1 0xA0 SHL SUB MUL NOT AND SWAP1 DUP4 PUSH1 0x1 PUSH1 0x1 PUSH1 0xA0 SHL SUB AND MUL OR SWAP1 SSTORE POP PUSH1 0xE0 DUP3 ADD MLOAD DUP2 PUSH1 0x6 ADD SSTORE PUSH2 0x100 DUP3 ADD MLOAD DUP2 PUSH1 0x7 ADD SSTORE PUSH2 0x120 DUP3 ADD MLOAD DUP2 PUSH1 0x8 ADD SSTORE PUSH2 0x140 DUP3 ADD MLOAD DUP2 PUSH1 0x9 ADD PUSH1 0x0 PUSH2 0x100 EXP DUP2 SLOAD DUP2 PUSH1 0xFF MUL NOT AND SWAP1 DUP4 ISZERO ISZERO MUL OR SWAP1 SSTORE POP SWAP1 POP POP CALLER PUSH1 0x1 PUSH1 0x1 PUSH1 0xA0 SHL SUB AND DUP4 PUSH32 0x338AE4575885EA06228826734BF428D3F476DD8CAF6D9323B7F354B8C55813D PUSH1 0x0 DUP6 CALLVALUE PUSH1 0x40 MLOAD PUSH2 0x14CE SWAP4 SWAP3 SWAP2 SWAP1 SWAP3 DUP4 MSTORE PUSH1 0x20 DUP4 ADD SWAP2 SWAP1 SWAP2 MSTORE PUSH1 0x40 DUP3 ADD MSTORE PUSH1 0x60 ADD SWAP1 JUMP JUMPDEST PUSH1 0x40 MLOAD DUP1 SWAP2 SUB SWAP1 LOG3 POP PUSH2 0xFA3 PUSH1 0x1 PUSH1 0x0 SSTORE JUMP JUMPDEST PUSH2 0x14E9 PUSH2 0x308E JUMP JUMPDEST PUSH1 0x0 DUP2 DUP2 MSTORE PUSH1 0xA PUSH1 0x20 MSTORE PUSH1 0x40 SWAP1 KECCAK256 SLOAD PUSH1 0xFF AND PUSH2 0x1518 JUMPI PUSH1 0x40 MLOAD PUSH4 0x4792011 PUSH1 0xE4 SHL DUP2 MSTORE PUSH1 0x4 ADD PUSH1 0x40 MLOAD DUP1 SWAP2 SUB SWAP1 REVERT JUMPDEST PUSH1 0x0 DUP2 DUP2 MSTORE PUSH1 0x8 PUSH1 0x20 MSTORE PUSH1 0x40 SWAP1 KECCAK256 PUSH1 0x1 PUSH1 0xA DUP3 ADD SLOAD PUSH1 0xFF AND PUSH1 0x1 DUP2 GT ISZERO PUSH2 0x1541 JUMPI PUSH2 0x1541 PUSH2 0x3485 JUMP JUMPDEST EQ PUSH2 0x155F JUMPI PUSH1 0x40 MLOAD PUSH4 0x7DBBB635 PUSH1 0xE0 SHL DUP2 MSTORE PUSH1 0x4 ADD PUSH1 0x40 MLOAD DUP1 SWAP2 SUB SWAP1 REVERT JUMPDEST PUSH1 0x8 DUP2 ADD SLOAD PUSH1 0xFF AND PUSH2 0x1584 JUMPI PUSH1 0x40 MLOAD PUSH4 0x333C23AD PUSH1 0xE1 SHL DUP2 MSTORE PUSH1 0x4 ADD PUSH1 0x40 MLOAD DUP1 SWAP2 SUB SWAP1 REVERT JUMPDEST PUSH1 0xC DUP1 DUP3 ADD SLOAD CALLER PUSH1 0x0 SWAP1 DUP2 MSTORE PUSH1 0x20 SWAP3 DUP4 MSTORE PUSH1 0x40 DUP1 DUP3 KECCAK256 DUP7 DUP4 MSTORE DUP5 MSTORE DUP1 DUP3 KECCAK256 DUP4 DUP4 MSTORE SWAP1 SWAP4 MSTORE SWAP2 DUP3 KECCAK256 SLOAD SWAP1 SWAP2 DUP2 SWAP1 SUB PUSH2 0x15CE JUMPI PUSH1 0x40 MLOAD PUSH4 0xF10CC937 PUSH1 0xE0 SHL DUP2 MSTORE PUSH1 0x4 ADD PUSH1 0x40 MLOAD DUP1 SWAP2 SUB SWAP1 REVERT JUMPDEST PUSH1 0x0 DUP5 DUP2 MSTORE PUSH1 0xB PUSH1 0x20 SWAP1 DUP2 MSTORE PUSH1 0x40 DUP1 DUP4 KECCAK256 DUP6 DUP5 MSTORE SWAP1 SWAP2 MSTORE DUP2 KECCAK256 SLOAD PUSH1 0x7 DUP6 ADD SLOAD SWAP1 SWAP2 SWAP1 DUP3 SWAP1 PUSH2 0x15FC SWAP1 DUP6 PUSH2 0x3A89 JUMP JUMPDEST PUSH2 0x1606 SWAP2 SWAP1 PUSH2 0x3AA0 JUMP JUMPDEST CALLER PUSH1 0x0 DUP2 DUP2 MSTORE PUSH1 0xC PUSH1 0x20 SWAP1 DUP2 MSTORE PUSH1 0x40 DUP1 DUP4 KECCAK256 DUP12 DUP5 MSTORE DUP3 MSTORE DUP1 DUP4 KECCAK256 DUP10 DUP5 MSTORE SWAP1 SWAP2 MSTORE DUP1 DUP3 KECCAK256 DUP3 SWAP1 SSTORE MLOAD SWAP3 SWAP4 POP SWAP2 DUP4 SWAP1 DUP4 DUP2 DUP2 DUP2 DUP6 DUP8 GAS CALL SWAP3 POP POP POP RETURNDATASIZE DUP1 PUSH1 0x0 DUP2 EQ PUSH2 0x166B JUMPI PUSH1 0x40 MLOAD SWAP2 POP PUSH1 0x1F NOT PUSH1 0x3F RETURNDATASIZE ADD AND DUP3 ADD PUSH1 0x40 MSTORE RETURNDATASIZE DUP3 MSTORE RETURNDATASIZE PUSH1 0x0 PUSH1 0x20 DUP5 ADD RETURNDATACOPY PUSH2 0x1670 JUMP JUMPDEST PUSH1 0x60 SWAP2 POP JUMPDEST POP POP SWAP1 POP DUP1 PUSH2 0x1692 JUMPI PUSH1 0x40 MLOAD PUSH4 0x12171D83 PUSH1 0xE3 SHL DUP2 MSTORE PUSH1 0x4 ADD PUSH1 0x40 MLOAD DUP1 SWAP2 SUB SWAP1 REVERT JUMPDEST PUSH1 0x40 DUP1 MLOAD DUP6 DUP2 MSTORE PUSH1 0x20 DUP2 ADD DUP5 SWAP1 MSTORE DUP7 SWAP2 CALLER SWAP2 DUP11 SWAP2 PUSH32 0x631A8D93681FB7D140C811394A50F756C0907798A12BBD4A6282587FFD0B3E1D SWAP2 ADD PUSH1 0x40 MLOAD DUP1 SWAP2 SUB SWAP1 LOG4 POP POP POP POP POP POP PUSH2 0xFA5 PUSH1 0x1 PUSH1 0x0 SSTORE JUMP JUMPDEST PUSH2 0x16E9 PUSH2 0x308E JUMP JUMPDEST PUSH1 0x0 DUP3 DUP2 MSTORE PUSH1 0xA PUSH1 0x20 MSTORE PUSH1 0x40 SWAP1 KECCAK256 SLOAD PUSH1 0xFF AND PUSH2 0x1718 JUMPI PUSH1 0x40 MLOAD PUSH4 0x4792011 PUSH1 0xE4 SHL DUP2 MSTORE PUSH1 0x4 ADD PUSH1 0x40 MLOAD DUP1 SWAP2 SUB SWAP1 REVERT JUMPDEST PUSH1 0x0 DUP3 DUP2 MSTORE PUSH1 0x8 PUSH1 0x20 SWAP1 DUP2 MSTORE PUSH1 0x40 DUP1 DUP4 KECCAK256 PUSH1 0xD SWAP1 SWAP3 MSTORE SWAP1 SWAP2 KECCAK256 PUSH1 0x9 DUP2 ADD SLOAD PUSH1 0xFF AND PUSH2 0x1756 JUMPI PUSH1 0x40 MLOAD PUSH4 0x9B8CC475 PUSH1 0xE0 SHL DUP2 MSTORE PUSH1 0x4 ADD PUSH1 0x40 MLOAD DUP1 SWAP2 SUB SWAP1 REVERT JUMPDEST PUSH1 0x0 DUP5 DUP2 MSTORE PUSH1 0xE PUSH1 0x20 SWAP1 DUP2 MSTORE PUSH1 0x40 DUP1 DUP4 KECCAK256 CALLER DUP5 MSTORE SWAP1 SWAP2 MSTORE SWAP1 KECCAK256 SLOAD PUSH1 0xFF AND ISZERO PUSH2 0x1791 JUMPI PUSH1 0x40 MLOAD PUSH4 0x7C9A1CF9 PUSH1 0xE0 SHL DUP2 MSTORE PUSH1 0x4 ADD PUSH1 0x40 MLOAD DUP1 SWAP2 SUB SWAP1 REVERT JUMPDEST PUSH1 0x0 DUP1 PUSH1 0xA DUP5 ADD SLOAD PUSH1 0xFF AND PUSH1 0x1 DUP2 GT ISZERO PUSH2 0x17AD JUMPI PUSH2 0x17AD PUSH2 0x3485 JUMP JUMPDEST SUB PUSH2 0x17E5 JUMPI CALLER PUSH1 0x0 SWAP1 DUP2 MSTORE PUSH1 0x9 PUSH1 0x20 SWAP1 DUP2 MSTORE PUSH1 0x40 DUP1 DUP4 KECCAK256 DUP9 DUP5 MSTORE SWAP1 SWAP2 MSTORE SWAP1 KECCAK256 PUSH1 0x1 DUP2 ADD SLOAD DUP2 SLOAD PUSH2 0x17DD SWAP2 SWAP1 PUSH2 0x3AD5 JUMP JUMPDEST SWAP2 POP POP PUSH2 0x1837 JUMP JUMPDEST PUSH1 0x0 JUMPDEST PUSH1 0xB DUP5 ADD SLOAD DUP2 LT ISZERO PUSH2 0x1835 JUMPI CALLER PUSH1 0x0 SWAP1 DUP2 MSTORE PUSH1 0xC PUSH1 0x20 SWAP1 DUP2 MSTORE PUSH1 0x40 DUP1 DUP4 KECCAK256 DUP10 DUP5 MSTORE DUP3 MSTORE DUP1 DUP4 KECCAK256 DUP5 DUP5 MSTORE SWAP1 SWAP2 MSTORE SWAP1 KECCAK256 SLOAD PUSH2 0x1821 SWAP1 DUP4 PUSH2 0x3AD5 JUMP JUMPDEST SWAP2 POP DUP1 PUSH2 0x182D DUP2 PUSH2 0x3809 JUMP JUMPDEST SWAP2 POP POP PUSH2 0x17E8 JUMP JUMPDEST POP JUMPDEST DUP1 PUSH1 0x0 SUB PUSH2 0x1858 JUMPI PUSH1 0x40 MLOAD PUSH4 0x721C7C67 PUSH1 0xE1 SHL DUP2 MSTORE PUSH1 0x4 ADD PUSH1 0x40 MLOAD DUP1 SWAP2 SUB SWAP1 REVERT JUMPDEST PUSH1 0x0 DUP6 DUP2 MSTORE PUSH1 0xE PUSH1 0x20 SWAP1 DUP2 MSTORE PUSH1 0x40 DUP1 DUP4 KECCAK256 CALLER DUP5 MSTORE SWAP1 SWAP2 MSTORE SWAP1 KECCAK256 DUP1 SLOAD PUSH1 0xFF NOT AND PUSH1 0x1 OR SWAP1 SSTORE DUP4 ISZERO PUSH2 0x18A1 JUMPI DUP1 DUP3 PUSH1 0x7 ADD PUSH1 0x0 DUP3 DUP3 SLOAD PUSH2 0x1896 SWAP2 SWAP1 PUSH2 0x3AD5 JUMP JUMPDEST SWAP1 SWAP2 SSTORE POP PUSH2 0x18BB SWAP1 POP JUMP JUMPDEST DUP1 DUP3 PUSH1 0x8 ADD PUSH1 0x0 DUP3 DUP3 SLOAD PUSH2 0x18B5 SWAP2 SWAP1 PUSH2 0x3AD5 JUMP JUMPDEST SWAP1 SWAP2 SSTORE POP POP JUMPDEST PUSH1 0x40 DUP1 MLOAD DUP6 ISZERO ISZERO DUP2 MSTORE PUSH1 0x20 DUP2 ADD DUP4 SWAP1 MSTORE CALLER SWAP2 DUP8 SWAP2 PUSH32 0xCBDF6214089CBA887ECBF35A0B6A734589959C9763342C756BB2A80CA2BC9F6E SWAP2 ADD PUSH1 0x40 MLOAD DUP1 SWAP2 SUB SWAP1 LOG3 POP POP POP PUSH2 0xFA3 PUSH1 0x1 PUSH1 0x0 SSTORE JUMP JUMPDEST PUSH2 0x190F PUSH2 0x3034 JUMP JUMPDEST PUSH2 0x1919 PUSH1 0x0 PUSH2 0x30E7 JUMP JUMPDEST JUMP JUMPDEST PUSH1 0x0 PUSH1 0x1 PUSH1 0x2 SLOAD PUSH2 0x192C SWAP2 SWAP1 PUSH2 0x3AC2 JUMP JUMPDEST SWAP1 POP SWAP1 JUMP JUMPDEST PUSH2 0x1939 PUSH2 0x308E JUMP JUMPDEST PUSH1 0x0 DUP2 DUP2 MSTORE PUSH1 0xA PUSH1 0x20 MSTORE PUSH1 0x40 SWAP1 KECCAK256 SLOAD PUSH1 0xFF AND PUSH2 0x1968 JUMPI PUSH1 0x40 MLOAD PUSH4 0x4792011 PUSH1 0xE4 SHL DUP2 MSTORE PUSH1 0x4 ADD PUSH1 0x40 MLOAD DUP1 SWAP2 SUB SWAP1 REVERT JUMPDEST PUSH1 0x0 DUP2 DUP2 MSTORE PUSH1 0xD PUSH1 0x20 MSTORE PUSH1 0x40 SWAP1 KECCAK256 DUP1 SLOAD PUSH1 0x1 PUSH1 0x1 PUSH1 0xA0 SHL SUB AND PUSH2 0x199E JUMPI PUSH1 0x40 MLOAD PUSH4 0x5B1C11D3 PUSH1 0xE1 SHL DUP2 MSTORE PUSH1 0x4 ADD PUSH1 0x40 MLOAD DUP1 SWAP2 SUB SWAP1 REVERT JUMPDEST PUSH1 0x5 DUP2 ADD SLOAD PUSH1 0xFF AND ISZERO PUSH2 0x19C4 JUMPI PUSH1 0x40 MLOAD PUSH4 0x4EE891B PUSH1 0xE1 SHL DUP2 MSTORE PUSH1 0x4 ADD PUSH1 0x40 MLOAD DUP1 SWAP2 SUB SWAP1 REVERT JUMPDEST PUSH1 0x6 SLOAD DUP2 PUSH1 0x4 ADD SLOAD PUSH2 0x19D6 SWAP2 SWAP1 PUSH2 0x3AD5 JUMP JUMPDEST TIMESTAMP LT PUSH2 0x19F5 JUMPI PUSH1 0x40 MLOAD PUSH4 0x33CF429 PUSH1 0xE3 SHL DUP2 MSTORE PUSH1 0x4 ADD PUSH1 0x40 MLOAD DUP1 SWAP2 SUB SWAP1 REVERT JUMPDEST DUP1 PUSH1 0x3 ADD SLOAD CALLVALUE LT ISZERO PUSH2 0x1A1A JUMPI PUSH1 0x40 MLOAD PUSH4 0xE92C469F PUSH1 0xE0 SHL DUP2 MSTORE PUSH1 0x4 ADD PUSH1 0x40 MLOAD DUP1 SWAP2 SUB SWAP1 REVERT JUMPDEST PUSH1 0x5 DUP2 ADD DUP1 SLOAD PUSH1 0x1 PUSH1 0x1 PUSH1 0x1 PUSH1 0xA8 SHL SUB NOT SWAP1 SWAP2 AND PUSH2 0x100 CALLER SWAP1 DUP2 MUL SWAP2 SWAP1 SWAP2 OR DUP3 OR SWAP1 SWAP3 SSTORE CALLVALUE PUSH1 0x6 DUP5 ADD DUP2 SWAP1 SSTORE PUSH1 0x9 DUP5 ADD DUP1 SLOAD PUSH1 0xFF NOT AND SWAP1 SWAP3 OR SWAP1 SWAP2 SSTORE PUSH1 0x40 MLOAD SWAP1 DUP2 MSTORE DUP4 SWAP1 PUSH32 0xA0950096F857303FE1784282D8FAE72BA187C45F4243C57F82B99DF66B61787D SWAP1 PUSH1 0x20 ADD PUSH1 0x40 MLOAD DUP1 SWAP2 SUB SWAP1 LOG3 POP PUSH2 0xFA5 PUSH1 0x1 PUSH1 0x0 SSTORE JUMP JUMPDEST PUSH2 0x1A9E PUSH2 0x3034 JUMP JUMPDEST PUSH1 0x0 DUP3 DUP2 MSTORE PUSH1 0xA PUSH1 0x20 MSTORE PUSH1 0x40 SWAP1 KECCAK256 SLOAD PUSH1 0xFF AND PUSH2 0x1ACD JUMPI PUSH1 0x40 MLOAD PUSH4 0x4792011 PUSH1 0xE4 SHL DUP2 MSTORE PUSH1 0x4 ADD PUSH1 0x40 MLOAD DUP1 SWAP2 SUB SWAP1 REVERT JUMPDEST PUSH1 0x0 DUP3 DUP2 MSTORE PUSH1 0x8 PUSH1 0x20 MSTORE PUSH1 0x40 SWAP1 KECCAK256 PUSH1 0x1 PUSH1 0xA DUP3 ADD SLOAD PUSH1 0xFF AND PUSH1 0x1 DUP2 GT ISZERO PUSH2 0x1AF6 JUMPI PUSH2 0x1AF6 PUSH2 0x3485 JUMP JUMPDEST EQ PUSH2 0x1B14 JUMPI PUSH1 0x40 MLOAD PUSH4 0x7DBBB635 PUSH1 0xE0 SHL DUP2 MSTORE PUSH1 0x4 ADD PUSH1 0x40 MLOAD DUP1 SWAP2 SUB SWAP1 REVERT JUMPDEST PUSH1 0x8 DUP2 ADD SLOAD PUSH1 0xFF AND ISZERO PUSH2 0x1B3A JUMPI PUSH1 0x40 MLOAD PUSH4 0xB6AD70F3 PUSH1 0xE0 SHL DUP2 MSTORE PUSH1 0x4 ADD PUSH1 0x40 MLOAD DUP1 SWAP2 SUB SWAP1 REVERT JUMPDEST DUP1 PUSH1 0x3 ADD SLOAD TIMESTAMP LT ISZERO PUSH2 0x1B5F JUMPI PUSH1 0x40 MLOAD PUSH4 0xDCA075A3 PUSH1 0xE0 SHL DUP2 MSTORE PUSH1 0x4 ADD PUSH1 0x40 MLOAD DUP1 SWAP2 SUB SWAP1 REVERT JUMPDEST PUSH1 0xB DUP2 ADD SLOAD DUP3 LT PUSH2 0x1B83 JUMPI PUSH1 0x40 MLOAD PUSH4 0x2A719531 PUSH1 0xE0 SHL DUP2 MSTORE PUSH1 0x4 ADD PUSH1 0x40 MLOAD DUP1 SWAP2 SUB SWAP1 REVERT JUMPDEST PUSH1 0x8 DUP2 ADD DUP1 SLOAD PUSH1 0xFF NOT AND PUSH1 0x1 OR SWAP1 SSTORE PUSH1 0xC DUP2 ADD DUP3 SWAP1 SSTORE PUSH1 0x40 MLOAD DUP3 SWAP1 DUP5 SWAP1 PUSH32 0x3CA31337698E2A0EDDD144FC19B8AB540EC1B8682EB495B919C799C695914C09 SWAP1 PUSH1 0x0 SWAP1 LOG3 POP POP POP JUMP JUMPDEST PUSH2 0x1BD3 PUSH2 0x3139 JUMP JUMPDEST PUSH1 0x0 DUP3 DUP2 MSTORE PUSH1 0xA PUSH1 0x20 MSTORE PUSH1 0x40 SWAP1 KECCAK256 SLOAD PUSH1 0xFF AND PUSH2 0x1C02 JUMPI PUSH1 0x40 MLOAD PUSH4 0x4792011 PUSH1 0xE4 SHL DUP2 MSTORE PUSH1 0x4 ADD PUSH1 0x40 MLOAD DUP1 SWAP2 SUB SWAP1 REVERT JUMPDEST PUSH1 0x0 DUP3 DUP2 MSTORE PUSH1 0x8 PUSH1 0x20 DUP2 DUP2 MSTORE PUSH1 0x40 SWAP3 DUP4 SWAP1 KECCAK256 DUP4 MLOAD PUSH2 0x1C0 DUP2 ADD DUP6 MSTORE DUP2 SLOAD DUP2 MSTORE PUSH1 0x1 DUP1 DUP4 ADD SLOAD SWAP4 DUP3 ADD SWAP4 SWAP1 SWAP4 MSTORE PUSH1 0x2 DUP3 ADD SLOAD SWAP5 DUP2 ADD SWAP5 SWAP1 SWAP5 MSTORE PUSH1 0x3 DUP2 ADD SLOAD PUSH1 0x60 DUP6 ADD MSTORE PUSH1 0x4 DUP2 ADD SLOAD PUSH1 0x1 PUSH1 0x1 PUSH1 0xA0 SHL SUB AND PUSH1 0x80 DUP6 ADD MSTORE PUSH1 0x5 DUP2 ADD SLOAD PUSH1 0xA0 DUP6 ADD MSTORE PUSH1 0x6 DUP2 ADD SLOAD PUSH1 0xC0 DUP6 ADD MSTORE PUSH1 0x7 DUP2 ADD SLOAD PUSH1 0xE0 DUP6 ADD MSTORE SWAP2 DUP3 ADD SLOAD PUSH1 0xFF DUP1 DUP3 AND ISZERO ISZERO PUSH2 0x100 DUP1 DUP8 ADD SWAP2 SWAP1 SWAP2 MSTORE SWAP1 SWAP2 DIV DUP2 AND ISZERO ISZERO PUSH2 0x120 DUP6 ADD MSTORE PUSH1 0x9 DUP4 ADD SLOAD PUSH2 0x140 DUP6 ADD MSTORE PUSH1 0xA DUP4 ADD SLOAD PUSH2 0x160 DUP6 ADD SWAP3 SWAP2 AND SWAP1 DUP2 GT ISZERO PUSH2 0x1CBF JUMPI PUSH2 0x1CBF PUSH2 0x3485 JUMP JUMPDEST PUSH1 0x1 DUP2 GT ISZERO PUSH2 0x1CD0 JUMPI PUSH2 0x1CD0 PUSH2 0x3485 JUMP JUMPDEST DUP2 MSTORE PUSH1 0x20 ADD PUSH1 0xB DUP3 ADD DUP1 SLOAD DUP1 PUSH1 0x20 MUL PUSH1 0x20 ADD PUSH1 0x40 MLOAD SWAP1 DUP2 ADD PUSH1 0x40 MSTORE DUP1 SWAP3 SWAP2 SWAP1 DUP2 DUP2 MSTORE PUSH1 0x20 ADD PUSH1 0x0 SWAP1 JUMPDEST DUP3 DUP3 LT ISZERO PUSH2 0x1DA5 JUMPI DUP4 DUP3 SWAP1 PUSH1 0x0 MSTORE PUSH1 0x20 PUSH1 0x0 KECCAK256 ADD DUP1 SLOAD PUSH2 0x1D18 SWAP1 PUSH2 0x37B9 JUMP JUMPDEST DUP1 PUSH1 0x1F ADD PUSH1 0x20 DUP1 SWAP2 DIV MUL PUSH1 0x20 ADD PUSH1 0x40 MLOAD SWAP1 DUP2 ADD PUSH1 0x40 MSTORE DUP1 SWAP3 SWAP2 SWAP1 DUP2 DUP2 MSTORE PUSH1 0x20 ADD DUP3 DUP1 SLOAD PUSH2 0x1D44 SWAP1 PUSH2 0x37B9 JUMP JUMPDEST DUP1 ISZERO PUSH2 0x1D91 JUMPI DUP1 PUSH1 0x1F LT PUSH2 0x1D66 JUMPI PUSH2 0x100 DUP1 DUP4 SLOAD DIV MUL DUP4 MSTORE SWAP2 PUSH1 0x20 ADD SWAP2 PUSH2 0x1D91 JUMP JUMPDEST DUP3 ADD SWAP2 SWAP1 PUSH1 0x0 MSTORE PUSH1 0x20 PUSH1 0x0 KECCAK256 SWAP1 JUMPDEST DUP2 SLOAD DUP2 MSTORE SWAP1 PUSH1 0x1 ADD SWAP1 PUSH1 0x20 ADD DUP1 DUP4 GT PUSH2 0x1D74 JUMPI DUP3 SWAP1 SUB PUSH1 0x1F AND DUP3 ADD SWAP2 JUMPDEST POP POP POP POP POP DUP2 MSTORE PUSH1 0x20 ADD SWAP1 PUSH1 0x1 ADD SWAP1 PUSH2 0x1CF9 JUMP JUMPDEST POP POP POP POP DUP2 MSTORE PUSH1 0x20 ADD PUSH1 0xC DUP3 ADD SLOAD DUP2 MSTORE POP POP SWAP1 POP SWAP2 SWAP1 POP JUMP JUMPDEST PUSH2 0x1DC6 PUSH2 0x308E JUMP JUMPDEST PUSH1 0x0 DUP4 DUP2 MSTORE PUSH1 0xA PUSH1 0x20 MSTORE PUSH1 0x40 SWAP1 KECCAK256 SLOAD PUSH1 0xFF AND PUSH2 0x1DF5 JUMPI PUSH1 0x40 MLOAD PUSH4 0x4792011 PUSH1 0xE4 SHL DUP2 MSTORE PUSH1 0x4 ADD PUSH1 0x40 MLOAD DUP1 SWAP2 SUB SWAP1 REVERT JUMPDEST PUSH1 0x0 DUP4 DUP2 MSTORE PUSH1 0x8 PUSH1 0x20 DUP2 SWAP1 MSTORE PUSH1 0x40 SWAP1 SWAP2 KECCAK256 ADD SLOAD PUSH1 0xFF AND ISZERO PUSH2 0x1E29 JUMPI PUSH1 0x40 MLOAD PUSH4 0xB6AD70F3 PUSH1 0xE0 SHL DUP2 MSTORE PUSH1 0x4 ADD PUSH1 0x40 MLOAD DUP1 SWAP2 SUB SWAP1 REVERT JUMPDEST PUSH1 0x0 DUP4 DUP2 MSTORE PUSH1 0x8 PUSH1 0x20 MSTORE PUSH1 0x40 DUP2 KECCAK256 PUSH1 0xA ADD SLOAD PUSH1 0xFF AND PUSH1 0x1 DUP2 GT ISZERO PUSH2 0x1E4F JUMPI PUSH2 0x1E4F PUSH2 0x3485 JUMP JUMPDEST EQ PUSH2 0x1E6D JUMPI PUSH1 0x40 MLOAD PUSH4 0x7DBBB635 PUSH1 0xE0 SHL DUP2 MSTORE PUSH1 0x4 ADD PUSH1 0x40 MLOAD DUP1 SWAP2 SUB SWAP1 REVERT JUMPDEST DUP2 ISZERO DUP1 ISZERO PUSH2 0x1E79 JUMPI POP DUP1 ISZERO JUMPDEST ISZERO PUSH2 0x1E96 JUMPI PUSH1 0x40 MLOAD PUSH3 0x896067 PUSH1 0xE6 SHL DUP2 MSTORE PUSH1 0x4 ADD PUSH1 0x40 MLOAD DUP1 SWAP2 SUB SWAP1 REVERT JUMPDEST PUSH1 0x0 DUP4 DUP2 MSTORE PUSH1 0x8 PUSH1 0x20 MSTORE PUSH1 0x40 SWAP1 KECCAK256 PUSH1 0x3 ADD SLOAD TIMESTAMP LT PUSH2 0x1EC7 JUMPI PUSH1 0x40 MLOAD PUSH4 0x56C79831 PUSH1 0xE0 SHL DUP2 MSTORE PUSH1 0x4 ADD PUSH1 0x40 MLOAD DUP1 SWAP2 SUB SWAP1 REVERT JUMPDEST PUSH1 0x0 PUSH2 0x1ED3 DUP3 DUP5 PUSH2 0x3AD5 JUMP JUMPDEST SWAP1 POP PUSH1 0x0 PUSH2 0x2710 PUSH1 0x3 SLOAD DUP4 PUSH2 0x1EE8 SWAP2 SWAP1 PUSH2 0x3A89 JUMP JUMPDEST PUSH2 0x1EF2 SWAP2 SWAP1 PUSH2 0x3AA0 JUMP JUMPDEST SWAP1 POP PUSH1 0x0 PUSH2 0x1F00 DUP3 DUP5 PUSH2 0x3AC2 JUMP JUMPDEST SWAP1 POP DUP3 CALLVALUE EQ PUSH2 0x1F22 JUMPI PUSH1 0x40 MLOAD PUSH4 0x6992E1FF PUSH1 0xE0 SHL DUP2 MSTORE PUSH1 0x4 ADD PUSH1 0x40 MLOAD DUP1 SWAP2 SUB SWAP1 REVERT JUMPDEST CALLER PUSH1 0x0 SWAP1 DUP2 MSTORE PUSH1 0x9 PUSH1 0x20 SWAP1 DUP2 MSTORE PUSH1 0x40 DUP1 DUP4 KECCAK256 DUP10 DUP5 MSTORE SWAP1 SWAP2 MSTORE DUP2 KECCAK256 DUP1 SLOAD DUP8 SWAP3 SWAP1 PUSH2 0x1F4C SWAP1 DUP5 SWAP1 PUSH2 0x3AD5 JUMP JUMPDEST SWAP1 SWAP2 SSTORE POP POP CALLER PUSH1 0x0 SWAP1 DUP2 MSTORE PUSH1 0x9 PUSH1 0x20 SWAP1 DUP2 MSTORE PUSH1 0x40 DUP1 DUP4 KECCAK256 DUP10 DUP5 MSTORE SWAP1 SWAP2 MSTORE DUP2 KECCAK256 PUSH1 0x1 ADD DUP1 SLOAD DUP7 SWAP3 SWAP1 PUSH2 0x1F7E SWAP1 DUP5 SWAP1 PUSH2 0x3AD5 JUMP JUMPDEST SWAP1 SWAP2 SSTORE POP POP PUSH1 0x0 DUP7 DUP2 MSTORE PUSH1 0x8 PUSH1 0x20 MSTORE PUSH1 0x40 DUP2 KECCAK256 PUSH1 0x5 ADD DUP1 SLOAD DUP8 SWAP3 SWAP1 PUSH2 0x1FA4 SWAP1 DUP5 SWAP1 PUSH2 0x3AD5 JUMP JUMPDEST SWAP1 SWAP2 SSTORE POP POP PUSH1 0x0 DUP7 DUP2 MSTORE PUSH1 0x8 PUSH1 0x20 MSTORE PUSH1 0x40 DUP2 KECCAK256 PUSH1 0x6 ADD DUP1 SLOAD DUP7 SWAP3 SWAP1 PUSH2 0x1FCA SWAP1 DUP5 SWAP1 PUSH2 0x3AD5 JUMP JUMPDEST SWAP1 SWAP2 SSTORE POP POP PUSH1 0x0 DUP7 DUP2 MSTORE PUSH1 0x8 PUSH1 0x20 MSTORE PUSH1 0x40 DUP2 KECCAK256 PUSH1 0x7 ADD DUP1 SLOAD DUP4 SWAP3 SWAP1 PUSH2 0x1FF0 SWAP1 DUP5 SWAP1 PUSH2 0x3AD5 JUMP JUMPDEST SWAP3 POP POP DUP2 SWAP1 SSTORE POP DUP2 PUSH1 0x4 PUSH1 0x0 DUP3 DUP3 SLOAD PUSH2 0x2009 SWAP2 SWAP1 PUSH2 0x3AD5 JUMP JUMPDEST SWAP1 SWAP2 SSTORE POP POP PUSH1 0x40 DUP1 MLOAD DUP7 DUP2 MSTORE PUSH1 0x20 DUP2 ADD DUP7 SWAP1 MSTORE SWAP1 DUP2 ADD DUP5 SWAP1 MSTORE CALLER SWAP1 DUP8 SWAP1 PUSH32 0xD881B7A03ADAB99450E4654C7E5D438F97AA23838978D00E2A3A3F8FB1EA52EF SWAP1 PUSH1 0x60 ADD PUSH1 0x40 MLOAD DUP1 SWAP2 SUB SWAP1 LOG3 POP POP POP PUSH2 0x2060 PUSH1 0x1 PUSH1 0x0 SSTORE JUMP JUMPDEST POP POP POP JUMP JUMPDEST PUSH1 0x0 DUP3 DUP2 MSTORE PUSH1 0xB PUSH1 0x20 SWAP1 DUP2 MSTORE PUSH1 0x40 DUP1 DUP4 KECCAK256 DUP5 DUP5 MSTORE SWAP1 SWAP2 MSTORE SWAP1 KECCAK256 SLOAD JUMPDEST SWAP3 SWAP2 POP POP JUMP JUMPDEST PUSH2 0x208E PUSH2 0x3034 JUMP JUMPDEST PUSH1 0x6 SSTORE JUMP JUMPDEST PUSH2 0x209B PUSH2 0x308E JUMP JUMPDEST PUSH1 0x0 DUP2 DUP2 MSTORE PUSH1 0xA PUSH1 0x20 MSTORE PUSH1 0x40 SWAP1 KECCAK256 SLOAD PUSH1 0xFF AND PUSH2 0x20CA JUMPI PUSH1 0x40 MLOAD PUSH4 0x4792011 PUSH1 0xE4 SHL DUP2 MSTORE PUSH1 0x4 ADD PUSH1 0x40 MLOAD DUP1 SWAP2 SUB SWAP1 REVERT JUMPDEST PUSH1 0x0 DUP2 DUP2 MSTORE PUSH1 0x8 PUSH1 0x20 DUP2 SWAP1 MSTORE PUSH1 0x40 SWAP1 SWAP2 KECCAK256 ADD SLOAD PUSH1 0xFF AND PUSH2 0x20FD JUMPI PUSH1 0x40 MLOAD PUSH4 0x333C23AD PUSH1 0xE1 SHL DUP2 MSTORE PUSH1 0x4 ADD PUSH1 0x40 MLOAD DUP1 SWAP2 SUB SWAP1 REVERT JUMPDEST PUSH1 0x0 DUP2 DUP2 MSTORE PUSH1 0x8 PUSH1 0x20 MSTORE PUSH1 0x40 DUP2 KECCAK256 PUSH1 0xA ADD SLOAD PUSH1 0xFF AND PUSH1 0x1 DUP2 GT ISZERO PUSH2 0x2123 JUMPI PUSH2 0x2123 PUSH2 0x3485 JUMP JUMPDEST EQ PUSH2 0x2141 JUMPI PUSH1 0x40 MLOAD PUSH4 0x7DBBB635 PUSH1 0xE0 SHL DUP2 MSTORE PUSH1 0x4 ADD PUSH1 0x40 MLOAD DUP1 SWAP2 SUB SWAP1 REVERT JUMPDEST CALLER PUSH1 0x0 SWAP1 DUP2 MSTORE PUSH1 0x9 PUSH1 0x20 SWAP1 DUP2 MSTORE PUSH1 0x40 DUP1 DUP4 KECCAK256 DUP5 DUP5 MSTORE SWAP1 SWAP2 MSTORE SWAP1 KECCAK256 DUP1 SLOAD ISZERO DUP1 ISZERO PUSH2 0x216C JUMPI POP PUSH1 0x1 DUP2 ADD SLOAD ISZERO JUMPDEST ISZERO PUSH2 0x218A JUMPI PUSH1 0x40 MLOAD PUSH4 0xF10CC937 PUSH1 0xE0 SHL DUP2 MSTORE PUSH1 0x4 ADD PUSH1 0x40 MLOAD DUP1 SWAP2 SUB SWAP1 REVERT JUMPDEST PUSH1 0x0 DUP3 DUP2 MSTORE PUSH1 0x8 PUSH1 0x20 DUP2 SWAP1 MSTORE PUSH1 0x40 DUP3 KECCAK256 SWAP1 DUP2 ADD SLOAD SWAP1 SWAP2 SWAP1 PUSH2 0x100 SWAP1 DIV PUSH1 0xFF AND ISZERO PUSH2 0x21DD JUMPI DUP3 SLOAD ISZERO PUSH2 0x21D8 JUMPI PUSH1 0x5 DUP3 ADD SLOAD PUSH1 0x7 DUP4 ADD SLOAD DUP5 SLOAD PUSH2 0x21CB SWAP2 SWAP1 PUSH2 0x3A89 JUMP JUMPDEST PUSH2 0x21D5 SWAP2 SWAP1 PUSH2 0x3AA0 JUMP JUMPDEST SWAP1 POP JUMPDEST PUSH2 0x220D JUMP JUMPDEST PUSH1 0x1 DUP4 ADD SLOAD ISZERO PUSH2 0x220D JUMPI DUP2 PUSH1 0x6 ADD SLOAD DUP3 PUSH1 0x7 ADD SLOAD DUP5 PUSH1 0x1 ADD SLOAD PUSH2 0x2200 SWAP2 SWAP1 PUSH2 0x3A89 JUMP JUMPDEST PUSH2 0x220A SWAP2 SWAP1 PUSH2 0x3AA0 JUMP JUMPDEST SWAP1 POP JUMPDEST DUP3 SLOAD PUSH1 0x1 DUP1 DUP6 ADD SLOAD PUSH1 0x40 DUP1 MLOAD DUP1 DUP3 ADD DUP3 MSTORE PUSH1 0x0 DUP1 DUP3 MSTORE PUSH1 0x20 DUP1 DUP4 ADD DUP3 DUP2 MSTORE CALLER DUP4 MSTORE PUSH1 0x9 DUP3 MSTORE DUP5 DUP4 KECCAK256 DUP13 DUP5 MSTORE SWAP1 SWAP2 MSTORE SWAP3 SWAP1 KECCAK256 SWAP1 MLOAD DUP2 SSTORE SWAP1 MLOAD SWAP3 ADD SWAP2 SWAP1 SWAP2 SSTORE DUP3 ISZERO PUSH2 0x22BB JUMPI PUSH1 0x40 MLOAD PUSH1 0x0 SWAP1 CALLER SWAP1 DUP6 SWAP1 DUP4 DUP2 DUP2 DUP2 DUP6 DUP8 GAS CALL SWAP3 POP POP POP RETURNDATASIZE DUP1 PUSH1 0x0 DUP2 EQ PUSH2 0x2292 JUMPI PUSH1 0x40 MLOAD SWAP2 POP PUSH1 0x1F NOT PUSH1 0x3F RETURNDATASIZE ADD AND DUP3 ADD PUSH1 0x40 MSTORE RETURNDATASIZE DUP3 MSTORE RETURNDATASIZE PUSH1 0x0 PUSH1 0x20 DUP5 ADD RETURNDATACOPY PUSH2 0x2297 JUMP JUMPDEST PUSH1 0x60 SWAP2 POP JUMPDEST POP POP SWAP1 POP DUP1 PUSH2 0x22B9 JUMPI PUSH1 0x40 MLOAD PUSH4 0x12171D83 PUSH1 0xE3 SHL DUP2 MSTORE PUSH1 0x4 ADD PUSH1 0x40 MLOAD DUP1 SWAP2 SUB SWAP1 REVERT JUMPDEST POP JUMPDEST PUSH1 0x40 DUP1 MLOAD DUP4 DUP2 MSTORE PUSH1 0x20 DUP2 ADD DUP4 SWAP1 MSTORE SWAP1 DUP2 ADD DUP5 SWAP1 MSTORE CALLER SWAP1 DUP8 SWAP1 PUSH32 0x440937B7141B89352CC35E21B147CA3D8AEBEF76CB9627BF3DEA041ECF30889D SWAP1 PUSH1 0x60 ADD PUSH1 0x40 MLOAD DUP1 SWAP2 SUB SWAP1 LOG3 POP POP POP POP POP PUSH2 0xFA5 PUSH1 0x1 PUSH1 0x0 SSTORE JUMP JUMPDEST PUSH2 0x2382 PUSH1 0x40 MLOAD DUP1 PUSH2 0x160 ADD PUSH1 0x40 MSTORE DUP1 PUSH1 0x0 PUSH1 0x1 PUSH1 0x1 PUSH1 0xA0 SHL SUB AND DUP2 MSTORE PUSH1 0x20 ADD PUSH1 0x0 DUP2 MSTORE PUSH1 0x20 ADD PUSH1 0x0 DUP2 MSTORE PUSH1 0x20 ADD PUSH1 0x0 DUP2 MSTORE PUSH1 0x20 ADD PUSH1 0x0 DUP2 MSTORE PUSH1 0x20 ADD PUSH1 0x0 ISZERO ISZERO DUP2 MSTORE PUSH1 0x20 ADD PUSH1 0x0 PUSH1 0x1 PUSH1 0x1 PUSH1 0xA0 SHL SUB AND DUP2 MSTORE PUSH1 0x20 ADD PUSH1 0x0 DUP2 MSTORE PUSH1 0x20 ADD PUSH1 0x0 DUP2 MSTORE PUSH1 0x20 ADD PUSH1 0x0 DUP2 MSTORE PUSH1 0x20 ADD PUSH1 0x0 ISZERO ISZERO DUP2 MSTORE POP SWAP1 JUMP JUMPDEST POP PUSH1 0x0 SWAP1 DUP2 MSTORE PUSH1 0xD PUSH1 0x20 SWAP1 DUP2 MSTORE PUSH1 0x40 SWAP2 DUP3 SWAP1 KECCAK256 DUP3 MLOAD PUSH2 0x160 DUP2 ADD DUP5 MSTORE DUP2 SLOAD PUSH1 0x1 PUSH1 0x1 PUSH1 0xA0 SHL SUB SWAP1 DUP2 AND DUP3 MSTORE PUSH1 0x1 DUP4 ADD SLOAD SWAP4 DUP3 ADD SWAP4 SWAP1 SWAP4 MSTORE PUSH1 0x2 DUP3 ADD SLOAD SWAP4 DUP2 ADD SWAP4 SWAP1 SWAP4 MSTORE PUSH1 0x3 DUP2 ADD SLOAD PUSH1 0x60 DUP5 ADD MSTORE PUSH1 0x4 DUP2 ADD SLOAD PUSH1 0x80 DUP5 ADD MSTORE PUSH1 0x5 DUP2 ADD SLOAD PUSH1 0xFF DUP1 DUP3 AND ISZERO ISZERO PUSH1 0xA0 DUP7 ADD MSTORE PUSH2 0x100 SWAP2 DUP3 SWAP1 DIV SWAP1 SWAP4 AND PUSH1 0xC0 DUP6 ADD MSTORE PUSH1 0x6 DUP3 ADD SLOAD PUSH1 0xE0 DUP6 ADD MSTORE PUSH1 0x7 DUP3 ADD SLOAD SWAP1 DUP5 ADD MSTORE PUSH1 0x8 DUP2 ADD SLOAD PUSH2 0x120 DUP5 ADD MSTORE PUSH1 0x9 ADD SLOAD AND ISZERO ISZERO PUSH2 0x140 DUP3 ADD MSTORE SWAP1 JUMP JUMPDEST PUSH1 0x0 TIMESTAMP DUP3 GT PUSH2 0x2449 JUMPI PUSH1 0x40 MLOAD PUSH4 0xB7D09497 PUSH1 0xE0 SHL DUP2 MSTORE PUSH1 0x4 ADD PUSH1 0x40 MLOAD DUP1 SWAP2 SUB SWAP1 REVERT JUMPDEST DUP3 PUSH1 0x0 SUB PUSH2 0x2469 JUMPI PUSH1 0x40 MLOAD PUSH3 0xBFC921 PUSH1 0xE0 SHL DUP2 MSTORE PUSH1 0x4 ADD PUSH1 0x40 MLOAD DUP1 SWAP2 SUB SWAP1 REVERT JUMPDEST DUP4 PUSH1 0x0 SUB PUSH2 0x248A JUMPI PUSH1 0x40 MLOAD PUSH4 0x68A3A6C3 PUSH1 0xE1 SHL DUP2 MSTORE PUSH1 0x4 ADD PUSH1 0x40 MLOAD DUP1 SWAP2 SUB SWAP1 REVERT JUMPDEST PUSH1 0x2 DUP1 SLOAD PUSH1 0x0 SWAP2 DUP3 PUSH2 0x249B DUP4 PUSH2 0x3809 JUMP JUMPDEST SWAP2 SWAP1 POP SSTORE SWAP1 POP PUSH1 0x40 MLOAD DUP1 PUSH2 0x1C0 ADD PUSH1 0x40 MSTORE DUP1 DUP3 DUP2 MSTORE PUSH1 0x20 ADD DUP7 DUP2 MSTORE PUSH1 0x20 ADD DUP6 DUP2 MSTORE PUSH1 0x20 ADD DUP5 DUP2 MSTORE PUSH1 0x20 ADD CALLER PUSH1 0x1 PUSH1 0x1 PUSH1 0xA0 SHL SUB AND DUP2 MSTORE PUSH1 0x20 ADD PUSH1 0x0 DUP2 MSTORE PUSH1 0x20 ADD PUSH1 0x0 DUP2 MSTORE PUSH1 0x20 ADD PUSH1 0x0 DUP2 MSTORE PUSH1 0x20 ADD PUSH1 0x0 ISZERO ISZERO DUP2 MSTORE PUSH1 0x20 ADD PUSH1 0x0 ISZERO ISZERO DUP2 MSTORE PUSH1 0x20 ADD TIMESTAMP DUP2 MSTORE PUSH1 0x20 ADD PUSH1 0x0 PUSH1 0x1 DUP2 GT ISZERO PUSH2 0x2514 JUMPI PUSH2 0x2514 PUSH2 0x3485 JUMP JUMPDEST DUP2 MSTORE PUSH1 0x20 ADD PUSH1 0x0 PUSH1 0x40 MLOAD SWAP1 DUP1 DUP3 MSTORE DUP1 PUSH1 0x20 MUL PUSH1 0x20 ADD DUP3 ADD PUSH1 0x40 MSTORE DUP1 ISZERO PUSH2 0x254E JUMPI DUP2 PUSH1 0x20 ADD JUMPDEST PUSH1 0x60 DUP2 MSTORE PUSH1 0x20 ADD SWAP1 PUSH1 0x1 SWAP1 SUB SWAP1 DUP2 PUSH2 0x2539 JUMPI SWAP1 POP JUMPDEST POP DUP2 MSTORE PUSH1 0x0 PUSH1 0x20 SWAP2 DUP3 ADD DUP2 SWAP1 MSTORE DUP4 DUP2 MSTORE PUSH1 0x8 DUP1 DUP4 MSTORE PUSH1 0x40 SWAP2 DUP3 SWAP1 KECCAK256 DUP5 MLOAD DUP2 SSTORE SWAP3 DUP5 ADD MLOAD PUSH1 0x1 DUP1 DUP6 ADD SWAP2 SWAP1 SWAP2 SSTORE SWAP2 DUP5 ADD MLOAD PUSH1 0x2 DUP5 ADD SSTORE PUSH1 0x60 DUP5 ADD MLOAD PUSH1 0x3 DUP5 ADD SSTORE PUSH1 0x80 DUP5 ADD MLOAD PUSH1 0x4 DUP5 ADD DUP1 SLOAD PUSH1 0x1 PUSH1 0x1 PUSH1 0xA0 SHL SUB NOT AND PUSH1 0x1 PUSH1 0x1 PUSH1 0xA0 SHL SUB SWAP1 SWAP3 AND SWAP2 SWAP1 SWAP2 OR SWAP1 SSTORE PUSH1 0xA0 DUP5 ADD MLOAD PUSH1 0x5 DUP5 ADD SSTORE PUSH1 0xC0 DUP5 ADD MLOAD PUSH1 0x6 DUP5 ADD SSTORE PUSH1 0xE0 DUP5 ADD MLOAD PUSH1 0x7 DUP5 ADD SSTORE PUSH2 0x100 DUP1 DUP6 ADD MLOAD SWAP2 DUP5 ADD DUP1 SLOAD PUSH2 0x120 DUP8 ADD MLOAD PUSH2 0xFFFF NOT SWAP1 SWAP2 AND SWAP4 ISZERO ISZERO PUSH2 0xFF00 NOT AND SWAP4 SWAP1 SWAP4 OR SWAP3 ISZERO ISZERO SWAP1 SWAP2 MUL SWAP2 SWAP1 SWAP2 OR SWAP1 SSTORE PUSH2 0x140 DUP4 ADD MLOAD PUSH1 0x9 DUP4 ADD SSTORE PUSH2 0x160 DUP4 ADD MLOAD PUSH1 0xA DUP4 ADD DUP1 SLOAD SWAP2 SWAP3 SWAP1 SWAP2 PUSH1 0xFF NOT AND SWAP1 DUP4 DUP2 DUP2 GT ISZERO PUSH2 0x2633 JUMPI PUSH2 0x2633 PUSH2 0x3485 JUMP JUMPDEST MUL OR SWAP1 SSTORE POP PUSH2 0x180 DUP3 ADD MLOAD DUP1 MLOAD PUSH2 0x2654 SWAP2 PUSH1 0xB DUP5 ADD SWAP2 PUSH1 0x20 SWAP1 SWAP2 ADD SWAP1 PUSH2 0x31C6 JUMP JUMPDEST POP PUSH2 0x1A0 SWAP2 SWAP1 SWAP2 ADD MLOAD PUSH1 0xC SWAP1 SWAP2 ADD SSTORE PUSH1 0x0 DUP2 DUP2 MSTORE PUSH1 0xA PUSH1 0x20 SWAP1 DUP2 MSTORE PUSH1 0x40 SWAP2 DUP3 SWAP1 KECCAK256 DUP1 SLOAD PUSH1 0xFF NOT AND PUSH1 0x1 OR SWAP1 SSTORE DUP2 MLOAD DUP7 DUP2 MSTORE SWAP1 DUP2 ADD DUP6 SWAP1 MSTORE CALLER DUP2 DUP4 ADD MSTORE SWAP1 MLOAD DUP7 SWAP2 DUP4 SWAP2 PUSH32 0xA47F2B648FE6FEE6023B9227628B751649F165F204C8A6E75D3146ACA5B1B8A6 SWAP2 PUSH1 0x60 SWAP1 DUP3 SWAP1 SUB ADD SWAP1 LOG3 SWAP5 SWAP4 POP POP POP POP JUMP JUMPDEST PUSH1 0x0 DUP3 DUP2 MSTORE PUSH1 0xA PUSH1 0x20 MSTORE PUSH1 0x40 DUP2 KECCAK256 SLOAD PUSH1 0xFF AND PUSH2 0x26F8 JUMPI PUSH1 0x40 MLOAD PUSH4 0x4792011 PUSH1 0xE4 SHL DUP2 MSTORE PUSH1 0x4 ADD PUSH1 0x40 MLOAD DUP1 SWAP2 SUB SWAP1 REVERT JUMPDEST PUSH1 0x0 DUP4 DUP2 MSTORE PUSH1 0x8 PUSH1 0x20 MSTORE PUSH1 0x40 DUP2 KECCAK256 SWAP1 DUP1 PUSH1 0xA DUP4 ADD SLOAD PUSH1 0xFF AND PUSH1 0x1 DUP2 GT ISZERO PUSH2 0x2721 JUMPI PUSH2 0x2721 PUSH2 0x3485 JUMP JUMPDEST SUB PUSH2 0x2762 JUMPI PUSH1 0x1 PUSH1 0x1 PUSH1 0xA0 SHL SUB DUP5 AND PUSH1 0x0 SWAP1 DUP2 MSTORE PUSH1 0x9 PUSH1 0x20 SWAP1 DUP2 MSTORE PUSH1 0x40 DUP1 DUP4 KECCAK256 DUP9 DUP5 MSTORE SWAP1 SWAP2 MSTORE SWAP1 KECCAK256 PUSH1 0x1 DUP2 ADD SLOAD DUP2 SLOAD PUSH2 0x275A SWAP2 SWAP1 PUSH2 0x3AD5 JUMP JUMPDEST SWAP2 POP POP PUSH2 0x27BD JUMP JUMPDEST PUSH1 0x0 JUMPDEST PUSH1 0xB DUP4 ADD SLOAD DUP2 LT ISZERO PUSH2 0x27BB JUMPI PUSH1 0x1 PUSH1 0x1 PUSH1 0xA0 SHL SUB DUP6 AND PUSH1 0x0 SWAP1 DUP2 MSTORE PUSH1 0xC PUSH1 0x20 SWAP1 DUP2 MSTORE PUSH1 0x40 DUP1 DUP4 KECCAK256 DUP10 DUP5 MSTORE DUP3 MSTORE DUP1 DUP4 KECCAK256 DUP5 DUP5 MSTORE SWAP1 SWAP2 MSTORE SWAP1 KECCAK256 SLOAD PUSH2 0x27A7 SWAP1 DUP4 PUSH2 0x3AD5 JUMP JUMPDEST SWAP2 POP DUP1 PUSH2 0x27B3 DUP2 PUSH2 0x3809 JUMP JUMPDEST SWAP2 POP POP PUSH2 0x2765 JUMP JUMPDEST POP JUMPDEST SWAP5 SWAP4 POP POP POP POP JUMP JUMPDEST PUSH2 0x27CD PUSH2 0x3034 JUMP JUMPDEST PUSH1 0x7 SSTORE JUMP JUMPDEST PUSH2 0x27DA PUSH2 0x308E JUMP JUMPDEST PUSH1 0x0 DUP3 DUP2 MSTORE PUSH1 0xA PUSH1 0x20 MSTORE PUSH1 0x40 SWAP1 KECCAK256 SLOAD PUSH1 0xFF AND PUSH2 0x2809 JUMPI PUSH1 0x40 MLOAD PUSH4 0x4792011 PUSH1 0xE4 SHL DUP2 MSTORE PUSH1 0x4 ADD PUSH1 0x40 MLOAD DUP1 SWAP2 SUB SWAP1 REVERT JUMPDEST PUSH1 0x0 DUP3 DUP2 MSTORE PUSH1 0x8 PUSH1 0x20 MSTORE PUSH1 0x40 DUP2 KECCAK256 SWAP1 PUSH1 0xA DUP3 ADD SLOAD PUSH1 0xFF AND PUSH1 0x1 DUP2 GT ISZERO PUSH2 0x2831 JUMPI PUSH2 0x2831 PUSH2 0x3485 JUMP JUMPDEST EQ PUSH2 0x284F JUMPI PUSH1 0x40 MLOAD PUSH4 0x7DBBB635 PUSH1 0xE0 SHL DUP2 MSTORE PUSH1 0x4 ADD PUSH1 0x40 MLOAD DUP1 SWAP2 SUB SWAP1 REVERT JUMPDEST PUSH1 0x8 DUP2 ADD SLOAD PUSH1 0xFF AND ISZERO PUSH2 0x2875 JUMPI PUSH1 0x40 MLOAD PUSH4 0xB6AD70F3 PUSH1 0xE0 SHL DUP2 MSTORE PUSH1 0x4 ADD PUSH1 0x40 MLOAD DUP1 SWAP2 SUB SWAP1 REVERT JUMPDEST DUP1 PUSH1 0x3 ADD SLOAD TIMESTAMP LT ISZERO PUSH2 0x289A JUMPI PUSH1 0x40 MLOAD PUSH4 0xDCA075A3 PUSH1 0xE0 SHL DUP2 MSTORE PUSH1 0x4 ADD PUSH1 0x40 MLOAD DUP1 SWAP2 SUB SWAP1 REVERT JUMPDEST PUSH1 0x0 DUP4 DUP2 MSTORE PUSH1 0xD PUSH1 0x20 MSTORE PUSH1 0x40 SWAP1 KECCAK256 SLOAD PUSH1 0x1 PUSH1 0x1 PUSH1 0xA0 SHL SUB AND ISZERO PUSH2 0x28D0 JUMPI PUSH1 0x40 MLOAD PUSH4 0xECCF800F PUSH1 0xE0 SHL DUP2 MSTORE PUSH1 0x4 ADD PUSH1 0x40 MLOAD DUP1 SWAP2 SUB SWAP1 REVERT JUMPDEST PUSH1 0x5 SLOAD CALLVALUE LT ISZERO PUSH2 0x28F3 JUMPI PUSH1 0x40 MLOAD PUSH4 0xE92C469F PUSH1 0xE0 SHL DUP2 MSTORE PUSH1 0x4 ADD PUSH1 0x40 MLOAD DUP1 SWAP2 SUB SWAP1 REVERT JUMPDEST PUSH1 0x40 MLOAD DUP1 PUSH2 0x160 ADD PUSH1 0x40 MSTORE DUP1 CALLER PUSH1 0x1 PUSH1 0x1 PUSH1 0xA0 SHL SUB AND DUP2 MSTORE PUSH1 0x20 ADD DUP4 DUP2 MSTORE PUSH1 0x20 ADD PUSH1 0x0 DUP2 MSTORE PUSH1 0x20 ADD CALLVALUE DUP2 MSTORE PUSH1 0x20 ADD TIMESTAMP DUP2 MSTORE PUSH1 0x20 ADD PUSH1 0x0 ISZERO ISZERO DUP2 MSTORE PUSH1 0x20 ADD PUSH1 0x0 PUSH1 0x1 PUSH1 0x1 PUSH1 0xA0 SHL SUB AND DUP2 MSTORE PUSH1 0x20 ADD PUSH1 0x0 DUP2 MSTORE PUSH1 0x20 ADD PUSH1 0x0 DUP2 MSTORE PUSH1 0x20 ADD PUSH1 0x0 DUP2 MSTORE PUSH1 0x20 ADD PUSH1 0x0 ISZERO ISZERO DUP2 MSTORE POP PUSH1 0xD PUSH1 0x0 DUP6 DUP2 MSTORE PUSH1 0x20 ADD SWAP1 DUP2 MSTORE PUSH1 0x20 ADD PUSH1 0x0 KECCAK256 PUSH1 0x0 DUP3 ADD MLOAD DUP2 PUSH1 0x0 ADD PUSH1 0x0 PUSH2 0x100 EXP DUP2 SLOAD DUP2 PUSH1 0x1 PUSH1 0x1 PUSH1 0xA0 SHL SUB MUL NOT AND SWAP1 DUP4 PUSH1 0x1 PUSH1 0x1 PUSH1 0xA0 SHL SUB AND MUL OR SWAP1 SSTORE POP PUSH1 0x20 DUP3 ADD MLOAD DUP2 PUSH1 0x1 ADD SSTORE PUSH1 0x40 DUP3 ADD MLOAD DUP2 PUSH1 0x2 ADD SSTORE PUSH1 0x60 DUP3 ADD MLOAD DUP2 PUSH1 0x3 ADD SSTORE PUSH1 0x80 DUP3 ADD MLOAD DUP2 PUSH1 0x4 ADD SSTORE PUSH1 0xA0 DUP3 ADD MLOAD DUP2 PUSH1 0x5 ADD PUSH1 0x0 PUSH2 0x100 EXP DUP2 SLOAD DUP2 PUSH1 0xFF MUL NOT AND SWAP1 DUP4 ISZERO ISZERO MUL OR SWAP1 SSTORE POP PUSH1 0xC0 DUP3 ADD MLOAD DUP2 PUSH1 0x5 ADD PUSH1 0x1 PUSH2 0x100 EXP DUP2 SLOAD DUP2 PUSH1 0x1 PUSH1 0x1 PUSH1 0xA0 SHL SUB MUL NOT AND SWAP1 DUP4 PUSH1 0x1 PUSH1 0x1 PUSH1 0xA0 SHL SUB AND MUL OR SWAP1 SSTORE POP PUSH1 0xE0 DUP3 ADD MLOAD DUP2 PUSH1 0x6 ADD SSTORE PUSH2 0x100 DUP3 ADD MLOAD DUP2 PUSH1 0x7 ADD SSTORE PUSH2 0x120 DUP3 ADD MLOAD DUP2 PUSH1 0x8 ADD SSTORE PUSH2 0x140 DUP3 ADD MLOAD DUP2 PUSH1 0x9 ADD PUSH1 0x0 PUSH2 0x100 EXP DUP2 SLOAD DUP2 PUSH1 0xFF MUL NOT AND SWAP1 DUP4 ISZERO ISZERO MUL OR SWAP1 SSTORE POP SWAP1 POP POP CALLER PUSH1 0x1 PUSH1 0x1 PUSH1 0xA0 SHL SUB AND DUP4 PUSH32 0x338AE4575885EA06228826734BF428D3F476DD8CAF6D9323B7F354B8C55813D DUP5 PUSH1 0x0 CALLVALUE PUSH1 0x40 MLOAD PUSH2 0x14CE SWAP4 SWAP3 SWAP2 SWAP1 SWAP3 DUP4 MSTORE PUSH1 0x20 DUP4 ADD SWAP2 SWAP1 SWAP2 MSTORE PUSH1 0x40 DUP3 ADD MSTORE PUSH1 0x60 ADD SWAP1 JUMP JUMPDEST PUSH2 0x2AAD PUSH2 0x3034 JUMP JUMPDEST PUSH1 0x1 PUSH1 0x1 PUSH1 0xA0 SHL SUB DUP2 AND PUSH2 0x2B12 JUMPI PUSH1 0x40 MLOAD PUSH3 0x461BCD PUSH1 0xE5 SHL DUP2 MSTORE PUSH1 0x20 PUSH1 0x4 DUP3 ADD MSTORE PUSH1 0x26 PUSH1 0x24 DUP3 ADD MSTORE PUSH32 0x4F776E61626C653A206E6577206F776E657220697320746865207A65726F2061 PUSH1 0x44 DUP3 ADD MSTORE PUSH6 0x646472657373 PUSH1 0xD0 SHL PUSH1 0x64 DUP3 ADD MSTORE PUSH1 0x84 ADD PUSH2 0xC20 JUMP JUMPDEST PUSH2 0xFA5 DUP2 PUSH2 0x30E7 JUMP JUMPDEST PUSH2 0x2B23 PUSH2 0x308E JUMP JUMPDEST PUSH1 0x0 DUP2 DUP2 MSTORE PUSH1 0xA PUSH1 0x20 MSTORE PUSH1 0x40 SWAP1 KECCAK256 SLOAD PUSH1 0xFF AND PUSH2 0x2B52 JUMPI PUSH1 0x40 MLOAD PUSH4 0x4792011 PUSH1 0xE4 SHL DUP2 MSTORE PUSH1 0x4 ADD PUSH1 0x40 MLOAD DUP1 SWAP2 SUB SWAP1 REVERT JUMPDEST PUSH1 0x0 DUP2 DUP2 MSTORE PUSH1 0x8 PUSH1 0x20 DUP2 DUP2 MSTORE PUSH1 0x40 DUP1 DUP5 KECCAK256 PUSH1 0xD SWAP1 SWAP3 MSTORE SWAP1 SWAP3 KECCAK256 SWAP1 DUP3 ADD SLOAD PUSH1 0xFF AND ISZERO PUSH2 0x2B90 JUMPI PUSH1 0x40 MLOAD PUSH4 0xB6AD70F3 PUSH1 0xE0 SHL DUP2 MSTORE PUSH1 0x4 ADD PUSH1 0x40 MLOAD DUP1 SWAP2 SUB SWAP1 REVERT JUMPDEST DUP1 SLOAD PUSH1 0x1 PUSH1 0x1 PUSH1 0xA0 SHL SUB AND PUSH2 0x2BB8 JUMPI PUSH1 0x40 MLOAD PUSH4 0x5B1C11D3 PUSH1 0xE1 SHL DUP2 MSTORE PUSH1 0x4 ADD PUSH1 0x40 MLOAD DUP1 SWAP2 SUB SWAP1 REVERT JUMPDEST PUSH1 0x5 DUP2 ADD SLOAD PUSH1 0x0 SWAP1 DUP2 SWAP1 DUP2 SWAP1 PUSH1 0xFF AND PUSH2 0x2C1B JUMPI PUSH1 0x6 SLOAD DUP5 PUSH1 0x4 ADD SLOAD PUSH2 0x2BDD SWAP2 SWAP1 PUSH2 0x3AD5 JUMP JUMPDEST TIMESTAMP LT ISZERO PUSH2 0x2BFD JUMPI PUSH1 0x40 MLOAD PUSH4 0x7CF214ED PUSH1 0xE0 SHL DUP2 MSTORE PUSH1 0x4 ADD PUSH1 0x40 MLOAD DUP1 SWAP2 SUB SWAP1 REVERT JUMPDEST POP POP DUP2 SLOAD PUSH1 0x3 DUP4 ADD SLOAD PUSH1 0x1 SWAP3 POP PUSH1 0x1 PUSH1 0x1 PUSH1 0xA0 SHL SUB SWAP1 SWAP2 AND SWAP1 PUSH2 0x2CC7 JUMP JUMPDEST PUSH1 0x7 SLOAD PUSH1 0x6 SLOAD DUP6 PUSH1 0x4 ADD SLOAD PUSH2 0x2C30 SWAP2 SWAP1 PUSH2 0x3AD5 JUMP JUMPDEST PUSH2 0x2C3A SWAP2 SWAP1 PUSH2 0x3AD5 JUMP JUMPDEST TIMESTAMP LT ISZERO PUSH2 0x2C5A JUMPI PUSH1 0x40 MLOAD PUSH4 0x9B8CC475 PUSH1 0xE0 SHL DUP2 MSTORE PUSH1 0x4 ADD PUSH1 0x40 MLOAD DUP1 SWAP2 SUB SWAP1 REVERT JUMPDEST DUP4 PUSH1 0x8 ADD SLOAD DUP5 PUSH1 0x7 ADD SLOAD GT ISZERO PUSH2 0x2C97 JUMPI DUP4 SLOAD PUSH1 0x6 DUP6 ADD SLOAD PUSH1 0x3 DUP7 ADD SLOAD PUSH1 0x1 SWAP6 POP PUSH1 0x1 PUSH1 0x1 PUSH1 0xA0 SHL SUB SWAP1 SWAP3 AND SWAP4 POP PUSH2 0x2C90 SWAP2 PUSH2 0x3AD5 JUMP JUMPDEST SWAP1 POP PUSH2 0x2CC7 JUMP JUMPDEST PUSH1 0x5 DUP5 ADD SLOAD PUSH1 0x6 DUP6 ADD SLOAD PUSH1 0x3 DUP7 ADD SLOAD PUSH1 0x0 SWAP6 POP PUSH2 0x100 SWAP1 SWAP3 DIV PUSH1 0x1 PUSH1 0x1 PUSH1 0xA0 SHL SUB AND SWAP4 POP PUSH2 0x2CC4 SWAP2 PUSH2 0x3AD5 JUMP JUMPDEST SWAP1 POP JUMPDEST PUSH1 0x8 DUP6 ADD DUP1 SLOAD PUSH1 0xFF NOT AND PUSH1 0x1 OR SWAP1 SSTORE PUSH1 0x0 PUSH1 0xA DUP7 ADD SLOAD PUSH1 0xFF AND PUSH1 0x1 DUP2 GT ISZERO PUSH2 0x2CF1 JUMPI PUSH2 0x2CF1 PUSH2 0x3485 JUMP JUMPDEST SUB PUSH2 0x2D6F JUMPI PUSH1 0x2 DUP6 ADD SLOAD PUSH1 0x1 DUP6 ADD DUP1 SLOAD PUSH1 0x8 DUP9 ADD DUP1 SLOAD PUSH2 0x100 SWAP5 SWAP1 SWAP3 LT ISZERO DUP5 MUL PUSH2 0xFF00 NOT SWAP1 SWAP3 AND SWAP2 SWAP1 SWAP2 OR SWAP1 DUP2 SWAP1 SSTORE SWAP1 SLOAD PUSH1 0x40 MLOAD DUP10 SWAP4 PUSH32 0x252AE5C5BE4F6AAD38FCCA6AD8A555A218C48ADCB3C0AB0D83C7E260114C2450 SWAP4 PUSH2 0x2D62 SWAP4 SWAP2 SWAP1 DIV PUSH1 0xFF AND ISZERO ISZERO DUP3 MSTORE PUSH1 0x20 DUP3 ADD MSTORE PUSH1 0x40 ADD SWAP1 JUMP JUMPDEST PUSH1 0x40 MLOAD DUP1 SWAP2 SUB SWAP1 LOG2 PUSH2 0x2F62 JUMP JUMPDEST DUP3 ISZERO PUSH2 0x2D84 JUMPI PUSH1 0x2 DUP5 ADD SLOAD PUSH1 0xC DUP7 ADD SSTORE PUSH2 0x2F31 JUMP JUMPDEST PUSH1 0x0 DUP7 DUP2 MSTORE PUSH1 0xD PUSH1 0x20 MSTORE PUSH1 0x40 DUP1 DUP3 KECCAK256 DUP1 SLOAD PUSH1 0x1 PUSH1 0x1 PUSH1 0xA0 SHL SUB NOT AND DUP2 SSTORE PUSH1 0x1 DUP2 ADD DUP4 SWAP1 SSTORE PUSH1 0x2 DUP2 ADD DUP4 SWAP1 SSTORE PUSH1 0x3 DUP1 DUP3 ADD DUP5 SWAP1 SSTORE PUSH1 0x4 DUP3 ADD DUP5 SWAP1 SSTORE PUSH1 0x5 DUP3 ADD DUP1 SLOAD PUSH1 0x1 PUSH1 0x1 PUSH1 0xA8 SHL SUB NOT AND SWAP1 SSTORE PUSH1 0x6 DUP3 ADD DUP5 SWAP1 SSTORE PUSH1 0x7 DUP3 ADD DUP5 SWAP1 SSTORE PUSH1 0x8 DUP1 DUP4 ADD DUP6 SWAP1 SSTORE PUSH1 0x9 SWAP1 SWAP3 ADD DUP1 SLOAD PUSH1 0xFF NOT SWAP1 DUP2 AND SWAP1 SWAP2 SSTORE SWAP2 DUP10 ADD DUP1 SLOAD SWAP1 SWAP3 AND SWAP1 SWAP2 SSTORE DUP7 SLOAD SWAP1 DUP8 ADD SLOAD SWAP2 MLOAD PUSH1 0x1 PUSH1 0x1 PUSH1 0xA0 SHL SUB SWAP1 SWAP2 AND SWAP2 SWAP1 DUP4 DUP2 DUP2 DUP2 DUP6 DUP8 GAS CALL SWAP3 POP POP POP RETURNDATASIZE DUP1 PUSH1 0x0 DUP2 EQ PUSH2 0x2E4E JUMPI PUSH1 0x40 MLOAD SWAP2 POP PUSH1 0x1F NOT PUSH1 0x3F RETURNDATASIZE ADD AND DUP3 ADD PUSH1 0x40 MSTORE RETURNDATASIZE DUP3 MSTORE RETURNDATASIZE PUSH1 0x0 PUSH1 0x20 DUP5 ADD RETURNDATACOPY PUSH2 0x2E53 JUMP JUMPDEST PUSH1 0x60 SWAP2 POP JUMPDEST POP POP PUSH1 0x5 DUP7 ADD SLOAD PUSH1 0x6 DUP8 ADD SLOAD PUSH1 0x40 MLOAD SWAP3 SWAP4 POP PUSH1 0x0 SWAP3 PUSH2 0x100 SWAP1 SWAP3 DIV PUSH1 0x1 PUSH1 0x1 PUSH1 0xA0 SHL SUB AND SWAP2 DUP4 DUP2 DUP2 DUP2 DUP6 DUP8 GAS CALL SWAP3 POP POP POP RETURNDATASIZE DUP1 PUSH1 0x0 DUP2 EQ PUSH2 0x2EB0 JUMPI PUSH1 0x40 MLOAD SWAP2 POP PUSH1 0x1F NOT PUSH1 0x3F RETURNDATASIZE ADD AND DUP3 ADD PUSH1 0x40 MSTORE RETURNDATASIZE DUP3 MSTORE RETURNDATASIZE PUSH1 0x0 PUSH1 0x20 DUP5 ADD RETURNDATACOPY PUSH2 0x2EB5 JUMP JUMPDEST PUSH1 0x60 SWAP2 POP JUMPDEST POP POP SWAP1 POP DUP2 ISZERO DUP1 PUSH2 0x2EC4 JUMPI POP DUP1 ISZERO JUMPDEST ISZERO PUSH2 0x2EE2 JUMPI PUSH1 0x40 MLOAD PUSH4 0x12171D83 PUSH1 0xE3 SHL DUP2 MSTORE PUSH1 0x4 ADD PUSH1 0x40 MLOAD DUP1 SWAP2 SUB SWAP1 REVERT JUMPDEST PUSH1 0x40 DUP1 MLOAD PUSH1 0x0 DUP1 DUP3 MSTORE PUSH1 0x20 DUP3 ADD DUP2 SWAP1 MSTORE DUP2 DUP4 ADD MSTORE SWAP1 MLOAD DUP10 SWAP2 PUSH32 0xF452967AEDD0FFBD4241D1B9265C9A2F68E770027E0F463D9ED07C70A5B03F0F SWAP2 SWAP1 DUP2 SWAP1 SUB PUSH1 0x60 ADD SWAP1 LOG2 POP POP POP POP POP POP POP PUSH2 0x302A JUMP JUMPDEST PUSH1 0xC DUP6 ADD SLOAD PUSH1 0x40 MLOAD DUP8 SWAP1 PUSH32 0x3CA31337698E2A0EDDD144FC19B8AB540EC1B8682EB495B919C799C695914C09 SWAP1 PUSH1 0x0 SWAP1 LOG3 JUMPDEST PUSH1 0x0 DUP3 PUSH1 0x1 PUSH1 0x1 PUSH1 0xA0 SHL SUB AND DUP3 PUSH1 0x40 MLOAD PUSH1 0x0 PUSH1 0x40 MLOAD DUP1 DUP4 SUB DUP2 DUP6 DUP8 GAS CALL SWAP3 POP POP POP RETURNDATASIZE DUP1 PUSH1 0x0 DUP2 EQ PUSH2 0x2FAF JUMPI PUSH1 0x40 MLOAD SWAP2 POP PUSH1 0x1F NOT PUSH1 0x3F RETURNDATASIZE ADD AND DUP3 ADD PUSH1 0x40 MSTORE RETURNDATASIZE DUP3 MSTORE RETURNDATASIZE PUSH1 0x0 PUSH1 0x20 DUP5 ADD RETURNDATACOPY PUSH2 0x2FB4 JUMP JUMPDEST PUSH1 0x60 SWAP2 POP JUMPDEST POP POP SWAP1 POP DUP1 PUSH2 0x2FD6 JUMPI PUSH1 0x40 MLOAD PUSH4 0x12171D83 PUSH1 0xE3 SHL DUP2 MSTORE PUSH1 0x4 ADD PUSH1 0x40 MLOAD DUP1 SWAP2 SUB SWAP1 REVERT JUMPDEST PUSH1 0x40 DUP1 MLOAD DUP6 ISZERO ISZERO DUP2 MSTORE PUSH1 0x1 PUSH1 0x1 PUSH1 0xA0 SHL SUB DUP6 AND PUSH1 0x20 DUP3 ADD MSTORE SWAP1 DUP2 ADD DUP4 SWAP1 MSTORE DUP8 SWAP1 PUSH32 0xF452967AEDD0FFBD4241D1B9265C9A2F68E770027E0F463D9ED07C70A5B03F0F SWAP1 PUSH1 0x60 ADD PUSH1 0x40 MLOAD DUP1 SWAP2 SUB SWAP1 LOG2 POP POP POP POP POP POP JUMPDEST PUSH2 0xFA5 PUSH1 0x1 PUSH1 0x0 SSTORE JUMP JUMPDEST PUSH1 0x1 SLOAD PUSH1 0x1 PUSH1 0x1 PUSH1 0xA0 SHL SUB AND CALLER EQ PUSH2 0x1919 JUMPI PUSH1 0x40 MLOAD PUSH3 0x461BCD PUSH1 0xE5 SHL DUP2 MSTORE PUSH1 0x20 PUSH1 0x4 DUP3 ADD DUP2 SWAP1 MSTORE PUSH1 0x24 DUP3 ADD MSTORE PUSH32 0x4F776E61626C653A2063616C6C6572206973206E6F7420746865206F776E6572 PUSH1 0x44 DUP3 ADD MSTORE PUSH1 0x64 ADD PUSH2 0xC20 JUMP JUMPDEST PUSH1 0x2 PUSH1 0x0 SLOAD SUB PUSH2 0x30E0 JUMPI PUSH1 0x40 MLOAD PUSH3 0x461BCD PUSH1 0xE5 SHL DUP2 MSTORE PUSH1 0x20 PUSH1 0x4 DUP3 ADD MSTORE PUSH1 0x1F PUSH1 0x24 DUP3 ADD MSTORE PUSH32 0x5265656E7472616E637947756172643A207265656E7472616E742063616C6C00 PUSH1 0x44 DUP3 ADD MSTORE PUSH1 0x64 ADD PUSH2 0xC20 JUMP JUMPDEST PUSH1 0x2 PUSH1 0x0 SSTORE JUMP JUMPDEST PUSH1 0x1 DUP1 SLOAD PUSH1 0x1 PUSH1 0x1 PUSH1 0xA0 SHL SUB DUP4 DUP2 AND PUSH1 0x1 PUSH1 0x1 PUSH1 0xA0 SHL SUB NOT DUP4 AND DUP2 OR SWAP1 SWAP4 SSTORE PUSH1 0x40 MLOAD SWAP2 AND SWAP2 SWAP1 DUP3 SWAP1 PUSH32 0x8BE0079C531659141344CD1FD0A4F28419497F9722A3DAAFE3B4186F6B6457E0 SWAP1 PUSH1 0x0 SWAP1 LOG3 POP POP JUMP JUMPDEST PUSH1 0x40 MLOAD DUP1 PUSH2 0x1C0 ADD PUSH1 0x40 MSTORE DUP1 PUSH1 0x0 DUP2 MSTORE PUSH1 0x20 ADD PUSH1 0x0 DUP2 MSTORE PUSH1 0x20 ADD PUSH1 0x0 DUP2 MSTORE PUSH1 0x20 ADD PUSH1 0x0 DUP2 MSTORE PUSH1 0x20 ADD PUSH1 0x0 PUSH1 0x1 PUSH1 0x1 PUSH1 0xA0 SHL SUB AND DUP2 MSTORE PUSH1 0x20 ADD PUSH1 0x0 DUP2 MSTORE PUSH1 0x20 ADD PUSH1 0x0 DUP2 MSTORE PUSH1 0x20 ADD PUSH1 0x0 DUP2 MSTORE PUSH1 0x20 ADD PUSH1 0x0 ISZERO ISZERO DUP2 MSTORE PUSH1 0x20 ADD PUSH1 0x0 ISZERO ISZERO DUP2 MSTORE PUSH1 0x20 ADD PUSH1 0x0 DUP2 MSTORE PUSH1 0x20 ADD PUSH1 0x0 PUSH1 0x1 DUP2 GT ISZERO PUSH2 0x31B2 JUMPI PUSH2 0x31B2 PUSH2 0x3485 JUMP JUMPDEST DUP2 MSTORE PUSH1 0x20 ADD PUSH1 0x60 DUP2 MSTORE PUSH1 0x20 ADD PUSH1 0x0 DUP2 MSTORE POP SWAP1 JUMP JUMPDEST DUP3 DUP1 SLOAD DUP3 DUP3 SSTORE SWAP1 PUSH1 0x0 MSTORE PUSH1 0x20 PUSH1 0x0 KECCAK256 SWAP1 DUP2 ADD SWAP3 DUP3 ISZERO PUSH2 0x320C JUMPI SWAP2 PUSH1 0x20 MUL DUP3 ADD JUMPDEST DUP3 DUP2 GT ISZERO PUSH2 0x320C JUMPI DUP3 MLOAD DUP3 SWAP1 PUSH2 0x31FC SWAP1 DUP3 PUSH2 0x3AE8 JUMP JUMPDEST POP SWAP2 PUSH1 0x20 ADD SWAP2 SWAP1 PUSH1 0x1 ADD SWAP1 PUSH2 0x31E6 JUMP JUMPDEST POP PUSH2 0x3218 SWAP3 SWAP2 POP PUSH2 0x321C JUMP JUMPDEST POP SWAP1 JUMP JUMPDEST DUP1 DUP3 GT ISZERO PUSH2 0x3218 JUMPI PUSH1 0x0 PUSH2 0x3230 DUP3 DUP3 PUSH2 0x3239 JUMP JUMPDEST POP PUSH1 0x1 ADD PUSH2 0x321C JUMP JUMPDEST POP DUP1 SLOAD PUSH2 0x3245 SWAP1 PUSH2 0x37B9 JUMP JUMPDEST PUSH1 0x0 DUP3 SSTORE DUP1 PUSH1 0x1F LT PUSH2 0x3255 JUMPI POP POP JUMP JUMPDEST PUSH1 0x1F ADD PUSH1 0x20 SWAP1 DIV SWAP1 PUSH1 0x0 MSTORE PUSH1 0x20 PUSH1 0x0 KECCAK256 SWAP1 DUP2 ADD SWAP1 PUSH2 0xFA5 SWAP2 SWAP1 JUMPDEST DUP1 DUP3 GT ISZERO PUSH2 0x3218 JUMPI PUSH1 0x0 DUP2 SSTORE PUSH1 0x1 ADD PUSH2 0x326F JUMP JUMPDEST PUSH1 0x0 PUSH1 0x20 DUP3 DUP5 SUB SLT ISZERO PUSH2 0x3295 JUMPI PUSH1 0x0 DUP1 REVERT JUMPDEST POP CALLDATALOAD SWAP2 SWAP1 POP JUMP JUMPDEST PUSH1 0x0 DUP1 PUSH1 0x40 DUP4 DUP6 SUB SLT ISZERO PUSH2 0x32AF JUMPI PUSH1 0x0 DUP1 REVERT JUMPDEST POP POP DUP1 CALLDATALOAD SWAP3 PUSH1 0x20 SWAP1 SWAP2 ADD CALLDATALOAD SWAP2 POP JUMP JUMPDEST PUSH1 0x0 PUSH1 0x20 DUP1 DUP4 ADD DUP2 DUP5 MSTORE DUP1 DUP6 MLOAD DUP1 DUP4 MSTORE PUSH1 0x40 DUP7 ADD SWAP2 POP PUSH1 0x40 DUP2 PUSH1 0x5 SHL DUP8 ADD ADD SWAP3 POP DUP4 DUP8 ADD PUSH1 0x0 DUP1 JUMPDEST DUP4 DUP2 LT ISZERO PUSH2 0x3342 JUMPI DUP9 DUP7 SUB PUSH1 0x3F NOT ADD DUP6 MSTORE DUP3 MLOAD DUP1 MLOAD DUP1 DUP9 MSTORE DUP4 JUMPDEST DUP2 DUP2 LT ISZERO PUSH2 0x331B JUMPI DUP3 DUP2 ADD DUP11 ADD MLOAD DUP10 DUP3 ADD DUP12 ADD MSTORE DUP10 ADD PUSH2 0x3300 JUMP JUMPDEST POP DUP8 DUP2 ADD DUP10 ADD DUP5 SWAP1 MSTORE PUSH1 0x1F ADD PUSH1 0x1F NOT AND SWAP1 SWAP7 ADD DUP8 ADD SWAP6 POP SWAP4 DUP7 ADD SWAP4 SWAP2 DUP7 ADD SWAP2 PUSH1 0x1 ADD PUSH2 0x32E6 JUMP JUMPDEST POP SWAP4 SWAP9 SWAP8 POP POP POP POP POP POP POP POP JUMP JUMPDEST DUP1 CALLDATALOAD PUSH1 0x1 PUSH1 0x1 PUSH1 0xA0 SHL SUB DUP2 AND DUP2 EQ PUSH2 0x3367 JUMPI PUSH1 0x0 DUP1 REVERT JUMPDEST SWAP2 SWAP1 POP JUMP JUMPDEST PUSH1 0x0 DUP1 PUSH1 0x40 DUP4 DUP6 SUB SLT ISZERO PUSH2 0x337F JUMPI PUSH1 0x0 DUP1 REVERT JUMPDEST DUP3 CALLDATALOAD SWAP2 POP PUSH2 0x338F PUSH1 0x20 DUP5 ADD PUSH2 0x3350 JUMP JUMPDEST SWAP1 POP SWAP3 POP SWAP3 SWAP1 POP JUMP JUMPDEST PUSH1 0x0 DUP1 PUSH1 0x0 DUP1 PUSH1 0x60 DUP6 DUP8 SUB SLT ISZERO PUSH2 0x33AE JUMPI PUSH1 0x0 DUP1 REVERT JUMPDEST DUP5 CALLDATALOAD SWAP4 POP PUSH1 0x20 DUP6 ADD CALLDATALOAD PUSH8 0xFFFFFFFFFFFFFFFF DUP1 DUP3 GT ISZERO PUSH2 0x33CD JUMPI PUSH1 0x0 DUP1 REVERT JUMPDEST DUP2 DUP8 ADD SWAP2 POP DUP8 PUSH1 0x1F DUP4 ADD SLT PUSH2 0x33E1 JUMPI PUSH1 0x0 DUP1 REVERT JUMPDEST DUP2 CALLDATALOAD DUP2 DUP2 GT ISZERO PUSH2 0x33F0 JUMPI PUSH1 0x0 DUP1 REVERT JUMPDEST DUP9 PUSH1 0x20 DUP3 PUSH1 0x5 SHL DUP6 ADD ADD GT ISZERO PUSH2 0x3405 JUMPI PUSH1 0x0 DUP1 REVERT JUMPDEST SWAP6 SWAP9 PUSH1 0x20 SWAP3 SWAP1 SWAP3 ADD SWAP8 POP SWAP5 SWAP6 PUSH1 0x40 ADD CALLDATALOAD SWAP5 POP SWAP3 POP POP POP JUMP JUMPDEST PUSH1 0x0 DUP1 PUSH1 0x40 DUP4 DUP6 SUB SLT ISZERO PUSH2 0x3430 JUMPI PUSH1 0x0 DUP1 REVERT JUMPDEST DUP3 CALLDATALOAD SWAP2 POP PUSH1 0x20 DUP4 ADD CALLDATALOAD DUP1 ISZERO ISZERO DUP2 EQ PUSH2 0x3447 JUMPI PUSH1 0x0 DUP1 REVERT JUMPDEST DUP1 SWAP2 POP POP SWAP3 POP SWAP3 SWAP1 POP JUMP JUMPDEST PUSH1 0x0 DUP1 PUSH1 0x0 PUSH1 0x60 DUP5 DUP7 SUB SLT ISZERO PUSH2 0x3467 JUMPI PUSH1 0x0 DUP1 REVERT JUMPDEST PUSH2 0x3470 DUP5 PUSH2 0x3350 JUMP JUMPDEST SWAP6 PUSH1 0x20 DUP6 ADD CALLDATALOAD SWAP6 POP PUSH1 0x40 SWAP1 SWAP5 ADD CALLDATALOAD SWAP4 SWAP3 POP POP POP JUMP JUMPDEST PUSH4 0x4E487B71 PUSH1 0xE0 SHL PUSH1 0x0 MSTORE PUSH1 0x21 PUSH1 0x4 MSTORE PUSH1 0x24 PUSH1 0x0 REVERT JUMPDEST PUSH1 0x2 DUP2 LT PUSH2 0x34B9 JUMPI PUSH4 0x4E487B71 PUSH1 0xE0 SHL PUSH1 0x0 MSTORE PUSH1 0x21 PUSH1 0x4 MSTORE PUSH1 0x24 PUSH1 0x0 REVERT JUMPDEST SWAP1 MSTORE JUMP JUMPDEST PUSH1 0x0 PUSH2 0x1A0 DUP3 ADD SWAP1 POP DUP15 DUP3 MSTORE DUP14 PUSH1 0x20 DUP4 ADD MSTORE DUP13 PUSH1 0x40 DUP4 ADD MSTORE DUP12 PUSH1 0x60 DUP4 ADD MSTORE PUSH1 0x1 DUP1 PUSH1 0xA0 SHL SUB DUP12 AND PUSH1 0x80 DUP4 ADD MSTORE DUP10 PUSH1 0xA0 DUP4 ADD MSTORE DUP9 PUSH1 0xC0 DUP4 ADD MSTORE DUP8 PUSH1 0xE0 DUP4 ADD MSTORE DUP7 ISZERO ISZERO PUSH2 0x100 DUP4 ADD MSTORE DUP6 ISZERO ISZERO PUSH2 0x120 DUP4 ADD MSTORE DUP5 PUSH2 0x140 DUP4 ADD MSTORE PUSH2 0x3522 PUSH2 0x160 DUP4 ADD DUP6 PUSH2 0x349B JUMP JUMPDEST DUP3 PUSH2 0x180 DUP4 ADD MSTORE SWAP15 SWAP14 POP POP POP POP POP POP POP POP POP POP POP POP POP POP JUMP JUMPDEST PUSH1 0x0 DUP2 MLOAD DUP1 DUP5 MSTORE PUSH1 0x20 DUP1 DUP6 ADD DUP1 DUP2 SWAP7 POP DUP4 PUSH1 0x5 SHL DUP2 ADD SWAP2 POP DUP3 DUP7 ADD PUSH1 0x0 DUP1 JUMPDEST DUP7 DUP2 LT ISZERO PUSH2 0x35B2 JUMPI DUP4 DUP6 SUB DUP11 MSTORE DUP3 MLOAD DUP1 MLOAD DUP1 DUP8 MSTORE DUP4 JUMPDEST DUP2 DUP2 LT ISZERO PUSH2 0x358B JUMPI DUP3 DUP2 ADD DUP10 ADD MLOAD DUP9 DUP3 ADD DUP11 ADD MSTORE DUP9 ADD PUSH2 0x3570 JUMP JUMPDEST POP DUP7 DUP2 ADD DUP9 ADD DUP5 SWAP1 MSTORE SWAP11 DUP8 ADD SWAP11 PUSH1 0x1F ADD PUSH1 0x1F NOT AND SWAP1 SWAP6 ADD DUP7 ADD SWAP5 POP SWAP2 DUP6 ADD SWAP2 PUSH1 0x1 ADD PUSH2 0x355A JUMP JUMPDEST POP SWAP3 SWAP9 SWAP8 POP POP POP POP POP POP POP POP JUMP JUMPDEST PUSH1 0x20 DUP2 MSTORE DUP2 MLOAD PUSH1 0x20 DUP3 ADD MSTORE PUSH1 0x20 DUP3 ADD MLOAD PUSH1 0x40 DUP3 ADD MSTORE PUSH1 0x40 DUP3 ADD MLOAD PUSH1 0x60 DUP3 ADD MSTORE PUSH1 0x60 DUP3 ADD MLOAD PUSH1 0x80 DUP3 ADD MSTORE PUSH1 0x0 PUSH1 0x80 DUP4 ADD MLOAD PUSH2 0x3605 PUSH1 0xA0 DUP5 ADD DUP3 PUSH1 0x1 PUSH1 0x1 PUSH1 0xA0 SHL SUB AND SWAP1 MSTORE JUMP JUMPDEST POP PUSH1 0xA0 DUP4 ADD MLOAD PUSH1 0xC0 DUP4 ADD MSTORE PUSH1 0xC0 DUP4 ADD MLOAD PUSH1 0xE0 DUP4 ADD MSTORE PUSH1 0xE0 DUP4 ADD MLOAD PUSH2 0x100 DUP2 DUP2 DUP6 ADD MSTORE DUP1 DUP6 ADD MLOAD SWAP2 POP POP PUSH2 0x120 PUSH2 0x363E DUP2 DUP6 ADD DUP4 ISZERO ISZERO SWAP1 MSTORE JUMP JUMPDEST DUP5 ADD MLOAD SWAP1 POP PUSH2 0x140 PUSH2 0x3653 DUP5 DUP3 ADD DUP4 ISZERO ISZERO SWAP1 MSTORE JUMP JUMPDEST DUP5 ADD MLOAD PUSH2 0x160 DUP5 DUP2 ADD SWAP2 SWAP1 SWAP2 MSTORE DUP5 ADD MLOAD SWAP1 POP PUSH2 0x180 PUSH2 0x3674 DUP2 DUP6 ADD DUP4 PUSH2 0x349B JUMP JUMPDEST DUP1 DUP6 ADD MLOAD SWAP2 POP POP PUSH2 0x1C0 PUSH2 0x1A0 DUP2 DUP2 DUP7 ADD MSTORE PUSH2 0x3694 PUSH2 0x1E0 DUP7 ADD DUP5 PUSH2 0x353B JUMP JUMPDEST SWAP6 ADD MLOAD SWAP4 ADD SWAP3 SWAP1 SWAP3 MSTORE POP SWAP1 SWAP2 SWAP1 POP JUMP JUMPDEST PUSH1 0x0 DUP1 PUSH1 0x0 PUSH1 0x60 DUP5 DUP7 SUB SLT ISZERO PUSH2 0x36B9 JUMPI PUSH1 0x0 DUP1 REVERT JUMPDEST POP POP DUP2 CALLDATALOAD SWAP4 PUSH1 0x20 DUP4 ADD CALLDATALOAD SWAP4 POP PUSH1 0x40 SWAP1 SWAP3 ADD CALLDATALOAD SWAP2 SWAP1 POP JUMP JUMPDEST DUP2 MLOAD PUSH1 0x1 PUSH1 0x1 PUSH1 0xA0 SHL SUB AND DUP2 MSTORE PUSH2 0x160 DUP2 ADD PUSH1 0x20 DUP4 ADD MLOAD PUSH1 0x20 DUP4 ADD MSTORE PUSH1 0x40 DUP4 ADD MLOAD PUSH1 0x40 DUP4 ADD MSTORE PUSH1 0x60 DUP4 ADD MLOAD PUSH1 0x60 DUP4 ADD MSTORE PUSH1 0x80 DUP4 ADD MLOAD PUSH1 0x80 DUP4 ADD MSTORE PUSH1 0xA0 DUP4 ADD MLOAD PUSH2 0x371D PUSH1 0xA0 DUP5 ADD DUP3 ISZERO ISZERO SWAP1 MSTORE JUMP JUMPDEST POP PUSH1 0xC0 DUP4 ADD MLOAD PUSH2 0x3738 PUSH1 0xC0 DUP5 ADD DUP3 PUSH1 0x1 PUSH1 0x1 PUSH1 0xA0 SHL SUB AND SWAP1 MSTORE JUMP JUMPDEST POP PUSH1 0xE0 DUP4 DUP2 ADD MLOAD SWAP1 DUP4 ADD MSTORE PUSH2 0x100 DUP1 DUP5 ADD MLOAD SWAP1 DUP4 ADD MSTORE PUSH2 0x120 DUP1 DUP5 ADD MLOAD SWAP1 DUP4 ADD MSTORE PUSH2 0x140 SWAP3 DUP4 ADD MLOAD ISZERO ISZERO SWAP3 SWAP1 SWAP2 ADD SWAP2 SWAP1 SWAP2 MSTORE SWAP1 JUMP JUMPDEST PUSH1 0x0 DUP1 PUSH1 0x40 DUP4 DUP6 SUB SLT ISZERO PUSH2 0x3780 JUMPI PUSH1 0x0 DUP1 REVERT JUMPDEST PUSH2 0x3789 DUP4 PUSH2 0x3350 JUMP JUMPDEST SWAP5 PUSH1 0x20 SWAP4 SWAP1 SWAP4 ADD CALLDATALOAD SWAP4 POP POP POP JUMP JUMPDEST PUSH1 0x0 PUSH1 0x20 DUP3 DUP5 SUB SLT ISZERO PUSH2 0x37A9 JUMPI PUSH1 0x0 DUP1 REVERT JUMPDEST PUSH2 0x37B2 DUP3 PUSH2 0x3350 JUMP JUMPDEST SWAP4 SWAP3 POP POP POP JUMP JUMPDEST PUSH1 0x1 DUP2 DUP2 SHR SWAP1 DUP3 AND DUP1 PUSH2 0x37CD JUMPI PUSH1 0x7F DUP3 AND SWAP2 POP JUMPDEST PUSH1 0x20 DUP3 LT DUP2 SUB PUSH2 0x37ED JUMPI PUSH4 0x4E487B71 PUSH1 0xE0 SHL PUSH1 0x0 MSTORE PUSH1 0x22 PUSH1 0x4 MSTORE PUSH1 0x24 PUSH1 0x0 REVERT JUMPDEST POP SWAP2 SWAP1 POP JUMP JUMPDEST PUSH4 0x4E487B71 PUSH1 0xE0 SHL PUSH1 0x0 MSTORE PUSH1 0x11 PUSH1 0x4 MSTORE PUSH1 0x24 PUSH1 0x0 REVERT JUMPDEST PUSH1 0x0 PUSH1 0x1 DUP3 ADD PUSH2 0x381B JUMPI PUSH2 0x381B PUSH2 0x37F3 JUMP JUMPDEST POP PUSH1 0x1 ADD SWAP1 JUMP JUMPDEST PUSH4 0x4E487B71 PUSH1 0xE0 SHL PUSH1 0x0 MSTORE PUSH1 0x32 PUSH1 0x4 MSTORE PUSH1 0x24 PUSH1 0x0 REVERT JUMPDEST PUSH1 0x0 DUP1 DUP4 CALLDATALOAD PUSH1 0x1E NOT DUP5 CALLDATASIZE SUB ADD DUP2 SLT PUSH2 0x384F JUMPI PUSH1 0x0 DUP1 REVERT JUMPDEST DUP4 ADD DUP1 CALLDATALOAD SWAP2 POP PUSH8 0xFFFFFFFFFFFFFFFF DUP3 GT ISZERO PUSH2 0x386A JUMPI PUSH1 0x0 DUP1 REVERT JUMPDEST PUSH1 0x20 ADD SWAP2 POP CALLDATASIZE DUP2 SWAP1 SUB DUP3 SGT ISZERO PUSH2 0x387F JUMPI PUSH1 0x0 DUP1 REVERT JUMPDEST SWAP3 POP SWAP3 SWAP1 POP JUMP JUMPDEST PUSH4 0x4E487B71 PUSH1 0xE0 SHL PUSH1 0x0 MSTORE PUSH1 0x41 PUSH1 0x4 MSTORE PUSH1 0x24 PUSH1 0x0 REVERT JUMPDEST PUSH1 0x1F DUP3 GT ISZERO PUSH2 0x2060 JUMPI PUSH1 0x0 DUP2 DUP2 MSTORE PUSH1 0x20 DUP2 KECCAK256 PUSH1 0x1F DUP6 ADD PUSH1 0x5 SHR DUP2 ADD PUSH1 0x20 DUP7 LT ISZERO PUSH2 0x38C3 JUMPI POP DUP1 JUMPDEST PUSH1 0x1F DUP6 ADD PUSH1 0x5 SHR DUP3 ADD SWAP2 POP JUMPDEST DUP2 DUP2 LT ISZERO PUSH2 0x38E2 JUMPI DUP3 DUP2 SSTORE PUSH1 0x1 ADD PUSH2 0x38CF JUMP JUMPDEST POP POP POP POP POP POP JUMP JUMPDEST PUSH8 0xFFFFFFFFFFFFFFFF DUP4 GT ISZERO PUSH2 0x3902 JUMPI PUSH2 0x3902 PUSH2 0x3886 JUMP JUMPDEST PUSH2 0x3916 DUP4 PUSH2 0x3910 DUP4 SLOAD PUSH2 0x37B9 JUMP JUMPDEST DUP4 PUSH2 0x389C JUMP JUMPDEST PUSH1 0x0 PUSH1 0x1F DUP5 GT PUSH1 0x1 DUP2 EQ PUSH2 0x394A JUMPI PUSH1 0x0 DUP6 ISZERO PUSH2 0x3932 JUMPI POP DUP4 DUP3 ADD CALLDATALOAD JUMPDEST PUSH1 0x0 NOT PUSH1 0x3 DUP8 SWAP1 SHL SHR NOT AND PUSH1 0x1 DUP7 SWAP1 SHL OR DUP4 SSTORE PUSH2 0x39A4 JUMP JUMPDEST PUSH1 0x0 DUP4 DUP2 MSTORE PUSH1 0x20 SWAP1 KECCAK256 PUSH1 0x1F NOT DUP7 AND SWAP1 DUP4 JUMPDEST DUP3 DUP2 LT ISZERO PUSH2 0x397B JUMPI DUP7 DUP6 ADD CALLDATALOAD DUP3 SSTORE PUSH1 0x20 SWAP5 DUP6 ADD SWAP5 PUSH1 0x1 SWAP1 SWAP3 ADD SWAP2 ADD PUSH2 0x395B JUMP JUMPDEST POP DUP7 DUP3 LT ISZERO PUSH2 0x3998 JUMPI PUSH1 0x0 NOT PUSH1 0xF8 DUP9 PUSH1 0x3 SHL AND SHR NOT DUP5 DUP8 ADD CALLDATALOAD AND DUP2 SSTORE JUMPDEST POP POP PUSH1 0x1 DUP6 PUSH1 0x1 SHL ADD DUP4 SSTORE JUMPDEST POP POP POP POP POP JUMP JUMPDEST DUP2 DUP4 MSTORE DUP2 DUP2 PUSH1 0x20 DUP6 ADD CALLDATACOPY POP PUSH1 0x0 DUP3 DUP3 ADD PUSH1 0x20 SWAP1 DUP2 ADD SWAP2 SWAP1 SWAP2 MSTORE PUSH1 0x1F SWAP1 SWAP2 ADD PUSH1 0x1F NOT AND SWAP1 SWAP2 ADD ADD SWAP1 JUMP JUMPDEST PUSH1 0x60 DUP1 DUP3 MSTORE DUP2 ADD DUP5 SWAP1 MSTORE PUSH1 0x0 PUSH1 0x80 PUSH1 0x5 DUP7 SWAP1 SHL DUP4 ADD DUP2 ADD SWAP1 DUP4 ADD DUP8 DUP4 JUMPDEST DUP9 DUP2 LT ISZERO PUSH2 0x3A65 JUMPI DUP6 DUP5 SUB PUSH1 0x7F NOT ADD DUP4 MSTORE DUP2 CALLDATALOAD CALLDATASIZE DUP12 SWAP1 SUB PUSH1 0x1E NOT ADD DUP2 SLT PUSH2 0x3A17 JUMPI PUSH1 0x0 DUP1 REVERT JUMPDEST DUP11 ADD PUSH1 0x20 DUP2 DUP2 ADD SWAP2 CALLDATALOAD SWAP1 PUSH8 0xFFFFFFFFFFFFFFFF DUP3 GT ISZERO PUSH2 0x3A36 JUMPI PUSH1 0x0 DUP1 REVERT JUMPDEST DUP2 CALLDATASIZE SUB DUP4 SGT ISZERO PUSH2 0x3A45 JUMPI PUSH1 0x0 DUP1 REVERT JUMPDEST PUSH2 0x3A50 DUP8 DUP4 DUP6 PUSH2 0x39AB JUMP JUMPDEST SWAP7 POP SWAP5 DUP6 ADD SWAP5 SWAP4 SWAP1 SWAP4 ADD SWAP3 POP POP PUSH1 0x1 ADD PUSH2 0x39F1 JUMP JUMPDEST POP POP POP PUSH1 0x20 DUP4 ADD DUP6 SWAP1 MSTORE PUSH1 0x1 PUSH1 0x1 PUSH1 0xA0 SHL SUB DUP5 AND PUSH1 0x40 DUP5 ADD MSTORE SWAP1 POP SWAP6 SWAP5 POP POP POP POP POP JUMP JUMPDEST DUP1 DUP3 MUL DUP2 ISZERO DUP3 DUP3 DIV DUP5 EQ OR PUSH2 0x2080 JUMPI PUSH2 0x2080 PUSH2 0x37F3 JUMP JUMPDEST PUSH1 0x0 DUP3 PUSH2 0x3ABD JUMPI PUSH4 0x4E487B71 PUSH1 0xE0 SHL PUSH1 0x0 MSTORE PUSH1 0x12 PUSH1 0x4 MSTORE PUSH1 0x24 PUSH1 0x0 REVERT JUMPDEST POP DIV SWAP1 JUMP JUMPDEST DUP2 DUP2 SUB DUP2 DUP2 GT ISZERO PUSH2 0x2080 JUMPI PUSH2 0x2080 PUSH2 0x37F3 JUMP JUMPDEST DUP1 DUP3 ADD DUP1 DUP3 GT ISZERO PUSH2 0x2080 JUMPI PUSH2 0x2080 PUSH2 0x37F3 JUMP JUMPDEST DUP2 MLOAD PUSH8 0xFFFFFFFFFFFFFFFF DUP2 GT ISZERO PUSH2 0x3B02 JUMPI PUSH2 0x3B02 PUSH2 0x3886 JUMP JUMPDEST PUSH2 0x3B16 DUP2 PUSH2 0x3B10 DUP5 SLOAD PUSH2 0x37B9 JUMP JUMPDEST DUP5 PUSH2 0x389C JUMP JUMPDEST PUSH1 0x20 DUP1 PUSH1 0x1F DUP4 GT PUSH1 0x1 DUP2 EQ PUSH2 0x3B4B JUMPI PUSH1 0x0 DUP5 ISZERO PUSH2 0x3B33 JUMPI POP DUP6 DUP4 ADD MLOAD JUMPDEST PUSH1 0x0 NOT PUSH1 0x3 DUP7 SWAP1 SHL SHR NOT AND PUSH1 0x1 DUP6 SWAP1 SHL OR DUP6 SSTORE PUSH2 0x38E2 JUMP JUMPDEST PUSH1 0x0 DUP6 DUP2 MSTORE PUSH1 0x20 DUP2 KECCAK256 PUSH1 0x1F NOT DUP7 AND SWAP2 JUMPDEST DUP3 DUP2 LT ISZERO PUSH2 0x3B7A JUMPI DUP9 DUP7 ADD MLOAD DUP3 SSTORE SWAP5 DUP5 ADD SWAP5 PUSH1 0x1 SWAP1 SWAP2 ADD SWAP1 DUP5 ADD PUSH2 0x3B5B JUMP JUMPDEST POP DUP6 DUP3 LT ISZERO PUSH2 0x3B98 JUMPI DUP8 DUP6 ADD MLOAD PUSH1 0x0 NOT PUSH1 0x3 DUP9 SWAP1 SHL PUSH1 0xF8 AND SHR NOT AND DUP2 SSTORE JUMPDEST POP POP POP POP POP PUSH1 0x1 SWAP1 DUP2 SHL ADD SWAP1 SSTORE POP JUMP INVALID LOG2 PUSH5 0x6970667358 0x22 SLT KECCAK256 ADDRESS 0xE 0x1F MOD XOR 0xDC 0xA7 PUSH17 0x876BC6CCF06F0CD1BEE811AD97E4C3BABC 0x28 CODESIZE DUP7 0xD 0xB5 PUSH26 0x9464736F6C634300081300330000000000000000000000000000 "},"methodIdentifiers":{"FEE_DENOMINATOR()":"d73792a9","accumulatedFees()":"587f5ed7","cardExists(uint256)":"4ae3540e","cards(uint256)":"8dc10768","createCard(uint256,uint256,uint256)":"dafc88df","createCardMulti(uint256,string[],uint256)":"43a615cb","disputePeriod()":"5bf31d4d","disputeResolution(uint256)":"8c535cf8","finalizeResolution(uint256)":"f5489b7e","getAccumulatedFees()":"5df45a37","getCard(uint256)":"9188d312","getCardCount()":"7d620130","getOptionNames(uint256)":"1386a519","getOptionTotalStake(uint256,uint256)":"a42c9504","getProposal(uint256)":"c7f758a8","getUserOptionStake(address,uint256,uint256)":"b4163d36","getUserShares(address,uint256)":"ddd9d045","getVotingPower(uint256,address)":"dbdad432","hasUserVoted(uint256,address)":"dc296ae1","hasVoted(uint256,address)":"43859632","nextCardId()":"c5263e8c","optionTotalStakes(uint256,uint256)":"ef132af3","owner()":"8da5cb5b","placeBetOnOption(uint256,uint256)":"4e09747c","platformFee()":"26232a2e","proposals(uint256)":"013cf08b","proposeResolution(uint256,uint256)":"ed798fec","proposeResolutionMulti(uint256,uint256)":"623d5f20","purchaseShares(uint256,uint256,uint256)":"99bc4d96","redeemOptionWinnings(uint256)":"628e1d26","redeemShares(uint256)":"adba9804","renounceOwnership()":"715018a6","resolutionBond()":"2b839b41","resolveCard(uint256,uint256)":"0f9f9264","resolveCardMulti(uint256,uint256)":"90edf001","setDisputePeriod(uint256)":"a83ba53e","setPlatformFee(uint256)":"12e8e2c3","setResolutionBond(uint256)":"039cf6d0","setVotingPeriod(uint256)":"ea0217cf","transferOwnership(address)":"f2fde38b","userOptionStakes(address,uint256,uint256)":"793a932d","userShares(address,uint256)":"e53dc680","voteOnResolution(uint256,bool)":"66cd9005","votingPeriod()":"02a251a3","withdrawFees()":"476343ee"}}}}}